:020000040800F2
:1000000000000120315600080D0B00080F0B0008FE
:10001000110B0008130B0008150B0008000000006E
:10002000000000000000000000000000C1530008B4
:10003000170B00080000000061540008C5540008B8
:100040008156000881560008815600088156000834
:100050008156000881560008815600088156000824
:100060008156000881560008815600088156000814
:10007000190B00088156000881560008290B00085A
:10008000390B0008490B00088156000800000000E9
:100090000000000000000000000000008156000881
:1000A00081560008815600088156000881560008D4
:1000B0008156000881560008590B00088156000837
:1000C00081560008815600088156000881560008B4
:1000D00081560008690B00088156000800000000E6
:1000E0008156000881560008815600080000000073
:1000F0000000000000000000000000008156000821
:100100000000000081560008815600088156000852
:1001100000000000000000000000000000000000DF
:10012000790B00088156000881560008890B0008E9
:1001300081560008000000000000000000000000E0
:1001400000000000000000000000000081560008D0
:100150008156000881560008990B00088156000856
:1001600081560008815600080000000000000000D1
:10017000000000000000000000000000000000007F
:100180000000000081560008000000000000000090
:04019000815600088C
:1001A000034613F8012B002AFBD1181A01387047B7
:1001B00001F0FF01102A2BDB10F0070F08D010F818
:1001C000013B013A8B422DD010F0070F42B3F6D11C
:1001D000F0B441EA012141EA014122F007047FF035
:1001E00000070023F0E80256083C85EA010586EA8C
:1001F000010685FA47F5A3FA87F586FA47F6A5FAC8
:1002000087F68EB9EED1F0BC01F0FF0102F00702D3
:1002100032B110F8013B013A83EA010313B1F8D17E
:100220000020704701387047002D06BF354603385F
:10023000073815F0010F07D1013015F4807F02BF98
:10024000013015F4C03F0130F0BC0138704700BFE9
:100250007BB972B90029BEBF00204FF0004106E013
:1002600008BF00281CBF6FF000414FF0FF3000F0C6
:1002700057B8ADF1080C6DE904CE002909DB002B5D
:100280001ADB05F0EDFEDDF804E0DDE9022304B041
:100290007047404261EB4101002B1BDB05F0E0FEA3
:1002A000DDF804E0DDE9022304B0404261EB4101E6
:1002B000524263EB43037047524263EB430305F042
:1002C000CFFEDDF804E0DDE9022304B0404261EB3B
:1002D00041017047524263EB430305F0C1FEDDF874
:1002E00004E0DDE9022304B0524263EB43037047AC
:1002F00053B94AB9002908BF00281CBF4FF0FF318D
:100300004FF0FF3000F00CB8ADF1080C6DE904CEF1
:1003100005F0A6FEDDF804E0DDE9022304B0704735
:10032000704700BF0348044B834202D0034B03B124
:1003300018477047600000206000002000000000A7
:100340000548064B1B1AD90F01EBA301491002D037
:10035000034B03B118477047600000206000002085
:100360000000000010B5064C237843B9FFF7DAFF10
:10037000044B13B10448AFF300800123237010BD78
:1003800060000020000000001C63000808B5054B59
:100390001BB105490548AFF30080BDE80840FFF7F1
:1003A000CFBF00BF00000000640000201C630008F5
:1003B0002DE9F0478AB00024059406940794089428
:1003C00009940094444B1A6B42F004021A631A6BAE
:1003D00002F004020092009A01941A6B42F080022B
:1003E0001A631A6B02F080020192019A02941A6B4E
:1003F00042F001021A631A6B02F001020292029AA1
:1004000003941A6B42F002021A631A6B02F00202A2
:100410000392039A04941A6B42F008021A631B6B4E
:1004200003F008030493049B2C4F01224FF4005166
:10043000384601F0EBFADFF8ACA0224660215046C6
:1004400001F0E4FA264E224641F20301304601F063
:10045000DDFADFF8948001220421404601F0D6FA4B
:100460004FF40059CDF8149001250695079408948F
:1004700005A9384601F0E6F94FF480430593069448
:10048000079405A9384601F0DDF960230593069528
:100490000794089405A9504601F0D4F941F20303EA
:1004A000059306950794089405A9304601F0CAF90A
:1004B000CDF814900694079405A9304601F0C2F9CE
:1004C0000423059306950794089405A9404601F076
:1004D000B9F90AB0BDE8F0870038024000080240D0
:1004E0000004024000000240000C024010B596B02B
:1004F0003422002102A805F01FF9264B0393264B56
:100500000493264B059302A803F02BFE01462448D2
:1005100004F018F902A914A803F05EFE01238DF877
:10052000533003248DF851408DF8504005238DF849
:10053000523002A914A803F082FE02A9204603F05B
:1005400085FE02A912A803F090FE02AA139911A831
:1005500003F00CFF02AA139910A803F0B7FF109B39
:100560001A0A0092119A13990E4804F0EBF802A9A6
:1005700012A803F07AFE02AA12990FA803F0AEFEA9
:100580000F9A1299084804F0DDF8642004F094FDF5
:10059000D7E700BF01060008AD050008851F000869
:1005A000506300086C63000898630008F0B583B0DE
:1005B00014461D468DF807100F4E002204213046C8
:1005C00001F024FA0D4F4FF0FF3301220DF1070126
:1005D000384602F04AFC4FF0FF332A46214638469F
:1005E00002F043FC044601220421304601F00EFAD9
:1005F00060B203B0F0BD00BF000C02404803002011
:10060000F0B583B014461D468DF807100F4E00223A
:100610000421304601F0FAF90D4F4FF0FF3301226B
:100620000DF10701384602F020FC4FF0FF332A4657
:100630002146384602F011FE0446012204213046CC
:1006400001F0E4F960B203B0F0BD00BF000C02405D
:100650004803002030B593B000230B930C930D9307
:100660000E930F9310938DF844302B4B0A9303ACE9
:100670002A4D0FCD0FC495E8070003C42280284AF5
:100680006B4607CA03C323F8022B120C1A704FF0F3
:10069000FF331A2203A9234803F071F9012410E063
:1006A000224621490BA804F0EDFF4FF0FF33192239
:1006B0000BA91C4803F063F914F00F0F14D0013498
:1006C000E4B214F0800F1ED1052303226100174805
:1006D00002F072F80028E3D04FF0FF3304220AA999
:1006E000104803F04CF9E7E7114B1B68ADF82C30CC
:1006F0001B0C8DF82E304FF0FF3319220BA909483F
:1007000003F03DF9DBE74FF0FF330B226946054864
:1007100003F035F913B030BD202D2000B46300087C
:10072000D063000844020020AC630008800400206D
:10073000D863000800B583B00DF1070003F0DCFFBB
:1007400028B1064803F0FEFF03B05DF804FB9DF8F6
:100750000710034803F0F6FFF6E700BFDC6300086C
:10076000E863000808B50268034B9A4200D008BD50
:1007700001F0F6FBFBE700BF0008004072B6FEE7A1
:1007800000B583B000230093344A116B41F400118B
:100790001163116B01F40011009100990193116B29
:1007A00041F480011163126B02F480020192019AFC
:1007B0002B482C4A02604360802282604FF4007212
:1007C000C2604FF48062026143618361C36103626E
:1007D0000422426203228262C362036301F090F941
:1007E000D0BB002205210C2001F082FB0C2001F07F
:1007F0008FFB002205210F2001F07AFB0F2001F072
:1008000087FB00220521102001F072FB102001F06F
:100810007FFB00220521112001F06AFB112001F06D
:1008200077FB00220521382001F062FB382001F01F
:100830006FFB002205213B2001F05AFB3B2001F019
:1008400067FB00220521462001F052FB462001F003
:100850005FFB03B05DF804FBFFF790FF0038024038
:10086000800000202864024008B50A480A4B036053
:100870004FF4E133436000238360C36003610C22C3
:1008800042618361C36103F04BF800B908BDFFF713
:1008900075FF00BF000200200044004008B50D486D
:1008A0000D4B03604FF48273436000238360C36089
:1008B000036143614FF4007282611822C2610362D6
:1008C000436283620A23C36202F070FA00B908BD72
:1008D000FFF754FF480300200030014008B50A48E4
:1008E0000A4B03604FF4E133436000238360C3602D
:1008F00003610C2242618361C36103F011F800B906
:1009000008BDFFF73BFF00BF44020020001001407C
:1009100008B50A480A4B03600A4B43600023836012
:10092000C3604FF48042026143618361C36103622B
:1009300001F0F2FC00B908BDFFF720FF80040020A1
:10094000005C0040801A060008B50448044B0360B0
:1009500000F05AFB00B908BDFFF710FFD4040020D7
:100960000030024000B587B0002301930293039347
:100970000493059300931A481A4A026043607F2249
:100980008260FF22C26003614361836102F02FF83D
:1009900000BB00238DF804308DF805308DF806304B
:1009A00004930593012201A90D4802F073F898B948
:1009B00001228DF800208DF801208DF802200023FF
:1009C0008DF803306946064802F0C4F830B907B024
:1009D0005DF804FBFFF7D2FEFFF7D0FEFFF7CEFE77
:1009E000A00300200028004000B595B0302200216F
:1009F00008A804F0A1FE0023039304930593069333
:100A000007930193214A116C41F080511164126CDB
:100A100002F080520192019A02931D4A136823F456
:100A2000404343F400431360136803F440430293CC
:100A3000029B092308934FF48033099301230D93FC
:100A400002230E934FF480020F9208221092542238
:100A5000119212930423139308A800F0E5FA80B9C9
:100A60000F23039302210491002305934FF4805236
:100A70000692079303A800F03BFD20B915B05DF87E
:100A800004FBFFF77BFEFFF779FE00BF0038024052
:100A90000070004000B589B001F048FAFFF7A4FFEC
:100AA000FFF786FCFFF76CFEFFF7DEFEFFF7F6FEB2
:100AB000FFF714FFFFF72CFFFFF746FFFFF752FF8A
:100AC000FFF7C8FDFFF736FE0DF1040C0C4C0FCC00
:100AD000ACE80F0094E807008CE80700002101A8AB
:100AE00004F0B7FA074B186004F0AEFA012106488B
:100AF00000F092FF4FF4FA7001F044FAF6E700BFFD
:100B0000346300087C00002000040240FEE7FEE79A
:100B1000FEE7FEE7FEE7704708B5024801F0B4F8CB
:100B200008BD00BF2004002008B5024801F0ACF861
:100B300008BD00BFC003002008B5024801F0A4F8BA
:100B400008BD00BF4001002008B5024801F09CF834
:100B500008BD00BFE000002008B5024802F07EFC9E
:100B600008BD00BF3808002008B5024802F0FEFFAB
:100B700008BD00BF4402002008B5024801F084F817
:100B800008BD00BFE802002008B5024801F07CF86B
:100B900008BD00BF8802002008B5024801F074F8C3
:100BA00008BD00BFA001002000B583B00022009264
:100BB0000D4B596C41F480415964596C01F48041EA
:100BC000009100990192196C41F0805119641B6CDD
:100BD00003F080530193019B0F216FF0010001F09E
:100BE00087F903B05DF804FB003802400268094B46
:100BF0009A4200D0704782B000230193064B1A6BD3
:100C000042F480521A631B6B03F480530193019BDF
:100C100002B0704700300240003802402DE9F04732
:100C200088B0002303930493059306930793026807
:100C30003F4B9A4202D008B0BDE8F0870446002539
:100C400000953C4E336B43F004033363336B03F086
:100C500004030093009B0195336B43F0010333635E
:100C6000336B03F001030193019B4FF40073039373
:100C70004FF0120ACDF810A04FF00109CDF81490F2
:100C80004FF00308CDF818800427079703A92A48D6
:100C900000F0D8FD4FF480730393CDF810A0CDF889
:100CA0001490CDF81880079703A9244800F0CAFDD6
:100CB0000295336C43F400033364336C03F4000394
:100CC0000293029B1E481F4B03604FF0007343606A
:100CD0008560C5604FF48063036145618561C561CE
:100CE0000562456200F00CFFD8B9154BA3639C6305
:100CF0001548164B03604FF0C06343604023836088
:100D00000023C3604FF48062026143618361C36169
:100D10000362436200F0F4FE30B90B4B63639C63E3
:100D200089E7FFF72BFDE0E7FFF728FDF5E700BFB8
:100D3000005C004000380240000802400000024011
:100D40002004002028600240C003002070600240A0
:100D500000B587B000230193029303930493059396
:100D600002680B4B9A4202D007B05DF804FB0223E5
:100D700001934FF40073049301A800F0ADFC20B977
:100D8000044B0122C3F83C2EEEE7FFF7F7FCF7E730
:100D9000002800400000474230B589B0002303938B
:100DA000049305930693079302682F4B9A4201D050
:100DB00009B030BD04460025019503F584335A6C13
:100DC00042F480525A645A6C02F480520192019AA1
:100DD00002951A6B42F002021A631B6B03F00203C6
:100DE0000293029B38230393022304930323069365
:100DF0000523079303A91D4800F024FD1C481D4B43
:100E000003604FF0C06343608560C5604FF480634A
:100E1000036145618561C5610562456200F070FE50
:100E2000D8B9134BE3649C631348144B03604FF031
:100E3000C0634360402383600023C3604FF480623B
:100E4000026143618361C3610362436200F058FE43
:100E500030B9094BA3649C63AAE7FFF78FFCE0E776
:100E6000FFF78CFCF5E700BF0030014000040240B2
:100E7000E80200201064024088020020586402400A
:100E800030B58BB00446002305930693079308936F
:100E900009930368524A934204D0524A934247D07E
:100EA0000BB030BD002501954F4B5A6C42F010023B
:100EB0005A645A6C02F010020192019A02951A6B60
:100EC00042F001021A631B6B03F001030293029BC1
:100ED0004FF4C0630593022306930323089307236B
:100EE000099305A9414800F0ADFC4148414B03601E
:100EF0004FF00063436040238360C5604FF480631C
:100F0000036145618561C5610562456200F0F8FDD8
:100F100058B9374B63639C6300220521252000F0FC
:100F2000E7FF252000F0F4FFBAE7FFF727FCF0E722
:100F3000002503952C4B1A6C42F400321A641A6C8B
:100F400002F400320392039A04951A6B42F00102F4
:100F50001A631B6B03F001030493049B0C2305939A
:100F600002230693032308930723099305A91F4827
:100F700000F068FC2048214B03604FF000634360A1
:100F80008560C5604FF48063036145618561C5611B
:100F90000562456200F0B4FDD8B9174BA3639C63AA
:100FA0001748184B03604FF0006343604023836091
:100FB0000023C3604FF48062026143618361C361B7
:100FC0000362436200F09CFD30B90D4B63639C6388
:100FD00066E7FFF7D3FBE0E7FFF7D0FBF5E700BFDD
:100FE0000010014000440040003802400000024070
:100FF000A0010020B8640240400100208860024047
:10100000E0000020A060024058B110B504464379CA
:101010001BB101236371002010BD0371FFF7E6FDD2
:10102000F7E7012070470000002800F0E08170B56C
:1010300082B00446036813F0010F3BD09F4B9B68BE
:1010400003F00C03042B2CD09C4B9B6803F00C0387
:10105000082B21D06368B3F5803F4FD0B3F5A02FA4
:1010600052D0964B1A6822F480321A601A6822F421
:1010700080221A606368002B50D000F07DFF054687
:101080008E4B1B6813F4003F14D100F075FF401B1A
:101090006428F5D90320B1E1884B5B6813F4800F15
:1010A000D8D0864B1B6813F4003F03D06368002B35
:1010B00000F09F81236813F0020F54D07F4B9B6890
:1010C00013F00C0F3ED07D4B9B6803F00C03082BF4
:1010D00033D0E368002B68D0794B01221A6000F00E
:1010E0004BFF0546754B1B6813F0020F54D100F0FF
:1010F00043FF401B0228F5D903207FE16F4A1368A4
:1011000043F480331360B5E76C4B1A6842F48022D5
:101110001A601A6842F480321A60ABE700F02CFFC4
:101120000546664B1B6813F4003FC3D000F024FF54
:10113000401B6428F5D9032060E1604B5B6813F421
:10114000800FC6D15D4B1B6813F0020F03D0E3681C
:10115000012B40F05081594A136823F0F8032169AC
:1011600043EAC1031360236813F0080F42D0636998
:101170006BB3534B0122C3F8802E00F0FDFE0546F1
:101180004E4B5B6F13F0020F34D100F0F5FE401BA5
:101190000228F5D9032031E1484A136823F0F80307
:1011A000216943EAC1031360DDE7454B00221A6061
:1011B00000F0E2FE0546414B1B6813F0020FD2D04F
:1011C00000F0DAFE401B0228F5D9032016E13C4B63
:1011D0000022C3F8802E00F0CFFE0546374B5B6F30
:1011E00013F0020F06D000F0C7FE401B0228F5D90D
:1011F000032003E1236813F0040F77D02F4B1B6CFF
:1012000013F0805F33D1002301932C4B1A6C42F012
:1012100080521A641B6C03F080530193019B0125DB
:10122000284B1B6813F4807F23D0A368012B34D094
:10123000052B38D0214B1A6F22F001021A671A6F62
:1012400022F004021A67A368002B3DD000F094FE40
:1012500006461A4B1B6F13F0020F46D100F08CFEAE
:10126000801B41F288339842F3D90320C6E0002561
:10127000D6E7144A136843F48073136000F07CFED1
:101280000646104B1B6813F4807FCED100F074FE2D
:10129000801B0228F5D90320B0E0084A136F43F001
:1012A00001031367CFE7054B1A6F42F004021A6778
:1012B0001A6F42F001021A67C5E700BF003802400A
:1012C000000047420070004000F056FE0646524BB8
:1012D0001B6F13F0020F08D000F04EFE801B41F28E
:1012E00088339842F3D9032088E0EDB9A369002B35
:1012F00000F08380484A926802F00C02082A51D01C
:10130000022B17D0454B00221A6600F035FE04462A
:10131000414B1B6813F0007F42D000F02DFE001BF4
:101320000228F5D9032069E03B4A136C23F080536F
:101330001364DBE7394B00221A6600F01DFE0546F8
:10134000354B1B6813F0007F06D000F015FE401BE4
:101350000228F5D9032051E0E369226A1343626A47
:1013600043EA8213A26A5208013A43EA0243E26A5C
:1013700043EA0263284A5360284B01221A6600F0B0
:10138000FBFD0446244B1B6813F0007F06D100F0E0
:10139000F3FD001B0228F5D903202FE000202DE0EB
:1013A00000202BE0012B2BD01B4B5B6803F480014A
:1013B000E269914226D103F03F02216A8A4223D199
:1013C000616A47F6C0721A40B2EB811F1ED103F466
:1013D0004031A26A5208013AB1EB024F18D103F032
:1013E0007063E26AB3EB026F14D1002006E00120C3
:1013F0007047012002E0012000E0002002B070BD33
:101400000120FBE70120F9E70120F7E70120F5E7DC
:101410000120F3E70120F1E70038024000004742D5
:1014200008B5314B9B6803F00C03082B01D02F4803
:1014300008BD2D4B5A6802F03F025B6813F4800F21
:101440002CD0294B5868C0F388104FEA401CBCEBE5
:10145000000C6EEB0E0E4FEA8E1343EA9C634FEACC
:101460008C11B1EB0C0163EB0E03DB0043EA51730B
:10147000C90011EB000C43F10003990200234FEA6D
:101480008C2041EA9C51FEF733FF174B5B68C3F396
:10149000014301335B00B0FBF3F0C9E7124B58681E
:1014A000C0F388104FEA401CBCEB000C6EEB0E0E34
:1014B0004FEA8E1343EA9C634FEA8C11B1EB0C01A7
:1014C00063EB0E03DB0043EA5173C90011EB000C20
:1014D00043F10003990200234FEA8C2041EA9C511A
:1014E000FEF706FFD1E700BF003802400024F400F9
:1014F000002800F09B8070B50D4604464F4B1B68DA
:1015000003F007038B4208D2CBB24C4A1370136826
:1015100003F007038B4240F08B80236813F0020F27
:1015200017D013F0040F04D0454A936843F4E053F6
:101530009360236813F0080F04D0414A936843F482
:10154000604393603E4A936823F0F003A1680B4325
:101550009360236813F0010F32D06368012B21D010
:101560009A1E012A25D9364A126812F0020F61D05C
:1015700033498A6822F0030213438B6000F0FCFCBD
:1015800006462F4B9B6803F00C036268B3EB820F97
:1015900016D000F0F1FC801B41F288339842F0D95C
:1015A000032042E0264A126812F4003FE0D10120F5
:1015B0003BE0234A126812F0007FD9D1012034E0C9
:1015C0001E4B1B6803F00703AB4207D9EAB21B4B63
:1015D0001A701B6803F00703AB422DD1236813F088
:1015E000040F06D0164A936823F4E053E1680B43D6
:1015F0009360236813F0080F07D0114A936823F40F
:101600006043216943EAC1039360FFF709FF0C4B74
:101610009B68C3F303130B4AD35CD8400A4B186092
:101620000A4B186803F0BAF8002070BD012070471B
:101630000120FAE70120F8E70120F6E7003C02402C
:101640000038024014640008080000200400002054
:10165000014B1868704700BF0800002008B5FFF76D
:10166000F7FF044B9B68C3F38223034AD35CD84043
:1016700008BD00BF003802400C64000808B5FFF741
:10168000E7FF044B9B68C3F34233034AD35CD84063
:1016900008BD00BF003802400C6400080F2303603F
:1016A0000B4B9A6802F0030242609A6802F0F00263
:1016B00082609A6802F4E052C2609B68DB0803F41F
:1016C000E0530361034B1B6803F007030B60704793
:1016D00000380240003C024030B583B00446036845
:1016E00013F0050F0ED1236813F0020F36D12368D3
:1016F00013F0080F00F09B80227C4E4BC3F8E021D2
:10170000002095E04C4B00229A6600F035FC05461F
:101710004A4B1B6813F0006F06D000F02DFC431BF2
:10172000022BF5D9032083E06268A3681B0743EA14
:101730008213424AC2F884303F4B01229A6600F07D
:101740001BFC05463D4B1B6813F0006FCBD100F02E
:1017500013FC401B0228F5D9032069E00023019304
:10176000364B1A6C42F080521A641B6C03F08053A3
:101770000193019B324A136843F48073136000F0B5
:10178000FBFB05462E4B1B6813F4807F06D100F04F
:10179000F3FB431B022BF5D9032049E0274B1B6FBA
:1017A00013F4407314D0E26802F440729A420FD0EE
:1017B000224B1A6F22F440721F490120C1F8400EDB
:1017C0000020C1F8400E1A671B6F13F0010F12D1F1
:1017D000E36803F44072B2F5407F1DD0174A936866
:1017E00023F4F813936015490B6FE268C2F30B0200
:1017F00013430B677BE700F0BFFB05460F4B1B6FE6
:1018000013F0020FE4D100F0B7FB401B41F2883324
:101810009842F3D903200BE008498A6822F4F812B1
:1018200023F0704323F4407313438B60DBE7002005
:1018300003B030BD0010474200004742003802406C
:101840000070004000230F2B00F2D78070B582B0EB
:1018500065E085684FEA430E032404FA0EF425EA96
:101860000405CC6804FA0EF42C438460446824EA2E
:1018700002044A68C2F300129A40224342605CE0CC
:10188000DC08083450F8242003F00705AD004FF0C1
:101890000F0E0EFA05FE22EA0E0E0A69AA4042EA6F
:1018A0000E0240F824205CE0042200E0002202FA4C
:1018B0000EF22A430234514D45F82420504A9468D0
:1018C0006FEA0C0224EA0C054E6816F4801F01D062
:1018D0004CEA04054A4CA560E46802EA04054E6837
:1018E00016F4001F01D04CEA0405454CE56064681D
:1018F00002EA04054E6816F4003F01D04CEA0405E4
:101900003F4C6560246822404D6815F4803F01D04B
:101910004CEA04023A4C226001330F2B6BD80122AF
:101920009A400C6804EA020C32EA0404F4D14C68D0
:1019300004F00304013C012C8BD94A6802F0030235
:10194000032A09D0C4685D000322AA4024EA0204E5
:101950008A68AA402243C2604A6802F00302022A4F
:101960008ED004684FEA430E032202FA0EF224EAF4
:1019700002044A6802F0030202FA0EF222430260F5
:101980004A6812F4403FC7D0002201921D4A546CAD
:1019900044F480445464526C02F480420192019AEF
:1019A0009C08A51C154A52F8255003F0030E4FEA77
:1019B0008E0E0F2202FA0EF225EA0205124A90421A
:1019C0003FF474AF02F5806290420ED002F580625F
:1019D00090420CD002F5806290420AD002F58062FB
:1019E00090423FF461AF072261E701225FE70222E4
:1019F0005DE703225BE702B070BD7047003801402D
:101A0000003C014000380240000002400AB1816100
:101A10007047090481617047436901EA030221EAC2
:101A2000030141EA024181617047000010B403687C
:101A3000D9B210390C4AA2FB014212090B4CA25C2C
:101A4000C2655F2909D923F47F7323F003030433AC
:101A50008365806D5DF8044B704723F47F7323F03A
:101A600003038365F5E700BFABAAAAAA04640008D4
:101A7000836A826992B9012B0AD0022B02D00BB182
:101A800000207047C36A13F0807F28D10020704780
:101A9000C36AB3F1C07F24D000207047B2F5005F65
:101AA00009D0022B25D9032B25D1C36A13F0807FDF
:101AB00023D100207047032B03D8DFE803F0140480
:101AC000140A00207047C36A13F0807F0DD10020F4
:101AD0007047C36AB3F1C07F09D00020704701206E
:101AE0007047012070470120704701207047012096
:101AF00070470120704700207047012070470000A8
:101B000070B5044600F038FA002C5BD0054602237D
:101B100084F83530002384F834302268136823F0C9
:101B20000103136023681A6812F0010F0AD000F055
:101B300023FA431B052BF5D920236365032084F882
:101B4000350070BD1A68204911406268A0680243E0
:101B5000E06802432069024360690243A0690243CE
:101B6000E0690243206A02430A43616A04291ED0E5
:101B70001A602668756925F00705636A1D43042B02
:101B800007D1A36A1D43E36A1BB12046FFF770FF2C
:101B900090B975612046FFF749FFE26D3F239340FE
:101BA000836000206065012384F83530C9E7E16A6D
:101BB000206B01430A43DBE740236365012084F87F
:101BC0003500BEE70120BCE73F8010F070B5044649
:101BD000866D00F0D1F994F83530DBB2022B06D0D7
:101BE00080236365002384F83430012070BD0546EE
:101BF0002268136823F0160313602268536923F0E8
:101C000080035361236CE3B12268136823F0080357
:101C100013602268136823F00103136023681B68B4
:101C200013F0010F11D000F0A7F9431B052BF5D9D4
:101C300020236365032084F83500002384F83430C2
:101C4000D4E7A36C002BDFD1E3E7E26D3F239340A1
:101C5000B360012384F83530002084F83400C5E7F0
:101C600090F83530DBB2022B03D08023436501208E
:101C70007047052380F835300268136823F00103AC
:101C80001360002070470000F0B583B004460023C5
:101C90000193724B1D68724BA3FB0535AD0A876D2E
:101CA0003E68C26D08239340334210D003681A681F
:101CB00012F0040F0BD01A6822F004021A60C26DF1
:101CC00008239340BB60436D43F001034365E26D1D
:101CD00001239340334209D02268526912F0800FE9
:101CE00004D0BB60636D43F002036365E26D0423BF
:101CF0009340334209D02268126812F0020F04D0D8
:101D0000BB60636D43F004036365E26D1023934091
:101D1000334224D02268126812F0080F1FD0BB6033
:101D200023681A6812F4802F0DD01B6813F4002F5B
:101D300004D1236C9BB12046984710E0A36C73B18B
:101D4000204698470BE01A6812F4807F03D11A6886
:101D500022F008021A60236C0BB120469847E26D0E
:101D600020239340334255D02268126812F0100F9E
:101D700050D0BB6094F83530DBB2052B0ED0236811
:101D80001A6812F4802F33D01B6813F4002F2AD165
:101D9000636C002B3ED0204698473BE022681368D6
:101DA00023F0160313602268536923F08003536104
:101DB000236CA3B12268136823F008031360E26D5B
:101DC0003F239340BB60012384F83530002384F81F
:101DD0003430236D002B3FD0204698473CE0A36C65
:101DE000002BE7D1EBE7E36BA3B12046984711E066
:101DF0001A6812F4807F09D11A6822F010021A6062
:101E0000012384F83530002384F83430E36B0BB1C0
:101E100020469847636DFBB1636D13F0010F17D037
:101E2000052384F835302268136823F0010313601A
:101E3000019B01330193AB4204D823681B6813F064
:101E4000010FF5D1012384F83530002384F83430B4
:101E5000E36C0BB12046984703B0F0BD08000020AA
:101E6000B5814E1B002808DB0901C9B200F16040B2
:101E700000F5614080F80013704700F00F00090181
:101E8000C9B2014B1954704714ED00E000B500F0E1
:101E90000700C0F1070CBCF1040F28BF4FF0040C81
:101EA000031D062B0FD9C31E4FF0FF3E0EFA0CF098
:101EB00021EA000199400EFA03FE22EA0E0241EAED
:101EC00002005DF804FB0023EEE70000074AD36838
:101ED00023F4E0631B041B0C000200F4E0600343E6
:101EE00043F0BF6343F40033D360704700ED00E07C
:101EF00010B50446054BD868C0F30220FFF7C6FFB3
:101F000001462046FFF7AEFF10BD00BF00ED00E028
:101F1000002807DB00F01F02400901239340024A1A
:101F200042F82030704700BF00E100E008B50B4BDD
:101F30001A6842F400721A601A6842F480621A60E9
:101F40001A6842F480721A600320FFF7BFFF0F2067
:101F500002F024FCFEF728FE002008BD003C0240F1
:101F6000034A1168034B1B780B441360704700BF92
:101F7000DC04002000000020014B1868704700BFFF
:101F8000DC04002038B50446FFF7F6FF0546B4F13F
:101F9000FF3F02D0044B1B781C44FFF7EDFF401BB2
:101FA000A042FAD338BD00BF0000002003685A6980
:101FB00012F4806F01D1002070476FF480625A6183
:101FC00000230363202280F83D2080F83E30026C1D
:101FD00042F00402026480F83C30012070472DE991
:101FE000F04107460D4690461E4624E0FFF7C4FF29
:101FF000069BC01AB04200D8EEB900233B632022F2
:1020000087F83D2087F83E303A6C42F020023A646F
:1020100087F83C3001201EE03B689C6925EA040CEF
:102020001FFA8CFCBCFA8CFC4FEA5C1CE04511D119
:10203000B6F1FF3FDAD1C5F30743012BECD13B6882
:102040005B6925EA030C1FFA8CFCBCFA8CFC4FEA96
:102050005C1CEBE70020BDE8F0812DE9F04105466E
:102060000E46174698463DE01A6842F400721A6020
:102070002B686FF480625A6100232B63202285F85D
:102080003D2085F83E302A6C42F004022A6485F82F
:102090003C30012034E0FFF76FFFA0EB0800B842AE
:1020A00000D8FFB900232B63202285F83D2085F856
:1020B0003E302A6C42F020022A6485F83C30012030
:1020C0001EE02B689C6926EA0404A4B2003C18BFF9
:1020D0000124A4B12B685A6912F4806FC4D1B7F1FE
:1020E000FF3FD8D1C6F30743012BEAD12B685C69C7
:1020F00026EA0404A4B2003C18BF0124E9E700204A
:10210000BDE8F08170B504460D46164623685B694C
:1021100013F0800F1CD12046FFF748FFD0B9B5F16E
:10212000FF3FF3D0FFF728FF801BA84201D8002D06
:10213000ECD100232363202284F83D2084F83E3034
:10214000226C42F02002226484F83C30012000E03E
:10215000002070BD0120FCE72DE9F04784B0044663
:102160000D46164699460C9FDDF8348002681368C8
:1021700043F4806313600368196841F48071196047
:10218000CDF800803B4600224FF00111FFF727FFFA
:1021900070B95FFA85FA236805F0FE051D614346B4
:1021A0003A4641492046FFF758FF68B1012008E050
:1021B00023681B6813F4807F02D04FF400732364FC
:1021C000032004B0BDE8F0870023039323685A6915
:1021D00003929B690393039B424639462046FFF7CF
:1021E00091FF80B9B9F1010F18D12368F6B21E61D1
:1021F000424639462046FFF785FF68B3236C042B1F
:1022000024D00120DDE7236C042B01D00120D8E786
:102210002268136843F400731360F7E72368320AF7
:102220001A61424639462046FFF76CFF18B9236809
:10223000F6B21E61DCE7236C042B01D00120C0E75D
:102240002268136843F400731360F7E72268136889
:1022500043F400731360D4E72268136843F4807377
:102260001360CDF800803B4600224FF0011120465C
:10227000FFF7B5FE68B922684AF0010313614346CF
:102280003A4609492046FFF7E8FE002899D0012088
:1022900097E723681B6813F4807F02D04FF4007324
:1022A000236403208DE700BF0200010070B50546DE
:1022B0000C4616462B68596911F0400F29D159690F
:1022C00011F0100F15D1FFF757FE801BA04201D867
:1022D000002CEFD100232B63202285F83D2085F8C8
:1022E0003E302A6C42F020022A6485F83C300120FE
:1022F00070BD6FF010025A6100232B63202285F815
:102300003D2085F83E302A6C2A6485F83C30012057
:10231000EEE70020ECE70000002800F0CC8070B56C
:10232000044690F83D30002B77D0242384F83D30CC
:102330002268136823F0010313602268136843F4D2
:10234000004313602268136823F400431360FFF70F
:1023500085F962685A4B9A4264D85A4B98428CBFAE
:1023600000230123002B40F0A8805749A1FB003136
:102370008B0C25686A6822F03F0242EA91426A604B
:1023800021680A6A22F03F0266684D4DAE424FD87E
:10239000013313430B622168CA6922F44F4222F0D1
:1023A000FF026568464B9D424CD8431E6D00B3FB4F
:1023B000F5F3013340F6FC70034278D0C3F30B030E
:1023C0001A43CA6121680B6823F0C003E269206ADE
:1023D000024313430B6021688B6823F4034323F00B
:1023E000FF032269E068024313438B602168CB68D6
:1023F00023F0FF036269A06902431343CB602268A4
:10240000136843F00103136000202064202384F844
:102410003D30206384F83E0070BD80F83C30FEF70C
:10242000FDFB82E7294B98428CBF0023012399E7EB
:102430004FF4967505FB03F3254DA5FB03539B094C
:102440000133A6E7A668BEB9431E05EB450CB3FBF6
:10245000FCF30133C3F30B03B3FA83F35B0943BB10
:10246000C6B9431E05EB4505B3FBF5F30133C3F3D2
:102470000B0343F40043A3E7431E05EB850C0CEB71
:102480008C0CB3FBFCF30133C3F30B03B3FA83F3FC
:102490005B09E4E7431E05EB850505EB8505B3FB0A
:1024A000F5F30133C3F30B0343F4404388E70423FC
:1024B00086E7012384E7012070470120ACE700BFD5
:1024C000A08601007F841E0083DE1B43FF083D00C1
:1024D000D34D62102DE9F04387B004460F46904675
:1024E0009946109EFFF748FD054694F83D00C0B29E
:1024F000202804D00227384607B0BDE8F0830095B5
:102500001923012288492046FFF769FD002840F081
:10251000438194F83C30012B00F04081012384F882
:102520003C3023681A6812F0010F03D11A6842F098
:1025300001021A602268136823F4006313602223E7
:1025400084F83D30402384F83E30002323640E9B02
:102550006362BDF83C306385638D2385734BE36212
:10256000019500964B46424639462046FFF7F4FD5A
:102570000746002840F01481238D5BB9029323683D
:102580005A6902929A690292029A1A6842F4007297
:102590001A6075E0012B0AD0022B1AD00023059394
:1025A00023685A6905929B690593059B68E0226838
:1025B000136823F4806313600023039323685A692C
:1025C00003929A690392039A1A6842F400721A609D
:1025D00056E02268136823F480631360226813684E
:1025E00043F4006313600023049323685A69049240
:1025F0009B690493049B43E02A4631462046FFF73B
:1026000055FE002840F0CE8023681A69636A1A706C
:10261000636A01336362238D013B2385638D9BB223
:10262000013B9BB263852BE0009533460022404975
:102630002046FFF7D4FC002840F0B68022681368DB
:1026400043F40073136023681A69636A1A70626A3C
:10265000531C6362238D013B2385638D9BB2013B39
:102660009BB2638523681B695370636A013363629D
:10267000238D013B2385638D9BB2013B9BB2638518
:10268000238D002B7FD0032B54D8012BB4D0022BE9
:10269000CAD000953346002225492046FFF79FFC0B
:1026A000002840F083802268136823F4806313605D
:1026B00023681A69636A1A70636A01336362238D3F
:1026C000013B2385638D9BB2013B9BB263850095E3
:1026D0003346002216492046FFF781FC002867D1C7
:1026E0002268136843F40073136023681A69636AED
:1026F0001A70626A531C6362238D013B2385638DCC
:102700009BB2013B9BB2638523681B695370636A6C
:1027100001336362238D013B2385638D9BB2013BB3
:102720009BB26385ACE700BF020010000000FFFF12
:10273000040001002A4631462046FFF7B7FD002875
:1027400038D123681A69636A1A70626A531C63621B
:10275000238D013B2385638D9BB2013B9BB2638537
:102760002368596911F0040F8AD01B695370636A9A
:1027700001336362238D013B2385638D9BB2013B53
:102780009BB263857CE7202384F83D30002384F8E6
:102790003E3084F83C30AEE60227ACE60227AAE6DB
:1027A0000127A8E60127A6E60127A4E60127A2E65D
:1027B0000127A0E601279EE62DE9F04385B00446F7
:1027C000884691461D46FFF7D7FB94F83D30DBB2B3
:1027D000202B03D0022005B0BDE8F0830646009010
:1027E0001923012257492046FFF7F9FB002840F042
:1027F000A08094F83C30012B00F09D80012384F8E8
:102800003C3023681A6812F0010F03D11A6842F0B5
:1028100001021A602268136823F400631360242302
:1028200084F83D3000272764474BE36240E023688B
:102830001B6813F4807F02D04FF4007323640320DD
:10284000C9E7A02384F83D3022685369C3F34003ED
:102850005269C2F3802294F83DC05FFA8CFCBCF14F
:10286000A00F09D043B93AB9FFF786FB801BA842F5
:10287000E7D8002DE8D1E4E7202384F83D30236831
:102880005A6912F0020F31D11A6842F400721A60CC
:1028900023686FF480625A61009619230122294946
:1028A0002046FFF79CFB002849D101374F4538D21D
:1028B0002268136843F48073136000962B4600224D
:1028C0004FF001112046FFF78AFB0028AFD12368A3
:1028D00008F0FE021A61FFF74FFB064622685369B3
:1028E000C3F340035269C2F38022B4E71A6842F48A
:1028F00000721A600023039323685A6903929B694C
:102900000393039B0096192301220E492046FFF7EB
:1029100066FB90B9202384F83D30002384F83C30D6
:1029200059E7202384F83D30002384F83C3001200F
:1029300051E702204FE702204DE701204BE701203D
:1029400049E700BF020010000000FFFF38B5044651
:102950000268D36823F0A003D360FFF70DFB0546A0
:102960002368DB6813F0200F07D1FFF705FB401B3E
:10297000B0F57A7FF4D9032000E0002038BD70B5AF
:102980000368DA6812F0400F02D00025284670BDB7
:102990000446DA6842F08002DA60FFF7EDFA064694
:1029A00000252368DB6813F0400FEFD1002DEDD137
:1029B000FFF7E2FA831BB3F57A7FF2D9042363773A
:1029C0000125EEE70268D36823F08003D360036833
:1029D0009B6813F0200F01D00020704710B504460B
:1029E000FFF7B4FF10B104236377012010BD002866
:1029F00042D010B50446437F7BB10223637723683E
:102A0000CA225A62236853225A622046FFF7B7FF50
:102A100038B12368FF225A6210BD0377FEF798F998
:102A2000EBE72268936823F4E00323F0400393600C
:102A300021688A686368206903436069034313431C
:102A40008B602368E2681A6122681369A16843EA0F
:102A5000014313612046FFF7B5FF0028D9D1226852
:102A6000136C23F4802313642268136CA1690B4355
:102A7000136401236377CCE701207047002303E050
:102A80000133DBB20A38C0B20928F9D81B01DBB226
:102A900018437047037F012B5AD070B504460E4689
:102AA000012303770223437732BB03689B6813F04B
:102AB000400F01D10023CB703078FFF7DFFF050412
:102AC0007078FFF7DBFF45EA0025B078FFF7D6FF07
:102AD0000543F37845EA83552368CA225A6223687E
:102AE00053225A622046FFF74AFFB8B12368FF22FB
:102AF0005A620023237770BD03689B6813F0400F70
:102B000001D10023CB70337875782D0245EA034557
:102B1000B3781D43F37845EA8355DDE7236805F074
:102B20007F3525F0FE451D602268936823F48023DD
:102B3000936021688B68F2683069024313438B60AD
:102B40002046FFF73FFF0028D0D101236377CDE770
:102B500002207047037F012B48D070B504460E4613
:102B60000123037702234377CAB1CB784D782D0236
:102B700045EA03458B781D430B7845EA43352368C6
:102B8000CA225A62236853225A622046FFF7F7FE90
:102B9000F0B12368FF225A620023237770BD4B787F
:102BA00013F0100F03D003F0EF030A334B70F078EB
:102BB000FFF764FF05047078FFF760FF45EA002522
:102BC000B078FFF75BFF0543337845EA4335D6E736
:102BD000236825F07F4525F0C0055D602046FFF79E
:102BE000F1FE0028D5D101236377D2E70220704798
:102BF0002DE9F04782B00546884617461E46FFF786
:102C0000BBF90A9B1B1A03EB0609FFF7B5F98246CD
:102C1000284B1B68C3F3CB3309FB03F301932B68E9
:102C20009C6838EA04040CBF01230023BB423DD05A
:102C3000B6F1FF3FF3D0FFF79FF9A0EB0A0048453C
:102C400007D2019A02B14A46019B013B019391468A
:102C5000E5E72A68536823F0E00353606B68B3F537
:102C6000827F0BD0AB6AB3F5005F14D0012385F8E7
:102C70005130002385F85030032018E0AB68B3F5DD
:102C8000004F02D0B3F5806FECD12A68136823F0AF
:102C900040031360E6E72A68136823F400531360C7
:102CA0002A68136843F400531360DFE7002002B082
:102CB000BDE8F0870800002010B584B00446164B2C
:102CC0001868164BA3FB0030400D4FF47A7303FBDA
:102CD00000F003906368B3F5827F0BD0039BBBB118
:102CE000039B013B039323689B6813F0800FF5D18E
:102CF00000200EE000920B46002280212046FFF7C4
:102D000077FF30B1636D43F020036365032000E07B
:102D1000002004B010BD00BF08000020819F5E1697
:102D200010B582B004460B464168B1F5827F14D0DD
:102D30006168B1F5827F2AD1A168B1F5806F19D0A1
:102D40000092002280212046FFF752FF30B3636DCE
:102D500043F020036365032020E08168B1F5004F54
:102D600002D0B1F5806FE3D12068016821F0400105
:102D70000160DDE70092002201212046FFF738FFC5
:102D800060B1636D43F020036365032006E00092A9
:102D9000002201212046FFF72BFF08B902B010BD29
:102DA000636D43F0200363650320F7E700285AD0E2
:102DB00010B50446436A33B94368B3F5827F05D042
:102DC0000023C36102E00023036143610023A36287
:102DD00094F85130002B40D0022384F851302268FF
:102DE000136823F040031360636803F48273A268DE
:102DF00002F404421343E26802F4006213432269BE
:102E000002F002021343626902F001021343A26955
:102E100002F400721343E26902F038021343226A9B
:102E200002F080021343A26A02F4005221681343A5
:102E30000B60638B03F00403626A02F010022168E6
:102E400013434B602268D36923F40063D3610020ED
:102E50006065012384F8513010BD84F8503020465D
:102E6000FDF79AFFB8E7012070472DE9F04383B0E2
:102E70001D4690F85030012B00F0D1800446884662
:102E80009146012380F85030FFF776F8074694F812
:102E90005160F6B2012E40F0AF80B8F1000F00F0A3
:102EA000AC80B9F1000F00F0A880032384F8513002
:102EB00000236365C4F83080A4F83490A4F83690F9
:102EC000A363A387E38763642364A368B3F5004F18
:102ED0001ED023681A6812F0400F03D11A6842F01E
:102EE00040021A60E368B3F5006F1CD0636813B149
:102EF000B9F1010F52D1226B236812781A73236B38
:102F000001332363E38E9BB2013B9BB2E38645E032
:102F10002268136823F0400313602268136843F4A7
:102F200080431360D5E7636813B1B9F1010F16D17F
:102F3000226B23681288DA60236B02332363E38EEB
:102F40009BB2013B9BB2E38609E0FFF715F8C01B7B
:102F5000A84202D3B5F1FF3F59D1002D59D0E38EDD
:102F60009BB2002B33D023689A6812F0020FECD08A
:102F7000226B1288DA60236B02332363E38E9BB2E9
:102F8000013B9BB2E386EAE7FEF7F6FFC01BA842CF
:102F900002D3B5F1FF3F3ED1002D3ED0E38E9BB270
:102FA000ABB123689A6812F0020FEDD0226B127851
:102FB0001A73236B01332363B4F836C01FFA8CFCF9
:102FC0000CF1FF3C1FFA8CFCA4F836C0E6E73A4649
:102FD00029462046FFF770FE08B120236365A368E9
:102FE00033B901932368DA6801929B680193019BCE
:102FF000636D13B9002600E00226012384F85130E6
:10300000002384F85030304603B0BDE8F083032637
:10301000F3E70326F1E70326EFE70326EDE70226B1
:10302000F1E72DE9F04383B01F460A9D90F8503038
:10303000012B00F01081044688469146012380F858
:103040005030FEF799FF064694F85130DBB26268C3
:10305000012B0AD0B2F5827F40F0E380A268002AFB
:1030600040F0E980042B40F0E880B8F1000F00F058
:10307000E680B9F1000F00F0E480002F00F0E3805B
:1030800094F85130DBB2042B02D0052384F8513080
:1030900000236365C4F83890E787A787C4F83080B9
:1030A000E786A7862364636423681A6812F0400FDA
:1030B00003D11A6842F040021A60E368B3F5006F6A
:1030C00011D063680BB1012F0BD1226B23681278EA
:1030D0001A73236B01332363E38E9BB2013B9BB2D4
:1030E000E38601276BE063680BB1012F0BD1226BE4
:1030F00023681288DA60236B02332363E38E9BB26A
:10310000013B9BB2E38601271CE023689A6812F01A
:10311000010F0ED0E28F92B25AB1DA68A36B1A8017
:10312000A36B0233A363E38F9BB2013B9BB2E387A4
:103130000127FEF721FF801BA84203D3B5F1FF3F13
:1031400040F08380E38E9BB21BB9E38F9BB2002BD0
:1031500053D023689A6812F0020FD6D0E28E92B252
:10316000002AD2D0002FD0D0226B1288DA60236BD5
:1031700002332363E38E9BB2013B9BB2E3860027BD
:10318000C3E723689A6812F0010F0ED0E28F92B263
:103190005AB1DA68A36B1A70A36B0133A363E38F90
:1031A0009BB2013B9BB2E3870127FEF7E5FE831B41
:1031B000AB4202D3B5F1FF3F49D1002D49D0E38E98
:1031C0009BB213B9E38F9BB2BBB123689A6812F02C
:1031D000020FD6D0E28E92B2002AD2D0002FD0D0E9
:1031E000226B12781A73236B01332363E38E9BB235
:1031F000013B9BB2E3860027C3E7324629462046BF
:10320000FFF75AFD48B9A36863B901932368DA68E8
:1032100001929B680193019B04E0202363650120D8
:1032200000E00220012384F85130002384F850305C
:1032300003B0BDE8F0830220F4E70220F2E70120AA
:10324000F0E70120EEE70120ECE70320EAE70320A6
:10325000E8E70320E6E70220EAE72DE9F04383B040
:103260000446884691461D464068B0F5827F38D0B6
:1032700094F85030012B00F0AE80012384F85030D8
:10328000FEF77AFE074694F85160F6B2012E40F040
:103290008F80B8F1000F00F08C80B9F1000F00F0C2
:1032A0008880042384F8513000236365C4F8388093
:1032B000A4F83C90A4F83E902363A386E38623649D
:1032C0006364A368B3F5004F19D023681A6812F03D
:1032D000400F03D11A6842F040021A60E3681BB342
:1032E00041E0A368002BC3D1042384F8513000953A
:1032F00013460A462046FFF794FE06465FE0226822
:10330000136823F0400313602268136823F480439A
:103310001360DAE7FEF730FEC01BA84202D3B5F116
:10332000FF3F50D1002D50D0E38F9BB2002B33D004
:1033300023689A6812F0010FECD0A26B1B7B13700C
:10334000A36B0133A363E38F9BB2013B9BB2E38783
:10335000EAE7FEF711FEC01BA84202D3B5F1FF3F1A
:1033600035D1002D35D0E38F9BB2ABB123689A687D
:1033700012F0010FEDD0DA68A36B1A80A36B023351
:10338000A363B4F83EC01FFA8CFC0CF1FF3C1FFA9B
:103390008CFCA4F83EC0E6E73A4629462046FFF7F3
:1033A000BFFC08B120236365636D13B9002600E0FC
:1033B0000226012384F85130002384F8503030462F
:1033C00003B0BDE8F0830326F3E70326F1E7032605
:1033D000EFE70326EDE70226F1E7704790F83D306E
:1033E000DBB2012B2FD1022380F83D300268D36875
:1033F00043F00103D3600368154A934218D0B3F138
:10340000804F15D0A2F57C42934211D002F5806224
:1034100093420DD002F58062934209D002F59A32B0
:10342000934205D01A6842F001021A6000207047EA
:103430009A6802F00702062A07D01A6842F00102D1
:103440001A6000207047012070470020704700BFBD
:1034500000000140704770477047704710B5044640
:1034600003681A6912F0020F11D0DA6812F0020F25
:103470000DD06FF002021A610123037703689B6984
:1034800013F0030F70D0FFF7E6FF002323772368C4
:103490001A6912F0040F12D0DA6812F0040F0ED07D
:1034A0006FF004021A610223237723689B6913F4E7
:1034B000407F5FD02046FFF7CEFF002323772368AD
:1034C0001A6912F0080F12D0DA6812F0080F0ED045
:1034D0006FF008021A61042323772368DB6913F075
:1034E000030F4ED02046FFF7B6FF00232377236853
:1034F0001A6912F0100F12D0DA6812F0100F0ED005
:103500006FF010021A61082323772368DB6913F434
:10351000407F3DD02046FFF79EFF0023237723689E
:103520001A6912F0010F03D0DA6812F0010F36D1D8
:1035300023681A6912F0800F03D0DA6812F0800F46
:1035400034D123681A6912F0400F03D0DA6812F000
:10355000400F32D123681A6912F0200F03D0DA68C5
:1035600012F0200F30D110BDFFF774FF2046FFF797
:1035700073FF8AE72046FFF76DFF2046FFF76CFFD9
:103580009BE72046FFF766FF2046FFF765FFACE7A5
:103590002046FFF75FFF2046FFF75EFFBDE76FF0B5
:1035A00001021A612046FDF7DDF8C1E76FF08002E5
:1035B0001A61204600F08BF8C3E76FF040021A61F1
:1035C0002046FFF74AFFC5E76FF020021A61204648
:1035D00000F07CF8C7E700000368254A90420ED04F
:1035E000B0F1804F0BD0A2F57C42904207D002F59B
:1035F0008062904203D002F58062904203D123F0B2
:1036000070034A6813431A4A90421AD0B0F1804FAF
:1036100017D0A2F57C42904213D002F5806290420E
:103620000FD002F5806290420BD002F59A329042A0
:1036300007D002F58062904203D002F5806290428A
:1036400003D123F44073CA68134323F080034A690B
:10365000134303608B68C3620B688362044B984218
:1036600002D00123436170470B690363F9E700BF90
:103670000000014040B310B5044690F83D30F3B16E
:10368000022384F83D30214651F8040BFFF7A4FFD4
:10369000012384F8463084F83E3084F83F3084F8C3
:1036A000403084F8413084F8423084F8433084F864
:1036B000443084F8453084F83D30002010BD80F857
:1036C0003C30FFF78AFEDBE7012070477047704708
:1036D000026802F10C0353E8003F23F490730C32AC
:1036E00042E800310029F3D1026802F1140353E8E3
:1036F000003F23F00103143242E800310029F3D1E6
:10370000036B012B05D0202380F83E300023036398
:103710007047026802F10C0353E8003F23F01003E6
:103720000C3242E800310029F3D1ECE790F83D304B
:10373000DBB2212B01D0022070478368B3F5805F94
:1037400017D0036A5A1C02621A7803685A60C38C45
:103750009BB2013B9BB2C3844BB90268D36823F090
:103760008003D3600268D36843F04003D360002035
:1037700070470369002BE4D1036A1B880268C3F316
:1037800008035360036A02330362E0E710B504469E
:103790000268136923F44053C1680B4313618368C3
:1037A00002691A4343691A43C3691A430168CB6823
:1037B00023F4164323F00C031343CB6002685369D0
:1037C00023F4407381690B4353610368314A934288
:1037D00006D002F58062934202D0FDF73FFF01E080
:1037E000FDF74CFFE369B3F5004F29D00021031822
:1037F00049411B1841F10001C90041EA5371DB0046
:10380000181863684FEA83024FEA937341F100018D
:10381000FCF76EFD204AA2FB00314909642303FB3B
:1038200011031B013233A2FB03235B0903F0F002F7
:1038300002EB011203F00F03216813448B6010BDEB
:103840000023021843EB0301121841F10001C900E3
:1038500041EA5271D200101841F1000162689218D9
:103860005B41FCF745FD0C4AA2FB0031490964238A
:1038700003FB1103DB003233A2FB03235B095A0075
:1038800002F4F87202EB011203F0070321681344FB
:103890008B60D4E7001001401F85EB512DE9F84300
:1038A00005460F4616469946DDF820802B681C68B1
:1038B00037EA04040CBF01240024B4422DD1B8F12E
:1038C000FF3FF3D0B8F1000F05D0FEF755FBA0EB9A
:1038D00009004045EAD92A6802F10C0353E8003F89
:1038E00023F4D0730C3242E800310029F3D12A6866
:1038F00002F1140353E8003F23F00103143242E8BD
:1039000000310029F3D1202385F83D3085F83E3081
:10391000002385F83C30032000E00020BDE8F88358
:1039200058B310B5044690F83D300BB3242384F807
:103930003D302268D36823F40053D3602046FFF75C
:1039400025FF2268136923F49043136122685369A9
:1039500023F02A0353612268D36843F40053D360F1
:1039600000202064202384F83D3084F83E3010BDD0
:1039700080F83C30FDF784FAD8E7012070472DE944
:10398000F04182B01E4690F83D30DBB2202B54D17E
:1039900004460D469046002953D0002A53D090F893
:1039A0003C30012B51D0012380F83C3000230364CC
:1039B000212380F83D30FEF7DFFA0746A4F8248083
:1039C000A4F82680A368B3F5805F05D04FF0000807
:1039D000002384F83C3012E0236913B14FF0000853
:1039E000F6E7A8460025F3E738F8023B2268C3F360
:1039F00008035360E28C92B2013A92B2E284E38C03
:103A00009BB273B100963B46002280212046FFF70F
:103A100045FFE0B9002DE7D015F8012B23685A6067
:103A2000E8E700963B46002240212046FFF736FF9C
:103A300078B9202384F83D3000E0022002B0BDE8D0
:103A4000F0810120FAE70120F8E70220F6E70320E1
:103A5000F4E70320F2E7704708B50168CA6822F06E
:103A60004002CA60202280F83D20FFF7F4FF0020CA
:103A700008BD7047704708B5806B0023C385C384B9
:103A8000FFF7F8FF08BD704790F83E30DBB2222BFD
:103A900067D18368B3F5805F4DD0826AB3F5805FEC
:103AA00004D0002B54D10369002B51D103685B680B
:103AB0001370836A01338362C38D9BB2013B9BB257
:103AC000C385002B4FD100B583B00268D36823F0C3
:103AD0002003D3600268D36823F48073D360026844
:103AE000536923F001035361202380F83E30036BB8
:103AF000012B33D100230363026802F10C0353E866
:103B0000003F23F010030C3242E800310029F3D1CA
:103B100003681A6812F0100F06D0002201921A688A
:103B200001925B680193019B818DFFF7ACFF002040
:103B300003B05DF804FB0269002AAED1826A036813
:103B40005B68C3F308031380836A02338362B3E7BD
:103B500003685B6803F07F031370AAE7FFF789FF30
:103B6000E5E70220704700207047000010B582B0E2
:103B7000044602681368D068516913F00F0F09D129
:103B800013F0200F0CD010F0200F09D02046FFF7C3
:103B90007BFF16E011F0010115D110F4907F12D1D6
:103BA000216B012979D013F0800F03D010F0800F22
:103BB00040F0108113F0400F03D010F0400F40F0A0
:103BC0000D8102B010BD13F0010F06D010F4807FFC
:103BD00003D0226C42F00102226413F0040F04D0DF
:103BE00019B1226C42F00202226413F0020F04D0D9
:103BF00019B1226C42F00402226413F0080F07D0BE
:103C000010F0200F00D119B1226C42F0080222649A
:103C1000226C002AD5D013F0200F02D010F0200F14
:103C200029D123685B6903F04003226C12F0080F6E
:103C300000D163B32046FFF74BFD23685B6913F0A7
:103C4000400F20D0226802F1140353E8003F23F014
:103C50004003143242E800310029F3D1A36B73B161
:103C6000604A1A65A06BFDF7FBFF0028A9D0A06B86
:103C7000036D9847A5E72046FFF706FFD1E72046EA
:103C8000FFF7F8FE9DE72046FFF7F4FE99E7204690
:103C9000FFF7F0FE0023236493E713F0100F82D0A8
:103CA00010F0100F3FF47FAF0023019313680193CE
:103CB00053680193019B536913F0400F50D0A26BDE
:103CC00013685B689BB2002B3FF47BAFA18D9942D8
:103CD0007FF677AFE385D369B3F5807F37D022686D
:103CE00002F10C0353E8003F23F480730C3242E8E6
:103CF00000310029F3D1226802F1140353E8003F98
:103D000023F00103143242E800310029F3D1226884
:103D100002F1140353E8003F23F04003143242E859
:103D200000310029F3D1202384F83E30002323639F
:103D3000226802F10C0353E8003F23F010030C3219
:103D400042E800310029F3D1A06BFDF73FFFA18DC0
:103D5000E38D9BB2C91A89B22046FFF794FE30E783
:103D6000A18DE38D9BB2C91A89B2E38D9BB2002B62
:103D70003FF427AF00293FF424AF226802F10C037F
:103D800053E8003F23F490730C3242E800300028DF
:103D9000F3D1226802F1140353E8003F23F001033A
:103DA000143242E800300028F3D1202384F83E305A
:103DB00000232363226802F10C0353E8003F23F041
:103DC00010030C3242E800300028F3D12046FFF700
:103DD0005AFEF6E62046FFF7A9FCF2E62046FFF77A
:103DE0003BFEEEE6773A0008034AD2F8883043F407
:103DF0007003C2F88830704700ED00E050B14268AF
:103E00005AB1826862B1C3680BB1002070474FF0AD
:103E1000FF3070474FF0FF3070474FF0FF30704772
:103E20004FF0FF3070474FF0010C9C4513D210B596
:103E30004FEA4C0E0EF1FF3E10F80C4001F80E4018
:103E400012F80CE001F81CE00CF1010C5FFA8CFC9C
:103E50009C45EDD310BD704701380A4B984205D9F7
:103E6000013999420BD96FF00B0070470139054BAE
:103E7000994201D8002070476FF00A0070476FF038
:103E800009007047EEFF0F002DE9F04107460D468F
:103E900016461C461846FFF7B1FF70B985B1A378E6
:103EA0000BB947F08007D4F8048033462A463946D8
:103EB0006078C04738B9BDE8F0814FF0FF30FAE7CD
:103EC0004FF0FF30F7E76FF00300F4E710B586B06E
:103ED00004460022009201920292039204920592FB
:103EE000FFF78CFF08B106B010BD234618226946C3
:103EF0008820FFF7C9FF0028F5D19DF801209DF823
:103F0000003043EA022323829DF803209DF802300B
:103F100043EA022363829DF805209DF8043043EABA
:103F20000223A3829DF807209DF8063043EA02236E
:103F3000E3829DF809209DF8083043EA0223238399
:103F40009DF80B209DF80A3043EA022363839DF815
:103F50000D209DF80C3043EA0223A3839DF80F2027
:103F60009DF80E3043EA0223E3839DF811209DF86B
:103F7000103043EA022323849DF813209DF8123069
:103F800043EA022363849DF815209DF8143043EA28
:103F90000223A3849DF817209DF8163043EA0223DC
:103FA000E384A0E72DE9F04182B006468846154635
:103FB0001F46042A00D904253846FFF71FFF58BBC7
:103FC0006EB3B8F1000F2DD07DB398F800308DF8A6
:103FD0000030BC789CB1012D14D82B46BC686A46D1
:103FE00031787878A04718BB02B0BDE8F08116F8A8
:103FF00004C00CF07F0C06F804C00134E4B2A54202
:10400000F5D8E8E72B46424669463046FFF70BFFF6
:104010006D00013DABB2E1E74FF0FF30E4E74FF058
:10402000FF30E1E74FF0FF30DEE76FF00200DBE743
:104030006FF00300D8E730B583B00446E0238DF875
:104040000730B6238DF80630FFF7D8FE054610B1CD
:10405000284603B030BD234601220DF106010DF1C3
:104060000700FFF79FFF0546E36802209847EFE748
:1040700070B582B006460D4614460023ADF80430F4
:104080004FF2F453ADF800301046FFF7B7FE0028AA
:1040900061D1002D62D02346022201A9F420FFF74E
:1040A000F3FE034610B1184602B070BD2046FFF77C
:1040B000C2FF03460028F6D19DF804302A7803F0A9
:1040C0001F0343EA4213DBB28DF804306A78920092
:1040D00002F01C0223F01C0313438DF804309DF8FA
:1040E0000530AA7803F01F0343EA4213DBB28DF8D0
:1040F0000530EA78920002F01C0223F01C031343FF
:104100008DF805302A7923F0010302F001021343F0
:104110008DF805302346022201A96846FFF742FFC9
:1041200003460028BFD12868E0622A7984F830204D
:10413000002EB8D09DF8043023F0030306F00306E8
:1041400033438DF804302346012201A96846FFF766
:1041500029FF0346A7E74FF0FF33A4E74FF0FF33F3
:10416000A1E770B50546FFF749FE064678B330462D
:1041700070BD2846FFF7AAFE064619E0EB680A2044
:104180009847013CE4B29CB12B4601222946D0203D
:10419000FFF77AFE06460028F0D12A78563AD2B2C6
:1041A000022AEBD82846FFF746FF06460028E0D053
:1041B0007CB1002EDBD1002385F82F3085F82D301F
:1041C00085F82C3085F82E3085F83030CFE705247F
:1041D000D9E76FF00106CAE730B583B004460D4653
:1041E0000023ADF804300846FFF708FE08BB1CB3F7
:1041F0002B46022201A9F420FFF746FE0246A8B989
:104200009DF8043059092170C3F3820363709DF84F
:1042100005305909A170C3F38201E17003F0010375
:1042200023712068E862237985F83030104603B0A6
:1042300030BD4FF0FF32F9E74FF0FF32F6E708B537
:104240000A4601460020FFF713FF08BD38B50546B2
:104250000C460846FFF7D2FD00B138BD224604F1F6
:104260002C012846FFF704FFF7E730B583B004467A
:104270000D4600230093ADF804300846FFF7BEFD5D
:1042800018BB2CB32B4606226946F720FFF7FCFD2E
:1042900008BB9DF800309DF80110090141EA033187
:1042A0009DF8023041EA131161609DF803209DF8EA
:1042B00004301B0143EA02339DF8052043EA121043
:1042C0002060FFF7C9FD03B030BD4FF0FF30FAE7C3
:1042D0004FF0FF30F7E76FF00C00F4E770B50446DD
:1042E0000E4615461046FFF789FDD0BB0246304604
:1042F000002E25DB298A4B00C3EBE003B5F9120041
:1043000000FB03F3002B1DDBDB123046002E1CDB11
:10431000C1EB201101FB01F1002919DB0913B5F9EB
:10432000140000FB01F1002915DB03EBA133AB62A4
:1043300003EB8303803312D41B122360104670BD3D
:10434000F01DD7E703F2FF73DEE706F10F00DFE7AA
:1043500001F6FF71E2E701F57F513F31E5E7FF33F9
:10436000EAE7002323606FF00D02E7E770B505462A
:104370000E4614461046FFF741FD0146002873D152
:10438000A26A02EBD2725210A2F57A421346002AB8
:104390006CDB9B1003FB03F31846002B68DBC01299
:1043A000B4F920E0B4F91EC002FB0CFC4FEA4C0C3F
:1043B0000EFB00CCBCF1000F5DDBB4F91C00000467
:1043C00000EBAC00B4F91AC09E46002B56DB4FEA56
:1043D0006E3E0EFB0CFCBCF1000F54DBB4F9183040
:1043E00002FB03F303EBD3735B1013EBEC034DD42D
:1043F0009B1403F50043E28A02FB03F3002B4ADB24
:10440000DB13024600284ADB12135242921B40F68D
:10441000354000FB02F202F1434202F5A0022A609D
:10442000002B4DD0002A3DDB5200B2FBF3F22A6094
:10443000B4F926302868C20802FB02F2520B02FBD4
:1044400003F3002B33DB1B138208B4F9246006FB53
:1044500002F2002A2EDB03EB6233B4F922209B1810
:104460002CD400EB23102860084670BDD31C90E7C5
:1044700003F2FF7093E70CF1030C9EE703F5FF5E78
:104480000EF11F0EA3E70CF1070CA7E703F57F332E
:1044900003F2FF33ACE703F5FF437F33B0E700F6E9
:1044A000FF72B1E7B2FBF3F252002A60C0E703F6F5
:1044B000FF73C8E702F5FF521F32CCE70F33D0E796
:1044C00000232B606FF00E01CEE700002DE9F047CE
:1044D00005460F4614461046FFF790FC0646002896
:1044E00040F0DE80A36ADA17B3F5FA3C42F1FF32FE
:1044F0000CFB02F1ACFB0C3808EB4108B4F92000CE
:10450000C11703FB01F100FB0811A3FB009001445C
:10451000B4F91E004FEAE07A00FB02FE0CFB0AEE43
:10452000A0FB0C0AD6444FEA4E4E4EEAD03E400461
:1045300010EB090041EB0E01B4F91CE001EBCE01D8
:10454000B4F91A904FEAE97E03FB0EFE09FB08E876
:10455000A3FB0939C844C646B8F1000FC0F2A380D6
:104560001B0A43EA0E63B4F918804FEAE87908FBA6
:1045700002F20CFB0922A8FB0C8C6244120342EAF3
:1045800018524FEA083813EB080342EB2E2202F5CB
:104590000042B4F816E0A3FB0E3C0EFB02C29446A8
:1045A000002AC0F284804FEA6C024FEAEC7353EAAF
:1045B0006C0C00F09980C7F580174FEA570EFF0783
:1045C0003F1A6EEB010E17EB070C4EEB0E011CEBC6
:1045D000070C4EEB0101880140EA9C604FEA8C1801
:1045E0001CEB080C41EB0001890041EA9C714FEA89
:1045F0008C0C1CEB070C4EEB0101890041EA9C710D
:104600004FEA8C0C1CEB07004EEB0101FBF720FE80
:104610000746B4F926204FEAE278944603468E46D0
:10462000002948DB5B0B43EACE434FEA6E3E02FBB8
:104630000EF203FB0822ACFB03C8424403FB02F268
:104640000CFB0E22A3FB0C3C62449646002A39DB8D
:104650005A0E4FEA6E6C42EACE12B4F924304FEA99
:10466000E37803FB01FE08FB00E0A3FB073E704478
:10467000864600282DDBD80C40EA4E30BB184CEBA8
:10468000010C1B184CEBEE4C6246BCF1000F27DB13
:104690001B0A43EA0263B4F9222003EB02132B60E6
:1046A0003046BDE8F087FF3348F1000E58E7013B84
:1046B00042F1010C77E741F6FF7E10EB0E0341F16A
:1046C000000EAFE76FF07E4C13EB0C0342F1000ECF
:1046D000BEE7DFF820E013EB0E0340F1000ECAE75F
:1046E000FF334CF10002D3E700232B606FF00F067D
:1046F000D6E700BFFFFF070000B583B003460122E5
:1047000000920F21322000F003F803B05DF804FBA3
:1047100010B584B0094C4FF0000C84F803C04FF082
:10472000FF340294BDF818400194009313460A46E2
:1047300001460348FDF7CEFE04B010BDE0040020A2
:10474000800400200FB410B582B004AB53F8042BE2
:1047500001930A4C8021204600F0E0FF2046FBF741
:104760001FFD4FF0FF3382B221460548FFF707F9DE
:1047700002B0BDE8104004B0704700BFE404002060
:1047800044020020034B0360034B0B608023136043
:10479000704700BFE4070020E405002030B589B071
:1047A000044600230193214B1A6C42F004021A6460
:1047B0001B6C03F004030193019B02A903A8FCF7FF
:1047C0006DFF069BCBB9FCF749FF0346184AA2FBD5
:1047D00003239B0C013B1748174A026040F2E73263
:1047E000C26043600023036183608361FEF742FF80
:1047F000054630B1284609B030BDFCF72FFF430015
:10480000E4E70C48FEF7EAFD05460028F2D11E2039
:10481000FDF77EFB0F2C01D90125EBE70022214695
:104820001E20FDF765FB054B1C60E3E700380240E6
:1048300083DE1B43380800200008004004000020ED
:1048400000F1080343604FF0FF328260C3600361F0
:1048500000230360704700230361704743684B6087
:104860009A688A6051609960086103680133036047
:10487000704730B40D68B5F1FF3F11D000F1080367
:104880001C465B681A68AA42FAD963684B60996053
:104890008C606160086103680133036030BC70475D
:1048A0000469F2E70369416882688A60416851607F
:1048B0005A68824206D0002202611A68013A1A60E0
:1048C0001868704782685A60F5E70000084B1B685B
:1048D0001B6823B9074B4FF0FF321A607047044B37
:1048E0001B68DB68DB685A68024B1A60704700BFC0
:1048F000F0080020880800202DE9F0470746984678
:10490000089DDDF824900A9C266B02F18042013A52
:1049100006EB820626F00706C1B308464FF0000CEE
:10492000BCF10F0F09D810F80C2004EB0C0383F82E
:10493000342012B10CF1010CF2E7002384F843306B
:10494000062D00D90625E56265644FF0000AC4F81B
:1049500048A0201DFFF77FFF04F11800FFF77BFF41
:104960002461C5F10705A5616462C4F84CA084F810
:1049700050A042463946304600F008FD2060B9F1AB
:10498000000F01D0C9F80040BDE8F087002384F88B
:104990003430D5E738B5002407E004EB84029300F7
:1049A0000E481844FFF74CFF0134062CF5D90C4D86
:1049B0002846FFF745FF0B4C2046FFF741FF0A480A
:1049C000FFF73EFF0948FFF73BFF0948FFF738FFB5
:1049D000084B1D60084B1C6038BD00BF1C0900203F
:1049E00008090020F4080020D8080020C40800208E
:1049F000AC080020F0080020EC08002010B50446A8
:104A000000F0F0FC214A136801331360204B1B684F
:104A10005BB1204B1B686BB91D4B1B68DA6AE36AFC
:104A20009A4207D81A4B1C6004E0194B1C601368AB
:104A3000012B28D0184A136801331360E06A012360
:104A40008340164A11680B43136000EB8000211D60
:104A5000134B03EB8000FFF701FF00F0E5FC0D4B6B
:104A60001B687BB10A4B1B68DA6AE36A9A4209D277
:104A70004FF0E0234FF08052C3F8042DBFF34F8F67
:104A8000BFF36F8F10BDFFF785FFD3E7A8080020A5
:104A9000A80900209C0800208C080020A008002005
:104AA0001C09002010B5044690F8513063B1012B69
:104AB00011D0022B0ED04FF0500383F31188BFF3B7
:104AC0006F8FBFF34F8FFEE7006B00F0E3FB2046D4
:104AD00000F0E0FB10BD00F0DDFBFBE70F4B1B68B7
:104AE000D3B110B500F07EFC0D4BDB68DC68201DF7
:104AF000FFF7D8FE0B4A1368013B1360074A13689F
:104B0000013B136000F090FC2046FFF7CBFF034B06
:104B10001B68002BE6D110BD704700BFC008002005
:104B2000C4080020A808002008B5FFF7D7FF074BEE
:104B30001B68012BF9D94FF0E0234FF08052C3F8E6
:104B4000042DBFF34F8FBFF36F8FEEE71C090020DA
:104B500070B504460D461D4B1E681D4B1868043089
:104B6000FFF7A0FE48B91A4B1B68DB6A01229A4086
:104B700018490B6823EA02030B60B4F1FF3F0DD024
:104B80003444134B1B685C60A64210D9124B186862
:104B90000F4B19680431FFF76CFE70BD002DEFD08C
:104BA0000B4B196804310D48FFF758FEF5E70C4B25
:104BB0001868074B19680431FFF75BFE094B1B6847
:104BC000A342EAD9074B1C60E7E700BFA408002016
:104BD000A8090020A0080020EC080020AC08002054
:104BE000F00800208808002030B587B00B9C7CB10D
:104BF0000C9DB5B154250495049D542D1AD04FF049
:104C0000500383F31188BFF36F8FBFF34F8FFEE71D
:104C10004FF0500383F31188BFF36F8FBFF34F8FB3
:104C2000FEE74FF0500383F31188BFF36F8FBFF39C
:104C30004F8FFEE7049D0C9D2C63022485F85140A4
:104C400000240394029505AC01940A9C0094FFF79C
:104C500053FE0C98FFF7D2FE059807B030BD2DE942
:104C6000F04385B00746884614461E46900000F083
:104C70008FFA08B38146542000F08AFA0546A8B19D
:104C8000C0F83090002380F85130039302900D9BC0
:104C900001930C9B00933346224641463846FFF76A
:104CA0002BFE2846FFF7AAFE012007E0484600F049
:104CB000F1FA4FF0FF3001E04FF0FF3005B0BDE8F2
:104CC000F083000010B588B000240594069407AA6C
:104CD00006A905A8FFF756FD059B0293069B0193C5
:104CE00000942346079A0E490E48FFF77DFF0E4BAE
:104CF000186090B14FF0500383F31188BFF36F8FAA
:104D0000BFF34F8F094B4FF0FF321A60084B01225F
:104D10001A60084B1C6000F0FFFB08B010BD00BF1C
:104D200024640008294B000884080020880800201B
:104D30009C080020A4080020024A13680133136075
:104D4000704700BF80080020F8B53A4B1B68002B65
:104D500069D1394B1D6801351D60C5B9374B1B68DA
:104D60001B6843B14FF0500383F31188BFF36F8F7B
:104D7000BFF34F8FFEE7314A1168314B186810605E
:104D80001960304A136801331360FFF79FFD2E4B03
:104D90001B68AB423DD900272C4B1B68DB6A03EB39
:104DA00083039A002A4B9B58012B00D90127294BDA
:104DB0001B68002B3CD001273AE001271F4B1B68E2
:104DC0001B6843B31D4B1B68DB68DC6863689D424E
:104DD00026D3261D3046FFF765FDA36A1BB104F1FB
:104DE0001800FFF75FFDE36A01229A401A4908683C
:104DF00002430A6003EB83039A00314614481044CF
:104E0000FFF72CFDE26A114B1B68DB6A9A42D4D291
:104E1000D4E70027D2E70C4B4FF0FF321A60BBE714
:104E2000094A1360B8E70D4A13680133136000277D
:104E30003846F8BD80080020A4080020F0080020B3
:104E4000EC0800209008002088080020A809002015
:104E50001C09002094080020A008002098080020C9
:104E600038B5354B1B6843B94FF0500383F31188B5
:104E7000BFF36F8FBFF34F8FFEE700F0B3FA2E4BF7
:104E80001A68013A1A601B68002B4FD12B4B1B6824
:104E90000BB900244BE00024294B1B681BB3284BA3
:104EA000DB68DC6804F11800FFF7FCFC251D2846D0
:104EB000FFF7F8FCE06A01238340224A11680B43A4
:104EC000136000EB800029461F4B03EB8000FFF7C7
:104ED000C5FCE26A1D4B1B68DB6A9A42DCD31C4BA3
:104EE00001221A60D8E70CB1FFF7F0FC194B1C68DF
:104EF00084B9174B1C68D4B14FF0E0234FF08052B7
:104F0000C3F8042DBFF34F8FBFF36F8F01240EE062
:104F1000013C07D0FFF718FF0028F9D00C4B012205
:104F20001A60F5E70B4B00221A60E2E7002400F05C
:104F30007BFA204638BD00BF80080020A80800206A
:104F4000D8080020A00800201C090020A809002083
:104F5000940800209808002010B5A8B10446104B12
:104F60001B6843B14FF0500383F31188BFF36F8F79
:104F7000BFF34F8FFEE7FFF7DFFE00212046FFF76C
:104F8000E7FDFFF76DFF48B94FF0E0234FF0805287
:104F9000C3F8042DBFF34F8FBFF36F8F10BD00BF59
:104FA00080080020204B1B681BB1204B01221A6097
:104FB00070471E4B00221A601D4B1B68B3FA83F327
:104FC000DBB2C3F11F0303EB83018A0019498A583E
:104FD00042B94FF0500383F31188BFF36F8FBFF3D3
:104FE0004F8FFEE7134803EB83018A0002445168A8
:104FF0004968516003EB830C4FEA8C02083202448B
:10500000914209D003EB83039A000A4B13445B6877
:10501000DA68094B1A607047486862469100054A91
:105020000A445060EEE700BF80080020940800208A
:10503000A00800201C090020A8090020842801D015
:10504000033070470020704708B5FFF73BFE002093
:1050500008BD2DE9F04387B00E464469C4B18569A7
:10506000B5B14768D0F80080D0F81090B0F90800CA
:10507000FFF7E4FF02950194009033464A4641460B
:105080003846FFF7B1FD0590059807B0BDE8F083FD
:10509000446805680769B0F90800FFF7CFFF05AB62
:1050A000019300903346BAB229462046FFF7D7FD58
:1050B0000128E9D00020E8E708B500B90120FFF792
:1050C0004BFF002008BD0000124A12F0070F1ED04F
:1050D000D11D21F00701C1F5705313440A460E4853
:1050E0000260002141601344083B23F007030B4892
:1050F000036059601960991A51601360084B196078
:10510000084B1960084B4FF000421A6070474FF48B
:105110007053E4E7CC090020C4090020C009002036
:10512000B8090020BC090020AC090020164B1A4623
:105130001B688342FBD3516802EB010C844509D004
:10514000416800EB010C634509D00360904219D01F
:10515000106070474068014451601046F0E710B499
:105160000A4C2468A3420BD05B6819444160136861
:105170001B680360904200D010605DF8044B7047DC
:105180000460F7E7704700BFC4090020C009002091
:1051900038B50446FFF7D0FD384B1B68B3B1384B28
:1051A0001B681C4250D1002C50D004F1080214F0AE
:1051B000070F02D022F007020832002A55D0314BE7
:1051C0001B68934253D330490C6804E0FFF77CFF1F
:1051D000E5E721461C466368934202D22368002B10
:1051E000F7D1264B1B68A34243D00D6808352368CE
:1051F0000B6063689B1A102B10D9A01810F0070FD2
:1052000008D04FF0500383F31188BFF36F8FBFF3C3
:105210004F8FFEE743606260FFF788FF62681949BD
:105220000B689B1A0B60194909688B4201D2174918
:105230000B60134B1B681343636000232360144A05
:1052400013680133136002E0002500E00025FFF73A
:1052500007FE15F0070F0ED04FF0500383F31188AF
:10526000BFF36F8FBFF34F8FFEE70025EFE70025F9
:10527000EDE70025EBE7284638BD00BFC009002058
:10528000AC090020BC090020C4090020B809002096
:10529000B4090020002834D038B50446A0F1080530
:1052A00050F8043C174A1268134208D14FF05003DB
:1052B00083F31188BFF36F8FBFF34F8FFEE750F872
:1052C000081C41B14FF0500383F31188BFF36F8F77
:1052D000BFF34F8FFEE723EA020340F8043CFFF7D9
:1052E0002BFD54F8041C084A13680B44136028462D
:1052F000FFF71CFF054A136801331360FFF7B0FD89
:1053000038BD7047AC090020BC090020B00900205E
:1053100082B0002301930D4B1B68B3F1FF3F08D00F
:105320004FF0500383F31188BFF36F8FBFF34F8F9C
:10533000FEE74FF0500383F31188BFF36F8FBFF385
:105340004F8F019B002BFCD002B070470C00002057
:1053500008480068006880F308884FF0000080F378
:10536000148862B661B6BFF34F8FBFF36F8F00DF53
:1053700000BF000008ED00E0DFF80C00016841F418
:10538000700101607047000088ED00E04FF080730D
:1053900040F8043C21F0010140F8081C054B40F89E
:1053A0000C3C40F8202C6FF0020340F8243C4438B9
:1053B000704700BF1153000800000000000000000B
:1053C000074B19680868B0E8F04F80F30988BFF30D
:1053D0006F8F4FF0000080F311887047AFF30080AB
:1053E000A80900204FF0500383F31188BFF36F8F9B
:1053F000BFF34F8F0B4A136801331360012B00D0AA
:1054000070474FF0E023D3F8043D13F0FF0FF7D0BF
:105410004FF0500383F31188BFF36F8FBFF34F8FAB
:10542000FEE700BF0C000020094B1B6843B94FF09A
:10543000500383F31188BFF36F8FBFF34F8FFEE7E5
:10544000013B034A13600BB983F31188704700BF17
:105450000C00002000000000000000000000000020
:10546000EFF30980BFF36F8F154B1A681EF0100F12
:1054700008BF20ED108A20E9F04F10602DE90900E7
:105480004FF0500080F31188BFF34F8FBFF36F8F41
:10549000FFF788FD4FF0000080F3118809BC196800
:1054A0000868B0E8F04F1EF0100F08BFB0EC108A8B
:1054B00080F30988BFF36F8F704700BFAFF30080A0
:1054C000A809002008B54FF0500383F31188BFF3FB
:1054D0006F8FBFF34F8FFFF737FC28B14FF0E023FA
:1054E0004FF08052C3F8042D002383F3118808BDC8
:1054F0004FF0E022002313619361054B1B680549BF
:10550000A1FB03139B09013B536107231361704700
:1055100008000020D34D62104FF0E023D3F8002D97
:105520003D4B9A421CD04FF0E023D3F8002D3B4B6B
:105530009A421ED030B583B0394B1A78D2B201925C
:10554000FF221A701B78DBB28DF803309DF8033010
:1055500003F05003334A1370334B07221A601BE0E9
:105560004FF0500383F31188BFF36F8FBFF34F8F5A
:10557000FEE74FF0500383F31188BFF36F8FBFF343
:105580004F8FFEE7284A1368013B13609DF80330F4
:105590005B00DBB28DF803309DF8033013F0800F11
:1055A000F0D1214B1B68032B08D04FF0500383F33D
:1055B0001188BFF36F8FBFF34F8FFEE71B021A4AAC
:1055C000136003F4E0631360019BDBB2144A1370B1
:1055D0004FF0E024D4F8203D43F47003C4F8203D9C
:1055E000D4F8203D43F07043C4F8203DFFF780FF1E
:1055F00000250E4B1D60FFF7BFFED4F8343F43F08B
:105600004043C4F8343FFFF7A3FEFFF7CBFCFFF79E
:105610007FFE284603B030BD71C20F4170C20F41FA
:1056200000E400E0D0450020CC4500200C00002024
:10563000DFF834D00D480E490E4A002302E0D4585A
:10564000C4500433C4188C42F9D30B4A0B4C0023CA
:1056500001E013600432A242FBD3FEF7C5FB00F069
:1056600073F8FBF717FA70470000012000000020D4
:10567000600000206C6400086000002020470020CB
:10568000FEE700000EB400B59CB01DAB0290069082
:105690006FF00041094807910491094953F8042B20
:1056A00005910068019302A900F0DEF8029B002238
:1056B0001A701CB05DF804EB03B0704710000020B6
:1056C0000802FFFF30B51446002C9BB005461A4671
:1056D00005DA8B2303604FF0FF301BB030BD4FF471
:1056E0000273ADF80C3014BF04F1FF33234602936C
:1056F00005934FF6FF7300910491ADF80E306946A3
:105700001E9B00F0B1F8431CBCBF8B232B60002C08
:10571000E3D0009B00221A70DFE7000007B500937A
:1057200013460A46014603480068FFF7CBFF03B063
:105730005DF804FB1000002002440346934200D1B0
:10574000704703F8011BF9E770B50D4D0D4C641B54
:10575000A4100026A64209D10B4D0C4C00F0DEFD32
:10576000641BA4100026A64205D170BD55F8043B69
:1057700098470136EEE755F8043B98470136F2E7C3
:1057800064640008646400086464000868640008D5
:10579000704770470A44914200F1FF3300D17047CF
:1057A00010B511F8014B03F8014F9142F9D110BD2A
:1057B0002DE9F0478E681F46BE420B6882460C46B4
:1057C00090462DD8B1F90C2012F4906F26D065695F
:1057D000096905EB4505A3EB010905EBD5757B1CB4
:1057E0004B446D109D4238BF1D46530527D52946B1
:1057F00000F058F9064660B321694A46FFF7CAFF30
:10580000A38923F4906343F08003A381266165613B
:105810004E44A5EB09052660A5603E46BE4200D970
:105820003E4620683246414600F090FBA3689B1B31
:10583000A3602368334423600020BDE8F0872A4634
:1058400000F056FB06460028E0D12169504600F0E2
:10585000A7FB0C23CAF80030A38943F04003A381BF
:105860004FF0FF30E9E700002DE9F04F98468B89B3
:105870001B069DB007460D46144610D50B6973B93B
:10588000402100F00FF92860286130B90C233B60FB
:105890004FF0FF301DB0BDE8F08F40236B61002357
:1058A000099320238DF82930CDF80C803023DFF8C0
:1058B0009C818DF82A304FF0010923469A4613F84F
:1058C000012B0AB1252AF9D1BAEB040B0BD05B46A8
:1058D000224629463846FFF76BFF013000F0A780CB
:1058E000099A5A4409929AF80030002B00F09F80E0
:1058F00000234FF0FF32CDE905230AF1010A04939A
:1059000007938DF853301A935446052214F8011B5F
:105910004E48FAF74DFC049AD8B9D00644BF20236C
:105920008DF85330110744BF2B238DF853309AF86C
:1059300000302A2B15D0079A544600204FF00A0C4D
:10594000214611F8013B303B092B4BD9B0B10792EE
:1059500014E0A0EB080309FA03F313430493A246EF
:10596000D2E7039B191D1B680391002BBBBF5B4251
:1059700042F0020207930793B8BF049223782E2BBC
:105980000AD163782A2B32D1039B1A1D1B6803921C
:1059900043EAE37302340593DFF8C0A021780322C1
:1059A0005046FAF705FC38B1049BA0EB0A004022F0
:1059B000824013430134049314F8011B24488DF8EA
:1059C00028100622FAF7F4FB002836D0214B1BBB27
:1059D000039B073323F0070308330393099B3344E6
:1059E00009936AE70CFB02320C460120A8E700236A
:1059F0000134059319464FF00A0C204610F8012B8C
:105A0000303A092A03D9002BC6D00591C4E70CFB14
:105A1000012104460123F0E703AB00932A460E4B15
:105A200004A93846AFF30080421C0646D6D1AB89A4
:105A30005B063FF52DAF09982CE703AB00932A4690
:105A4000054B04A9384600F01BF9EDE7296400086E
:105A50003364000800000000B15700082F640008FC
:105A600070B50F4E0C463168054611B900F088FA42
:105A700030602146284600F083FA431C03D14FF0E2
:105A8000FF34204670BDC41C24F00304A042F8D0AB
:105A9000211A284600F074FA0130F2D1EFE700BF76
:105AA000104700202DE9F843CD1C25F003050835EB
:105AB0000C2D38BF0C25002D064601DBA94204D968
:105AC0000C2333600020BDE8F883DFF8D48000F0B9
:105AD00003FAD8F800301C4644BB29463046FFF78D
