:020000040800F2
:1000000000000120B5350008090B00080B0B0008A3
:100010000D0B00080F0B0008110B0008000000007A
:10002000000000000000000000000000130B0008AA
:10003000150B000800000000170B0008190B000842
:1000400005360008053600080536000805360008A4
:100050000536000805360008053600080536000894
:100060000536000805360008053600080536000884
:10007000210B00080536000805360008310B000882
:10008000410B0008510B0008053600080000000075
:10009000000000000000000000000000053600081D
:1000A0000536000805360008053600080536000844
:1000B0000536000805360008053600080536000834
:1000C0000536000805360008053600080536000824
:1000D00005360008610B0008053600080000000026
:1000E0000536000805360008053600080000000047
:1000F00000000000000000000000000005360008BD
:100100000000000005360008053600080536000826
:1001100000000000000000000000000000000000DF
:10012000710B00080536000805360008810B000831
:10013000053600080000000000000000000000007C
:10014000000000000000000000000000053600086C
:100150000536000805360008910B00080536000832
:100160000536000805360008000000000000000009
:10017000000000000000000000000000000000007F
:10018000000000000536000800000000000000002C
:040190000536000828
:1001A00010B5054C237833B9044B13B10448AFF3B1
:1001B00000800123237010BD7000002000000000AB
:1001C000C03F000808B5034B1BB103490348AFF318
:1001D000008008BD0000000074000020C03F00083F
:1001E00001F0FF01102A2BDB10F0070F08D010F8E8
:1001F000013B013A8B422DD010F0070F42B3F6D1EC
:10020000F0B441EA012141EA014122F007047FF004
:1002100000070023F0E80256083C85EA010586EA5B
:10022000010685FA47F5A3FA87F586FA47F6A5FA97
:1002300087F68EB9EED1F0BC01F0FF0102F00702A3
:1002400032B110F8013B013A83EA010313B1F8D14E
:100250000020704701387047002D06BF354603382F
:10026000073815F0010F07D1013015F4807F02BF68
:10027000013015F4C03F0130F0BC0138704700BFB9
:1002800053B94AB9002908BF00281CBF4FF0FF31FD
:100290004FF0FF3000F074B9ADF1080C6DE904CEF9
:1002A00000F006F8DDF804E0DDE9022304B0704751
:1002B0002DE9F047089D04468E46002B4DD18A4219
:1002C000944669D9B2FA82F252B101FA02F3C2F14C
:1002D000200120FA01F10CFA02FC41EA030E9440DD
:1002E0004FEA1C48210CBEFBF8F61FFA8CF708FBFE
:1002F00016E341EA034306FB07F199420AD91CEBD6
:10030000030306F1FF3080F01F81994240F21C8107
:10031000023E63445B1AA4B2B3FBF8F008FB10334F
:1003200044EA034400FB07F7A7420AD91CEB040484
:1003300000F1FF3380F00A81A74240F20781644454
:10034000023840EA0640E41B00261DB1D4400023D9
:10035000C5E900433146BDE8F0878B4209D9002D3D
:1003600000F0EF800026C5E9000130463146BDE8C7
:10037000F087B3FA83F6002E4AD18B4202D3824231
:1003800000F2F980841A61EB030301209E46002DE0
:10039000E0D0C5E9004EDDE702B9FFDEB2FA82F235
:1003A000002A40F09280A1EB0C014FEA1C471FFA93
:1003B0008CFE0126200CB1FBF7F307FB131140EA7A
:1003C00001410EFB03F0884208D91CEB010103F147
:1003D000FF3802D2884200F2CB804346091AA4B209
:1003E000B1FBF7F007FB101144EA01440EFB00FEDD
:1003F000A64508D91CEB040400F1FF3102D2A64542
:1004000000F2BB800846A4EB0E0440EA03409CE7E0
:10041000C6F12007B34022FA07FC4CEA030C20FA8D
:1004200007F401FA06F31C43F9404FEA1C4900FAAD
:1004300006F3B1FBF9F8200C1FFA8CFE09FB18112A
:1004400040EA014108FB0EF0884202FA06F20BD99D
:100450001CEB010108F1FF3A80F08880884240F2ED
:100460008580A8F102086144091AA4B2B1FBF9F031
:1004700009FB101144EA014100FB0EFE8E4508D92C
:100480001CEB010100F1FF346CD28E456AD90238B1
:10049000614440EA0840A0FB0294A1EB0E01A14296
:1004A000C846A64656D353D05DB1B3EB080261EB04
:1004B0000E0101FA07F722FA06F3F1401F43C5E9DE
:1004C000007100263146BDE8F087C2F12003D84014
:1004D0000CFA02FC21FA03F3914001434FEA1C4756
:1004E0001FFA8CFEB3FBF7F007FB10360B0C43EA48
:1004F000064300FB0EF69E4204FA02F408D91CEBF8
:10050000030300F1FF382FD29E422DD902386344F5
:100510009B1B89B2B3FBF7F607FB163341EA034195
:1005200006FB0EF38B4208D91CEB010106F1FF38E4
:1005300016D28B4214D9023E6144C91A46EA0046DB
:1005400038E72E46284605E70646E3E61846F8E66D
:100550004B45A9D2B9EB020864EB0C0E0138A3E7B6
:100560004646EAE7204694E74046D1E7D0467BE797
:10057000023B614432E7304609E76444023842E70F
:10058000704700BF2DE9F0438BB00024059406941A
:100590000794089409940094474B1A6B42F00402A4
:1005A0001A631A6B02F004020092009A01941A6B0B
:1005B00042F080021A631A6B02F080020192019AE3
:1005C00002941A6B42F001021A631A6B02F00102E4
:1005D0000292029A03941A6B42F002021A631A6B97
:1005E00002F002020392039A04941A6B42F008028A
:1005F0001A631B6B03F008030493049BDFF8C480A9
:1006000022464FF40051404601F0D0F92B4F2246CC
:100610006021384601F0CAF9294E224603213046AE
:1006200001F0C4F9DFF8A09001220421484601F04E
:10063000BDF94FF4005305930125069507940894DE
:1006400005A9404601F0D2F84FF480430593069483
:10065000079405A9404601F0C9F8022305930694C2
:10066000079405A9384601F0C1F860230593069563
:100670000794089405A9384601F0B8F803230593B8
:1006800006950794089405A9304601F0AFF84FF499
:10069000405305930694079405A9304601F0A6F847
:1006A0000423059306950794089405A9484601F08C
:1006B0009DF80BB0BDE8F083003802400000024016
:1006C0000004024000080240000C024010B582B055
:1006D00000240094264B1A6B42F400121A631A6B22
:1006E00002F400120092009A01941A6B42F4800204
:1006F0001A631B6B03F480030193019B224621467E
:100700000C2001F091FB0C2001F0C6FB2246214693
:100710000F2001F089FB0F2001F0BEFB224621468D
:10072000102001F081FB102001F0B6FB224621468B
:10073000112001F079FB112001F0AEFB2246214689
:10074000382001F071FB382001F0A6FB224621463B
:100750003B2001F069FB3B2001F09EFB2246214635
:10076000462001F061FB462001F096FB02B010BD6F
:100770000038024030B593B000230B930C930D93D7
:100780000E930F9310938DF844302A4B0A9303ACC9
:10079000294D0FCD0FC495E8070003C42280274AD6
:1007A0006B4607CA03C323F8022B120C1A704FF0D2
:1007B000FF331A2203A9224802F081FC012410E031
:1007C000224620490BA802F08DFF4FF0FF3319227B
:1007D0000BA91B4802F073FC14F00F0F14D0013466
:1007E000E4B214F0800F1CD10523032261001648E7
:1007F00001F0F6FC0028E3D04FF0FF3304220AA9F1
:100800000F4802F05CFCE7E7224610490BA802F013
:1008100069FF4FF0FF3319220BA9094802F04FFC82
:10082000DDE74FF0FF330B226946054802F047FC35
:1008300013B030BD202D2000E03F0008FC3F000831
:1008400000040020D83F00083403002004400008C2
:1008500000B587B00DF1170002F0A2FE002301934E
:100860000293039304939DF81730074A102101A8BF
:1008700002F004FF42F21073102201A9034802F0B3
:100880001EFC07B05DF804FB0840000800040020CF
:1008900072B6FEE708B50A480A4B03604FF4E1332D
:1008A000436000238360C36003610C224261836163
:1008B000C36102F0D5FB00B908BDFFF7E9FF00BF37
:1008C000440400200044004008B50D480D4B03606F
:1008D0004FF48273436000238360C360036143610C
:1008E0004FF4007282611822C26103624362836224
:1008F0000A23C36201F072FF00B908BDFFF7C8FF09
:10090000A80300200030014008B50A480A4B0360E4
:100910004FF4E133436000238360C36003610C2222
:1009200042618361C36102F09BFB00B908BDFFF720
:10093000AFFF00BF000400200010014008B50A48C6
:100940000A4B03600A4B436000238360C3604FF48B
:100950008042026143618361C361036201F062FB13
:1009600000B908BDFFF794FF34030020005C00408D
:10097000801A060008B50448044B036000F03AFBF7
:1009800000B908BDFFF784FF8C0000200030024052
:1009900000B587B00023019302930393049305935A
:1009A00000931A481A4A026043607F228260FF2245
:1009B000C26003614361836101F02DFD00BB002330
:1009C0008DF804308DF805308DF8063004930593CA
:1009D000012201A90D4801F070FD98B901228DF89E
:1009E00000208DF801208DF8022000238DF80330BF
:1009F0006946064801F0C0FD30B907B05DF804FB58
:100A0000FFF746FFFFF744FFFFF742FF8803002090
:100A10000028004000B595B03022002108A802F05F
:100A200025FE0023039304930593069307930193F4
:100A3000214A116C41F080511164126C02F0805215
:100A40000192019A02931D4A136823F4404343F430
:100A500000431360136803F440430293029B09238D
:100A600008934FF48033099301230D9302230E93CF
:100A70004FF480020F920822109254221192129386
:100A80000423139308A800F0C5FA80B90F23039339
:100A900002210491002305934FF48052069207939C
:100AA00003A800F017FD20B915B05DF804FBFFF7AF
:100AB000EFFEFFF7EDFE00BF00380240007000407F
:100AC00008B501F031FAFFF7A5FFFFF75BFDFFF76F
:100AD000FDFDFFF7DFFEFFF7F7FEFFF715FFFFF75E
:100AE0002DFFFFF747FFFFF753FFFFF743FEFFF729
:100AF000AFFE0121034800F05FFF4FF4FA7001F0F0
:100B00003FFAF6E700040240FEE7FEE7FEE7FEE7F5
:100B1000FEE770477047704708B501F01FFA08BD3F
:100B200008B5024801F080F808BD00BF940000201D
:100B300008B5024801F078F808BD00BFF4000020B5
:100B400008B5024801F070F808BD00BF740200202B
:100B500008B5024801F068F808BD00BFD4020020C3
:100B600008B5024802F0A2FB08BD00BF0004002047
:100B700008B5024801F058F808BD00BF5401002034
:100B800008B5024801F050F808BD00BFB4010020CC
:100B900008B5024801F048F808BD00BF1402002063
:100BA00082B0002100910B4B5A6C42F480425A648F
:100BB0005A6C02F480420092009A01911A6C42F041
:100BC00080521A641B6C03F080530193019B02B0A6
:100BD000704700BF003802400268094B9A4200D0BB
:100BE000704782B000230193064B1A6B42F4805287
:100BF0001A631B6B03F480530193019B02B070478F
:100C000000300240003802402DE9F04788B0002350
:100C10000393049305930693079302683F4B9A420C
:100C200002D008B0BDE8F0870446002500953C4E90
:100C3000336B43F004033363336B03F0040300931B
:100C4000009B0195336B43F001033363336B03F077
:100C500001030193019B4FF4007303934FF0120AB9
:100C6000CDF810A04FF00109CDF814904FF0030813
:100C7000CDF818800427079703A92A4800F0B6FD8D
:100C80004FF480730393CDF810A0CDF81490CDF8F5
:100C90001880079703A9244800F0A8FD0295336C3B
:100CA00043F400033364336C03F400030293029BA8
:100CB0001E481F4B03604FF0007343608560C560A2
:100CC0004FF48063036145618561C56105624562DA
:100CD00000F0E6FED8B9154BA3639C631548164B8C
:100CE00003604FF0C0634360402383600023C36010
:100CF0004FF48062026143618361C36103624362B6
:100D000000F0CEFE30B90B4B63639C6389E7FFF7BD
:100D1000BFFDE0E7FFF7BCFDF5E700BF005C00406A
:100D20000038024000080240000002409400002009
:100D300028600240F40000207060024000B587B0D7
:100D400000230193029303930493059302680B4BD2
:100D50009A4202D007B05DF804FB022301934FF4DE
:100D60000073049301A800F08BFC20B9044B01220E
:100D7000C3F83C2EEEE7FFF78BFDF7E700280040B5
:100D80000000474230B589B00023039304930593D4
:100D90000693079302682F4B9A4201D009B030BDE9
:100DA00004460025019503F584335A6C42F48052C1
:100DB0005A645A6C02F480520192019A02951A6B9D
:100DC00042F002021A631B6B03F002030293029BC0
:100DD00038230393022304930323069305230793E5
:100DE00003A91D4800F002FD1C481D4B03604FF095
:100DF000C06343608560C5604FF4806303614561F3
:100E00008561C5610562456200F04AFED8B9134BA1
:100E1000E3649C631348144B03604FF0C06343606A
:100E2000402383600023C3604FF48062026143610A
:100E30008361C3610362436200F032FE30B9094B43
:100E4000A3649C63AAE7FFF723FDE0E7FFF720FD1B
:100E5000F5E700BF003001400004024054010020CB
:100E600010640240B40100205864024030B58BB0D9
:100E70000446002305930693079308930993036898
:100E8000524A934204D0524A934247D00BB030BDED
:100E9000002501954F4B5A6C42F010025A645A6C6F
:100EA00002F010020192019A02951A6B42F00102BF
:100EB0001A631B6B03F001030293029B4FF4C063A0
:100EC000059302230693032308930723099305A997
:100ED000414800F08BFC4148414B03604FF00063F8
:100EE000436040238360C5604FF4806303614561C4
:100EF0008561C5610562456200F0D2FD58B9374B86
:100F000063639C6300221146252000F08DFF25209D
:100F100000F0C2FFBAE7FFF7BBFCF0E7002503953E
:100F20002C4B1A6C42F400321A641A6C02F4003230
:100F30000392039A04951A6B42F001021A631B6B29
:100F400003F001030493049B0C23059302230693EF
:100F5000032308930723099305A91F4800F046FCC3
:100F60002048214B03604FF0006343608560C560FB
:100F70004FF48063036145618561C5610562456227
:100F800000F08EFDD8B9174BA3639C631748184B2C
:100F900003604FF000634360402383600023C3601D
:100FA0004FF48062026143618361C3610362436203
:100FB00000F076FD30B90D4B63639C6366E7FFF785
:100FC00067FCE0E7FFF764FCF5E700BF00100140B5
:100FD000004400400038024000000240140200209B
:100FE000B86402407402002088600240D4020020ED
:100FF000A060024058B110B5044643791BB10123EB
:101000006371002010BD0371FFF7E6FDF7E70120D3
:1010100070470000002800F0E08170B582B00446FF
:10102000036813F0010F3BD09F4B9B6803F00C0348
:10103000042B2CD09C4B9B6803F00C03082B21D075
:101040006368B3F5803F4FD0B3F5A02F52D0964BD5
:101050001A6822F480321A601A6822F480221A6018
:101060006368002B50D000F085FF05468E4B1B684F
:1010700013F4003F14D100F07DFF401B6428F5D924
:101080000320B1E1884B5B6813F4800FD8D0864B06
:101090001B6813F4003F03D06368002B00F09F81AE
:1010A000236813F0020F54D07F4B9B6813F00C0F92
:1010B0003ED07D4B9B6803F00C03082B33D0E368D4
:1010C000002B68D0794B01221A6000F053FF0546CF
:1010D000754B1B6813F0020F54D100F04BFF401BFF
:1010E0000228F5D903207FE16F4A136843F4803367
:1010F0001360B5E76C4B1A6842F480221A601A68D4
:1011000042F480321A60ABE700F034FF0546664BCC
:101110001B6813F4003FC3D000F02CFF401B642871
:10112000F5D9032060E1604B5B6813F4800FC6D1F2
:101130005D4B1B6813F0020F03D0E368012B40F0F6
:101140005081594A136823F0F803216943EAC10327
:101150001360236813F0080F42D063696BB3534BDD
:101160000122C3F8802E00F005FF05464E4B5B6F51
:1011700013F0020F34D100F0FDFE401B0228F5D918
:10118000032031E1484A136823F0F803216943EA58
:10119000C1031360DDE7454B00221A6000F0EAFE50
:1011A0000546414B1B6813F0020FD2D000F0E2FE5F
:1011B000401B0228F5D9032016E13C4B0022C3F85E
:1011C000802E00F0D7FE0546374B5B6F13F0020F01
:1011D00006D000F0CFFE401B0228F5D9032003E122
:1011E000236813F0040F77D02F4B1B6C13F0805F34
:1011F00033D1002301932C4B1A6C42F080521A64B5
:101200001B6C03F080530193019B0125284B1B6845
:1012100013F4807F23D0A368012B34D0052B38D062
:10122000214B1A6F22F001021A671A6F22F0040292
:101230001A67A368002B3DD000F09CFE06461A4BAF
:101240001B6F13F0020F46D100F094FE801B41F299
:1012500088339842F3D90320C6E00025D6E7144A24
:10126000136843F48073136000F084FE0646104B4D
:101270001B6813F4807FCED100F07CFE801B022817
:10128000F5D90320B0E0084A136F43F00103136758
:10129000CFE7054B1A6F42F004021A671A6F42F04B
:1012A00001021A67C5E700BF00380240000047424C
:1012B0000070004000F05EFE0646524B1B6F13F0BC
:1012C000020F08D000F056FE801B41F2883398428E
:1012D000F3D9032088E0EDB9A369002B00F08380E7
:1012E000484A926802F00C02082A51D0022B17D00B
:1012F000454B00221A6600F03DFE0446414B1B6838
:1013000013F0007F42D000F035FE001B0228F5D913
:10131000032069E03B4A136C23F080531364DBE73E
:10132000394B00221A6600F025FE0546354B1B6836
:1013300013F0007F06D000F01DFE401B0228F5D9F7
:10134000032051E0E369226A1343626A43EA82138D
:10135000A26A5208013A43EA0243E26A43EA02639C
:10136000284A5360284B01221A6600F003FE044607
:10137000244B1B6813F0007F06D100F0FBFD001B1F
:101380000228F5D903202FE000202DE000202BE0DB
:10139000012B2BD01B4B5B6803F48001E269914267
:1013A00026D103F03F02216A8A4223D1616A47F6BF
:1013B000C0721A40B2EB811F1ED103F44031A26A01
:1013C0005208013AB1EB024F18D103F07063E26AA0
:1013D000B3EB026F14D1002006E00120704701201A
:1013E00002E0012000E0002002B070BD0120FBE718
:1013F0000120F9E70120F7E70120F5E70120F3E7F5
:101400000120F1E7003802400000474208B52F4BA9
:101410009B6803F00C03082B01D02D4808BD2B4B13
:101420005A6802F03F025B6813F4800F2AD0274B02
:101430005968C1F3881C4FEA4C11B1EB0C006EEBFC
:101440000E0E4FEA8E1343EA90638101091A63EB93
:101450000E03DB0043EA5173C90011EB0C0C43F19E
:101460000003990200234FEA8C2041EA9C51FEF7C9
:1014700007FF164B5B68C3F3014301335B00B0FB0E
:10148000F3F0CBE7114B5968C1F3881C4FEA4C11BC
:10149000B1EB0C006EEB0E0E4FEA8E1343EA906335
:1014A0008101091A63EB0E03DB0043EA5173C900A3
:1014B00011EB0C0C43F10003990200234FEA8C203E
:1014C00041EA9C51FEF7DCFED3E700BF0038024042
:1014D0000024F400002800F09B8070B50D460446FF
:1014E0004F4B1B6803F007038B4208D2CBB24C4A28
:1014F0001370136803F007038B4240F08B8023685E
:1015000013F0020F17D013F0040F04D0454A93686C
:1015100043F4E0539360236813F0080F04D0414A6A
:10152000936843F4604393603E4A936823F0F0036A
:10153000A1680B439360236813F0010F32D06368F6
:10154000012B21D09A1E012A25D9364A126812F0A1
:10155000020F61D033498A6822F0030213438B6083
:1015600000F008FD06462F4B9B6803F00C036268F1
:10157000B3EB820F16D000F0FDFC801B41F28833E4
:101580009842F0D9032042E0264A126812F4003F44
:10159000E0D101203BE0234A126812F0007FD9D14C
:1015A000012034E01E4B1B6803F00703AB4207D950
:1015B000EAB21B4B1A701B6803F00703AB422DD134
:1015C000236813F0040F06D0164A936823F4E053FF
:1015D000E1680B439360236813F0080F07D0114AAA
:1015E000936823F46043216943EAC1039360FFF7E2
:1015F0000DFF0C4B9B68C3F303130B4AD35CD8401D
:101600000A4B18600A4B186800F068FC002070BD97
:10161000012070470120FAE70120F8E70120F6E7F2
:10162000003C02400038024024400008080000202E
:1016300004000020014B1868704700BF080000201C
:1016400008B5FFF7F7FF044B9B68C3F38223034AF7
:10165000D35CD84008BD00BF0038024034400008C9
:1016600008B5FFF7E7FF044B9B68C3F34233034A17
:10167000D35CD84008BD00BF0038024034400008A9
:1016800030B583B00446036813F0050F0ED123680C
:1016900013F0020F36D1236813F0080F00F09B807F
:1016A000227C4E4BC3F8E021002095E04C4B0022F9
:1016B0009A6600F05FFC05464A4B1B6813F0006F0A
:1016C00006D000F057FC431B022BF5D9032083E022
:1016D0006268A3681B0743EA8213424AC2F8843057
:1016E0003F4B01229A6600F045FC05463D4B1B68C6
:1016F00013F0006FCBD100F03DFC401B0228F5D960
:10170000032069E000230193364B1A6C42F08052AB
:101710001A641B6C03F080530193019B324A1368D7
:1017200043F48073136000F025FC05462E4B1B68C4
:1017300013F4807F06D100F01DFC431B022BF5D96A
:10174000032049E0274B1B6F13F4407314D0E26869
:1017500002F440729A420FD0224B1A6F22F4407268
:101760001F490120C1F8400E0020C1F8400E1A6741
:101770001B6F13F0010F12D1E36803F44072B2F54E
:10178000407F1DD0174A936823F4F81393601549DE
:101790000B6FE268C2F30B0213430B677BE700F0A9
:1017A000E9FB05460F4B1B6F13F0020FE4D100F06D
:1017B000E1FB401B41F288339842F3D903200BE050
:1017C00008498A6822F4F81223F0704323F4407326
:1017D00013438B60DBE7002003B030BD00104742AD
:1017E00000004742003802400070004000230F2BE9
:1017F00000F2D28070B582B060E085685E0003249C
:10180000B44025EA0405CC68B4402C4384604568A4
:1018100025EA02054C68C4F300129A402A4342604C
:101820005AE0DC08083450F8246003F00702950001
:101830000F22AA4026EA020E0A69AA4042EA0E02D4
:1018400040F824205CE0042200E0002202FA0EF2BC
:101850002A430234514D45F82420514A94686FEAD6
:101860000C0224EA0C054E6816F4801F01D04CEAE5
:1018700004054B4CA560E46802EA04054E6816F4C2
:10188000001F01D04CEA0405454CE560646802EA9B
:1018900004054E6816F4003F01D04CEA0405404CA4
:1018A0006560246822404D6815F4803F01D04CEA01
:1018B00004023B4C226001330F2B6BD801229A406B
:1018C0000C6804EA020C32EA0404F4D14C6804F017
:1018D0000304013C012C90D94A6802F00302032A58
:1018E00009D0C4685D000322AA4024EA02048A6881
:1018F000AA402243C2604A6802F00302022A90D042
:1019000004684FEA430E032202FA0EF224EA0204AC
:101910004A6802F0030202FA0EF2224302604A68A9
:1019200012F4403FC7D0002201921E4A546C44F486
:1019300080445464526C02F480420192019A9C08E3
:10194000A51C164A52F8255003F003024FEA820EF6
:101950000F2202FA0EF225EA0205134A90423FF4E2
:1019600074AF02F5806290420ED002F58062904220
:101970000CD002F5806290420AD002F5806290425B
:101980003FF461AF072261E701225FE702225DE7D2
:1019900003225BE702B070BD704700BF0038014012
:1019A000003C014000380240000002400AB1816161
:1019B0007047090481617047436901EA030221EA23
:1019C000030141EA024181617047000010B40368DD
:1019D000D9B210390C4AA2FB014212090B4CA25C8D
:1019E000C2655F2909D923F47F7323F0030304330D
:1019F0008365806D5DF8044B704723F47F7323F09B
:101A000003038365F5E700BFABAAAAAA1C40000840
:101A1000836A826992B9012B0AD0022B02D00BB1E2
:101A200000207047C36A13F0807F28D100207047E0
:101A3000C36AB3F1C07F24D000207047B2F5005FC5
:101A400009D0022B25D9032B25D1C36A13F0807F3F
:101A500023D100207047032B03D8DFE803F01404E0
:101A6000140A00207047C36A13F0807F0DD1002054
:101A70007047C36AB3F1C07F09D0002070470120CE
:101A800070470120704701207047012070470120F6
:101A90007047012070470020704701207047000008
:101AA00070B5044600F066FA002C5BD005460223B0
:101AB00084F83530002384F834302268136823F02A
:101AC0000103136023681A6812F0010F0AD000F0B6
:101AD00051FA431B052BF5D920236365032084F8B5
:101AE000350070BD1A68204810406168A2680A433A
:101AF000E1680A4321690A4361690A43A1690A430B
:101B0000E1690A43216A0A430243616A04291ED03B
:101B10001A602668756925F00705636A1D43042B62
:101B200007D1A36A1D43E36A1BB12046FFF770FF8C
:101B300090B975612046FFF749FFE26D3F2393405E
:101B4000836000206065012384F83530C9E7E16ACD
:101B5000206B01430A43DBE740236365012084F8DF
:101B60003500BEE70120BCE73F8010F070B50446A9
:101B7000866D00F0FFF994F83530DBB2022B06D009
:101B800080236365002384F83430012070BD05464E
:101B90002268136823F0160313602268536923F048
:101BA00080035361236CE3B12268136823F00803B8
:101BB00013602268136823F00103136023681B6815
:101BC00013F0010F11D000F0D5F9431B052BF5D907
:101BD00020236365032084F83500002384F8343023
:101BE000D4E7A36C002BDFD1E3E7E26D3F23934002
:101BF000B360012384F83530002084F83400C5E751
:101C000090F83530DBB2022B03D0802343650120EE
:101C10007047052380F835300268136823F001030C
:101C20001360002070470000F0B583B00446002325
:101C30000193724B1D68724BA3FB0535AD0A876D8E
:101C40003E68C26D08239340334210D003681A687F
:101C500012F0040F0BD01A6822F004021A60C26D51
:101C600008239340BB60436D43F001034365E26D7D
:101C700001239340334209D02268526912F0800F49
:101C800004D0BB60636D43F002036365E26D04231F
:101C90009340334209D02268126812F0020F04D038
:101CA000BB60636D43F004036365E26D10239340F2
:101CB000334224D02268126812F0080F1FD0BB6094
:101CC00023681A6812F4802F0DD01B6813F4002FBC
:101CD00004D1236C9BB12046984710E0A36C73B1EC
:101CE000204698470BE01A6812F4807F03D11A68E7
:101CF00022F008021A60236C0BB120469847E26D6F
:101D000020239340334255D02268126812F0100FFE
:101D100050D0BB6094F83530DBB2052B0ED0236871
:101D20001A6812F4802F33D01B6813F4002F2AD1C5
:101D3000636C002B3ED0204698473BE02268136836
:101D400023F0160313602268536923F08003536164
:101D5000236CA3B12268136823F008031360E26DBB
:101D60003F239340BB60012384F83530002384F87F
:101D70003430236D002B3FD0204698473CE0A36CC5
:101D8000002BE7D1EBE7E36BA3B12046984711E0C6
:101D90001A6812F4807F09D11A6822F010021A60C2
:101DA000012384F83530002384F83430E36B0BB121
:101DB00020469847636DFBB1636D13F0010F17D098
:101DC000052384F835302268136823F0010313607B
:101DD000019B01330193AB4204D823681B6813F0C5
:101DE000010FF5D1012384F83530002384F8343015
:101DF000E36C0BB12046984703B0F0BD080000200B
:101E0000B5814E1B074AD36823F4E0631B041B0C07
:101E1000000200F4E060034343F0BF6343F4003387
:101E2000D360704700ED00E000B5194BDB68C3F3E9
:101E30000223C3F1070CBCF1040F28BF4FF0040CC0
:101E400003F1040EBEF1060F18D9033B4FF0FF3E1D
:101E50000EFA0CFC21EA0C0199400EFA03F322EA77
:101E60000303194300280BDB0901C9B200F16040EC
:101E700000F5614080F800135DF804FB0023E5E7FE
:101E800000F00F000901C9B2024B1954F4E700BF7A
:101E900000ED00E014ED00E0002807DB00F01F0279
:101EA000400901239340024A42F82030704700BFA6
:101EB00000E100E00138B0F1807F0BD24FF0E02369
:101EC0005861054AF02182F823100020986107220A
:101ED0001A6170470120704700ED00E010B504461C
:101EE0000E4B18784FF47A73B3FBF0F30C4A10687A
:101EF000B0FBF3F0FFF7DEFF68B90F2C01D901202A
:101F00000AE0002221464FF0FF30FFF78DFF054B1E
:101F10001C60002000E0012010BD00BF0000002078
:101F2000080000200400002008B50B4B1A6842F49A
:101F300000721A601A6842F480621A601A6842F4E9
:101F400080721A600320FFF75DFF0020FFF7C6FFD5
:101F5000FEF726FE002008BD003C0240034A11683F
:101F6000034B1B780B441360704700BF88040020AC
:101F700000000020014B1868704700BF8804002053
:101F800038B50446FFF7F6FF0546B4F1FF3F02D02F
:101F9000044B1B781C44FFF7EDFF401BA042FAD313
:101FA00038BD00BF000000202DE9F04107460D4676
:101FB00090461E4624E0FFF7DDFF069BC01AB042A4
:101FC00000D8EEB900233B63202287F83D2087F834
:101FD0003E303A6C42F020023A6487F83C300120EF
:101FE0001EE03B689C6925EA040C1FFA8CFCBCFAD5
:101FF0008CFC4FEA5C1CE04511D1B6F1FF3FDAD111
:10200000C5F30743012BECD13B685B6925EA030C60
:102010001FFA8CFCBCFA8CFC4FEA5C1CEBE700203E
:10202000BDE8F081002800F0CC8070B5044690F83F
:102030003D30002B77D0242384F83D30226813688C
:1020400023F0010313602268136843F40043136014
:102050002268136823F400431360FFF7F1FA626803
:102060005A4B9A4264D85A4B98428CBF00230123A2
:10207000002B40F0A8805749A1FB00318B0C25684C
:102080006A6822F03F0242EA91426A6021680A6A65
:1020900022F03F0266684D4DAE424FD801331343E4
:1020A0000B622168CA6922F44F4222F0FF0266687F
:1020B000464B9E424CD8431E7600B3FBF6F30133E9
:1020C00040F6FC70034278D0C3F30B031343CB619B
:1020D00021680B6823F0C003E269206A02431343BE
:1020E0000B6021688B6823F4034323F0FF0322690C
:1020F000E068024313438B602168CB6823F0FF0341
:102100006269A06902431343CB602268136843F0FD
:102110000103136000202064202384F83D302063F5
:1021200084F83E0070BD80F83C30FEF76DFD82E71C
:10213000294B98428CBF0023012399E74FF49675F1
:1021400005FB03F3254DA5FB03539B090133A6E7CC
:10215000A368BBB9451E06EB460CB5FBFCF5013583
:10216000C5F30B05B5FA85F56D0945BBC3B9013853
:1021700006EB4603B0FBF3F30133C3F30B0343F465
:102180000043A3E7451E06EB860C0CEB8C0CB5FB5D
:10219000FCF50135C5F30B05B5FA85F56D09E4E7E6
:1021A000013806EB860303EB8303B0FBF3F3013343
:1021B000C3F30B0343F4404388E7042386E701237A
:1021C00084E7012070470120ACE700BFA086010032
:1021D0007F841E0083DE1B43FF083D00D34D621049
:1021E0002DE9F04385B00446884691461D46FFF729
:1021F000C1FE94F83D30DBB2202B03D0022005B0A5
:10220000BDE8F08306460090192301225749204675
:10221000FFF7CAFE002840F0A08094F83C30012B64
:1022200000F09D80012384F83C3023681A6812F086
:10223000010F03D11A6842F001021A602268136884
:1022400023F400631360242384F83D3000272764BF
:10225000474BE36240E023681B6813F4807F02D0A1
:102260004FF4007323640320C9E7A02384F83D30B2
:1022700022685369C3F340035269C2F3802294F881
:102280003DC05FFA8CFCBCF1A00F09D043B93AB94C
:10229000FFF770FE801BA842E7D8002DE8D1E4E7E5
:1022A000202384F83D3023685A6912F0020F31D19F
:1022B0001A6842F400721A6023686FF480625A61EF
:1022C00000961923012229492046FFF76DFE0028B8
:1022D00049D101374F4538D22268136843F48073DF
:1022E000136000962B4600224FF001112046FFF7A5
:1022F0005BFE0028AFD1236808F0FE021A61FFF7E9
:1023000039FE064622685369C3F340035269C2F39B
:102310008022B4E71A6842F400721A600023039323
:1023200023685A6903929B690393039B00961923C0
:1023300001220E492046FFF737FE90B9202384F88A
:102340003D30002384F83C3059E7202384F83D30A9
:10235000002384F83C30012051E702204FE702209F
:102360004DE701204BE7012049E700BF02001000C4
:102370000000FFFF38B504460268D36823F0A003CD
:10238000D360FFF7F7FD05462368DB6813F0200FE5
:1023900007D1FFF7EFFD401BB0F57A7FF4D903209A
:1023A00000E0002038BD70B50368DA6812F0400F15
:1023B00002D00025284670BD0446DA6842F080024B
:1023C000DA60FFF7D7FD064600252368DB6813F0C7
:1023D000400FEFD1002DEDD1FFF7CCFD831BB3F5FE
:1023E0007A7FF2D9042363770125EEE70268D36888
:1023F00023F08003D36003689B6813F0200F01D0A3
:102400000020704710B50446FFF7B4FF10B1042355
:102410006377012010BD002841D010B50446437FEA
:10242000E3B1022363772368CA225A6223685322E6
:102430005A622046FFF7B7FFA0B158B92268136C63
:1024400023F4802313642268136CA1690B43136483
:10245000012363772368FF225A6210BD0377FEF7DA
:102460006DFCDEE72268936823F4E00323F0400369
:10247000936021688A686368206903436069034345
:1024800013438B602368E2681A6122681369A168AC
:1024900043EA014313612046FFF7A8FFCDE701207F
:1024A0007047002303E00133DBB20A38C0B20928C9
:1024B000F9D81B01DBB218437047037F012B59D0B9
:1024C00070B504460E4601230377022343774ABBC7
:1024D00003689B6813F0400F01D10023CB70307864
:1024E000FFF7DFFF05047078FFF7DBFF45EA002503
:1024F000B078FFF7D6FF0543F07845EA80552368AA
:10250000CA225A62236853225A622046FFF74BFFC1
:10251000D0B108B9012363772368FF225A620023F0
:10252000237770BD03689B6813F0400F01D100232F
:10253000CB70337875782D0245EA0345B0780543B2
:10254000F07845EA8055DAE7236805F07F3525F015
:10255000FE451D602268936823F480239360216800
:102560008B68F2683069024313438B602046FFF7A3
:102570003DFFCEE702207047037F012B48D070B5A6
:1025800004460E4601230377022343773AB94B787A
:1025900013F0100F03D003F0EF030A334B7012BB9C
:1025A000F078FFF77EFF05047078FFF77AFF45EAC1
:1025B0000025B078FFF775FF0543307845EA4035D0
:1025C0002368CA225A62236853225A622046FFF7C0
:1025D000EAFE98B108B9012363772368FF225A62A3
:1025E0000023237770BDF37875782D0245EA034503
:1025F000B0780543307845EA4035E1E7236825F0B7
:102600007F4525F0C0055D602046FFF7EFFEE1E75E
:10261000022070472DE9F04782B0054688461746EC
:102620001E46FFF7A7FC0A9B1B1A03EB0609FFF7E0
:10263000A1FC82462B4B1B68C3F3CB3309FB03F38E
:1026400001932B689C6838EA04030CBF4FF0010C1F
:102650004FF0000CBC4540D0B6F1FF3FF1D0FFF782
:1026600089FCA0EB0A0048450AD2B9F1000F07D057
:10267000019A02B14A46019B013B01939146E0E772
:102680002A68536823F0E00353606B68B3F5827FD8
:102690000BD0AB6AB3F5005F14D0012385F851303D
:1026A000002385F85030032018E0AB68B3F5004FE5
:1026B00002D0B3F5806FECD12A68136823F0400391
:1026C0001360E6E72A68136823F4005313602A684E
:1026D000136843F400531360DFE7002002B0BDE845
:1026E000F08700BF0800002010B584B00446164BE8
:1026F0001868164BA3FB0030400D4FF47A7303FBB0
:1027000000F003906368B3F5827F0BD0039BBBB1ED
:10271000039B013B039323689B6813F0800FF5D163
:1027200000200EE000920B46002280212046FFF799
:1027300071FF30B1636D43F020036365032000E057
:10274000002004B010BD00BF08000020819F5E166D
:1027500010B582B004460B464168B1F5827F14D0B3
:102760006168B1F5827F2AD1A168B1F5806F19D077
:102770000092002280212046FFF74CFF30B3636DAA
:1027800043F020036365032020E08168B1F5004F2A
:1027900002D0B1F5806FE3D12068016821F04001DB
:1027A0000160DDE70092002201212046FFF732FFA1
:1027B00060B1636D43F020036365032006E000927F
:1027C000002201212046FFF725FF08B902B010BD05
:1027D000636D43F0200363650320F7E700285AD0B8
:1027E00010B50446436A33B94368B3F5827F05D018
:1027F0000023C36102E00023036143610023A3625D
:1028000094F85130002B40D0022384F851302268D4
:10281000136823F040031360636803F48273A268B3
:1028200002F404421343E26802F400621343226993
:1028300002F002021343626902F001021343A2692B
:1028400002F400721343E26902F038021343226A71
:1028500002F080021343A26A02F40052216813437B
:102860000B60638B03F00403626A02F010022168BC
:1028700013434B602268D36923F40063D3610020C3
:102880006065012384F8513010BD84F85030204633
:10289000FEF778FAB8E7012070472DE9F04383B0DE
:1028A0001D4690F85030012B00F0D1800446884638
:1028B0009146012380F85030FFF75CFB074694F8FF
:1028C0005160F6B2012E40F0AF80B8F1000F00F079
:1028D000AC80B9F1000F00F0A880032384F85130D8
:1028E00000236365C4F83080A4F83490A4F83690CF
:1028F000A363A387E38763642364A368B3F5004FEE
:102900001ED023681A6812F0400F03D11A6842F0F3
:1029100040021A60E368B3F5006F1CD0636813B11E
:10292000B9F1010F52D1226B236812781A73236B0D
:1029300001332363E38E9BB2013B9BB2E38645E008
:102940002268136823F0400313602268136843F47D
:1029500080431360D5E7636813B1B9F1010F16D155
:10296000226B23681288DA60236B02332363E38EC1
:102970009BB2013B9BB2E38609E0FFF7FBFAC01B69
:10298000A84202D3B5F1FF3F59D1002D59D0E38EB3
:102990009BB2002B33D023689A6812F0020FECD060
:1029A000226B1288DA60236B02332363E38E9BB2BF
:1029B000013B9BB2E386EAE7FFF7DCFAC01BA842C3
:1029C00002D3B5F1FF3F3ED1002D3ED0E38E9BB246
:1029D000ABB123689A6812F0020FEDD0226B127827
:1029E0001A73236B01332363B4F836C01FFA8CFCCF
:1029F0000CF1FF3C1FFA8CFCA4F836C0E6E73A461F
:102A000029462046FFF770FE08B120236365A368BE
:102A100033B901932368DA6801929B680193019BA3
:102A2000636D13B9002600E00226012384F85130BB
:102A3000002384F85030304603B0BDE8F08303260D
:102A4000F3E70326F1E70326EFE70326EDE7022687
:102A5000F1E72DE9F04383B01F460A9D90F850300E
:102A6000012B00F01081044688469146012380F82E
:102A70005030FFF77FFA064694F85130DBB26268B7
:102A8000012B0AD0B2F5827F40F0E380A268002AD1
:102A900040F0E980042B40F0E880B8F1000F00F02E
:102AA000E680B9F1000F00F0E480002F00F0E38031
:102AB00094F85130DBB2042B02D0052384F8513056
:102AC00000236365C4F83890E787A787C4F830808F
:102AD000E786A7862364636423681A6812F0400FB0
:102AE00003D11A6842F040021A60E368B3F5006F40
:102AF00011D063680BB1012F0BD1226B23681278C0
:102B00001A73236B01332363E38E9BB2013B9BB2A9
:102B1000E38601276BE063680BB1012F0BD1226BB9
:102B200023681288DA60236B02332363E38E9BB23F
:102B3000013B9BB2E38601271CE023689A6812F0F0
:102B4000010F0ED0E28F92B25AB1DA68A36B1A80ED
:102B5000A36B0233A363E38F9BB2013B9BB2E3877A
:102B60000127FFF707FA801BA84203D3B5F1FF3F07
:102B700040F08380E38E9BB21BB9E38F9BB2002BA6
:102B800053D023689A6812F0020FD6D0E28E92B228
:102B9000002AD2D0002FD0D0226B1288DA60236BAB
:102BA00002332363E38E9BB2013B9BB2E386002793
:102BB000C3E723689A6812F0010F0ED0E28F92B239
:102BC0005AB1DA68A36B1A70A36B0133A363E38F66
:102BD0009BB2013B9BB2E3870127FFF7CBF9831B35
:102BE000AB4202D3B5F1FF3F49D1002D49D0E38E6E
:102BF0009BB213B9E38F9BB2BBB123689A6812F002
:102C0000020FD6D0E28E92B2002AD2D0002FD0D0BE
:102C1000226B12781A73236B01332363E38E9BB20A
:102C2000013B9BB2E3860027C3E732462946204694
:102C3000FFF75AFD48B9A36863B901932368DA68BE
:102C400001929B680193019B04E0202363650120AE
:102C500000E00220012384F85130002384F8503032
:102C600003B0BDE8F0830220F4E70220F2E7012080
:102C7000F0E70120EEE70120ECE70320EAE703207C
:102C8000E8E70320E6E70220EAE72DE9F04383B016
:102C90000446884691461D464068B0F5827F38D08C
:102CA00094F85030012B00F0AE80012384F85030AE
:102CB000FFF760F9074694F85160F6B2012E40F034
:102CC0008F80B8F1000F00F08C80B9F1000F00F098
:102CD0008880042384F8513000236365C4F8388069
:102CE000A4F83C90A4F83E902363A386E386236473
:102CF0006364A368B3F5004F19D023681A6812F013
:102D0000400F03D11A6842F040021A60E3681BB317
:102D100041E0A368002BC3D1042384F8513000950F
:102D200013460A462046FFF794FE06465FE02268F7
:102D3000136823F0400313602268136823F4804370
:102D40001360DAE7FFF716F9C01BA84202D3B5F10A
:102D5000FF3F50D1002D50D0E38F9BB2002B33D0DA
:102D600023689A6812F0010FECD0A26B1B7B1370E2
:102D7000A36B0133A363E38F9BB2013B9BB2E38759
:102D8000EAE7FFF7F7F8C01BA84202D3B5F1FF3F0F
:102D900035D1002D35D0E38F9BB2ABB123689A6853
:102DA00012F0010FEDD0DA68A36B1A80A36B023327
:102DB000A363B4F83EC01FFA8CFC0CF1FF3C1FFA71
:102DC0008CFCA4F83EC0E6E73A4629462046FFF7C9
:102DD000BFFC08B120236365636D13B9002600E0D2
:102DE0000226012384F85130002384F85030304605
:102DF00003B0BDE8F0830326F3E70326F1E70326DB
:102E0000EFE70326EDE70226F1E7026802F10C0383
:102E100053E8003F23F490730C3242E8003100295C
:102E2000F3D1026802F1140353E8003F23F00103D9
:102E3000143242E800310029F3D1036B012B05D095
:102E4000202380F83E30002303637047026802F1BC
:102E50000C0353E8003F23F010030C3242E800312A
:102E60000029F3D1ECE790F83D30DBB2212B01D003
:102E7000022070478368B3F5805F17D0036A5A1C3D
:102E800002621A7803685A60C38C9BB2013B9BB202
:102E9000C3844BB90268D36823F08003D36002680F
:102EA000D36843F04003D360002070470369002BD0
:102EB000E4D1036A1B880268C3F308035360036A02
:102EC00002330362E0E7000038B504460268136984
:102ED00023F44053C1680B431361836802691343B1
:102EE00042691343C2691A430168CB6823F416434D
:102EF00023F00C031343CB600268536923F440733F
:102F000081690B4353610368314A934206D002F54D
:102F10008062934202D0FEF793FB01E0FEF7A0FB34
:102F2000E369B3F5004F29D00021031849411B186C
:102F300041F10001C90041EA5371DB0018186368D0
:102F40004FEA83024FEA937341F10001FDF798F9CC
:102F5000204DA5FB00325109642303FB11031B0123
:102F60003233A5FB03235B0903F0F00202EB0112ED
:102F700003F00F03216813448B6038BD002302184F
:102F800043EB0301121841F10001C90041EA5271FB
:102F9000D200101841F10001626892185B41FDF700
:102FA0006FF90C4DA5FB00325109642303FB11039B
:102FB000DB003233A5FB03235B095A0002F4F872ED
:102FC00002EB011203F00703216813448B60D4E77E
:102FD000001001401F85EB512DE9F84305460F46CF
:102FE00016469946DDF820802C68246837EA0403E9
:102FF0000CBF4FF0010C4FF0000CB4452DD1B8F1CF
:10300000FF3FF1D0B8F1000F05D0FEF7B3FFA0EB02
:1030100009004045E8D92A6802F10C0353E8003F53
:1030200023F4D0730C3242E800310029F3D12A682E
:1030300002F1140353E8003F23F00103143242E885
:1030400000310029F3D1202385F83D3085F83E304A
:10305000002385F83C30032000E00020BDE8F88321
:1030600058B310B5044690F83D300BB3242384F8D0
:103070003D302268D36823F40053D3602046FFF725
:1030800023FF2268136923F4904313612268536974
:1030900023F02A0353612268D36843F40053D360BA
:1030A00000202064202384F83D3084F83E3010BD99
:1030B00080F83C30FDF7DAFED8E7012070472DE9B3
:1030C000F04182B01E4690F83D30DBB2202B54D147
:1030D00004460D469046002953D0002A53D090F85C
:1030E0003C30012B51D0012380F83C300023036495
:1030F000212380F83D30FEF73DFF0746A4F82480E9
:10310000A4F82680A368B3F5805F05D04FF00008CF
:10311000002384F83C3012E0236913B14FF000081B
:10312000F6E7A8460025F3E738F8023B2268C3F328
:1031300008035360E28C92B2013A92B2E284E38CCB
:103140009BB273B100963B46002280212046FFF7D8
:1031500043FFE0B9002DE7D015F8012B23685A6032
:10316000E8E700963B46002240212046FFF734FF67
:1031700078B9202384F83D3000E0022002B0BDE899
:10318000F0810120FAE70120F8E70220F6E70320AA
:10319000F4E70320F2E7704708B50168CA6822F037
:1031A0004002CA60202280F83D20FFF7F4FF002093
:1031B00008BD7047704708B5806B0023C385C38482
:1031C000FFF7F8FF08BD704790F83E30DBB2222BC6
:1031D00067D18368B3F5805F4DD0826AB3F5805FB5
:1031E00004D0002B54D10369002B51D103685B68D4
:1031F0001370836A01338362C38D9BB2013B9BB220
:10320000C385002B4FD100B583B00268D36823F08B
:103210002003D3600268D36823F48073D36002680C
:10322000536923F001035361202380F83E30036B80
:10323000012B33D100230363026802F10C0353E82E
:10324000003F23F010030C3242E800310029F3D193
:1032500003681A6812F0100F06D0002201921A6853
:1032600001925B680193019B818DFFF7ACFF002009
:1032700003B05DF804FB0269002AAED1826A0368DC
:103280005B68C3F308031380836A02338362B3E786
:1032900003685B6803F07F031370AAE7FFF789FFF9
:1032A000E5E70220704700207047000030B583B08A
:1032B000044602681368D068516913F00F0505D100
:1032C00013F0200F02D010F0200F19D12DB111F002
:1032D000010119D110F4907F16D1216B01297DD005
:1032E00013F0800F03D010F0800F40F0158113F021
:1032F000400F03D010F0400F40F0128103B030BDFA
:103300002046FFF761FFF9E713F0010F06D010F434
:10331000807F03D0226C42F00102226413F0040F7C
:1033200004D019B1226C42F00202226413F0020FA1
:1033300004D019B1226C42F00402226413F0080F89
:1033400007D010F0200F00D119B1226C42F0080212
:103350002264226C002AD1D013F0200F02D010F08A
:10336000200F29D123685B6903F04003226C12F01F
:10337000080F00D163B32046FFF747FD23685B6960
:1033800013F0400F20D0226802F1140353E8003FED
:1033900023F04003143242E800310029F3D1A36B3B
:1033A00073B1614A1A65A06BFEF72AFC0028A5D00C
:1033B000A06B036D9847A1E72046FFF705FFD1E713
:1033C0002046FFF7F7FE99E72046FFF7F3FE95E763
:1033D0002046FFF7EFFE002323648FE713F0100F62
:1033E0003FF47EAF10F0100F3FF47AAF002301934B
:1033F0001368019353680193019B536913F0400FC5
:1034000050D0A26B13685B689BB2002B3FF476AF81
:10341000A18D99427FF672AFE385D369B3F5807FC2
:1034200037D0226802F10C0353E8003F23F4807385
:103430000C3242E800310029F3D1226802F1140372
:1034400053E8003F23F00103143242E80031002921
:10345000F3D1226802F1140353E8003F23F0400344
:10346000143242E800310029F3D1202384F83E30A1
:1034700000232363226802F10C0353E8003F23F08A
:1034800010030C3242E800310029F3D1A06BFEF7A3
:103490006DFBA18DE38D9BB2C91A89B22046FFF75F
:1034A00092FE2BE7A18DE38D9BB2C91A89B2E38D01
:1034B0009BB2002B3FF422AF00293FF41FAF2268DC
:1034C00002F10C0353E8003F23F490730C3242E8FE
:1034D00000300028F3D1226802F1140353E8003FC2
:1034E00023F00103143242E800300028F3D12023F6
:1034F00084F83E3000232363226802F10C0353E872
:10350000003F23F010030C3242E800300028F3D1D2
:103510002046FFF758FEF1E62046FFF7A4FCEDE653
:103520002046FFF739FEE9E6B7310008034AD2F832
:10353000883043F47003C2F88830704700ED00E033
:103540002DE9F04182B00E4614461D468DF8070065
:10355000104F002204213846FEF728FA0E4B1C605B
:10356000DFF838802B4601220DF107014046FFF7B6
:1035700094F92B46A2B231464046FFF786FB04463B
:10358000012204213846FEF711FA204602B0BDE8B8
:10359000F08100BF000C02408C040020A803002032
:1035A00008B501464FF0FF330122D020FFF7C8FFD6
:1035B00008BD0000DFF834D00D480E490E4A002344
:1035C00002E0D458C4500433C4188C42F9D30B4AD7
:1035D0000B4C002301E013600432A242FBD3FFF73F
:1035E000A5FF00F011F8FDF76BFA7047000001200D
:1035F00000000020700000208040000870000020C3
:10360000A4040020FEE7000070B50D4D0D4C641BB6
:10361000A4100026A64209D10B4D0C4C00F0D0FCA2
:10362000641BA4100026A64205D170BD55F8043BCA
:1036300098470136EEE755F8043B98470136F2E724
:103640007840000878400008784000087C40000876
:103650000A44914200F1FF3300D1704710B511F8D0
:10366000014B03F8014F9142F9D110BD02440346CA
:10367000934200D1704703F8011BF9E70CB430B551
:10368000174B0C1E1D689DB008DA8B232B604FF082
:10369000FF301DB0BDE8304002B070474FF40273F8
:1036A000ADF8143014BF04F1FF332346049307939D
:1036B0004FF6FF7302900690ADF81630209A21ABBA
:1036C00002A92846019300F089F8431CBCBF8B2354
:1036D0002B60002CDDD0029B00221A70D9E700BFBE
:1036E0000C0000200EB400B59CB01DAB02900690FB
:1036F0006FF00041094807910491094953F8042BE0
:1037000005910068019302A900F068F8029B00226D
:103710001A701CB05DF804EB03B070470C00002079
:103720000802FFFF2DE9F0478E689E4282460C4654
:1037300090461F4638D88A8912F4906F32D0256897
:103740000969A5EB0109656905EB450505EBD5752B
:1037500001334B446D109D4238BF1D46530531D592
:10376000294600F055FB064650B90C23CAF8003034
:10377000A38943F04003A3814FF0FF30BDE8F087F9
:1037800021694A46FFF764FFA38923F4906343F05D
:103790008003A381266165614E44A5EB090526607F
:1037A000A5603E46BE4200D93E46206832464146AC
:1037B00000F0A8FAA3689B1BA3602368334423602E
:1037C0000020DBE72A4600F097FB06460028E1D1FF
:1037D0002169504600F0B0FAC7E700002DE9F04F2C
:1037E00098468B891B069DB007460D4614460ED59C
:1037F0000B6963B9402100F00BFB2860286120B9F8
:103800000C233B604FF0FF30D1E040236B6100237D
:10381000099320238DF82930CDF80C803023DFF870
:10382000A8818DF82A304FF0010923469A4613F8F3
:10383000012B0AB1252AF9D1BAEB040B0BD05B4658
:10384000224629463846FFF76DFF013000F0AA8076
:10385000099A5A4409929AF80030002B00F0A2808D
:1038600000234FF0FF32CDE905230AF1010A04934A
:1038700007938DF853301A935446052214F8011B10
:103880005148FCF7ADFC049AD8B9D00644BF2023B8
:103890008DF85330110744BF2B238DF853309AF81D
:1038A00000302A2B15D0079A544600204FF00A0CFE
:1038B000214611F8013B303B092B4ED9B0B107929C
:1038C00014E0A0EB080309FA03F313430493A246A0
:1038D000D2E7039B191D1B680391002BBBBF5B4202
:1038E00042F0020207930793B8BF049223782E2B6D
:1038F0000CD163782A2B35D1039B1A1D1B680392C8
:10390000002BB8BF4FF0FF3302340593DFF8C8A097
:10391000217803225046FCF763FC40B14023A0EB22
:103920000A0003FA00F0049B03430134049314F8E3
:10393000011B26488DF828100622FCF751FC0028B0
:1039400038D0234B1BBB039B073323F007030833FB
:103950000393099B3344099367E70CFB02320C463F
:103960000120A5E700230134059319464FF00A0C06
:10397000204610F8012B303A092A03D9002BC5D074
:103980000591C3E70CFB012104460123F0E703ABDB
:1039900000932A460F4B04A93846AFF30080421C1F
:1039A0000646D6D1AB895B063FF52CAF09981DB012
:1039B000BDE8F08F03AB00932A46064B04A93846B6
:1039C00000F07AF8EBE700BF3C40000846400008F2
:1039D0000000000025370008424000082DE9F047AC
:1039E000164699468A680B69DDF820809342B8BF75
:1039F0001346336091F8432007460C460AB1013361
:103A000033602368990642BF336802333360256808
:103A100015F0060506D104F1190AE36832689B1A0D
:103A2000AB4226DC94F84320131E226818BF012302
:103A300092062BD404F1430249463846C047013070
:103A40001ED02368E568326803F00603042B08BF24
:103A5000AD1AA36822690CBF25EAE57500259342DB
:103A6000C4BF9B1AED1800261A34B5421AD10020A3
:103A700008E00123524649463846C047013003D189
:103A80004FF0FF30BDE8F0870135C6E7E1185A1C5A
:103A9000302081F84300224494F8451082F8431006
:103AA0000233C7E70123224649463846C047013062
:103AB000E6D00136D9E700002DE9FF470F7E0C9DC7
:103AC000782F914680460C469A4601F1430207D86A
:103AD000622F0AD8002F00F0D880582F00F0A38062
:103AE00004F1420584F842703AE0A7F16303152B14
:103AF000F6D801A151F823F0513B0008653B0008BE
:103B0000E13A0008E13A0008E13A0008E13A000829
:103B1000653B0008E13A0008E13A0008E13A000894
:103B2000E13A0008713C0008953B0008533C00084E
:103B3000E13A0008E13A0008933C0008E13A000845
:103B4000953B0008E13A0008E13A00085B3C0008B8
:103B50002B681A1D1B682A6004F1420584F8423064
:103B60000123A3E020682968060601F104030AD5B1
:103B70000E682B60002E03DA2D23764284F8433042
:103B80005E480A2319E00E682B6010F0400F18BF42
:103B900036B2EFE72B682068191D2960010601D5B0
:103BA0001E6802E04606FBD51E8854486F2F0CBFE6
:103BB00008230A23002184F843106568A560002DBE
:103BC000A2BF216821F0040121600EB9002D4DD063
:103BD0001546B6FBF3F103FB1167C75D05F8017DE0
:103BE0003746BB420E46F4D9082B0BD12368DE07BB
:103BF00008D5236961689942DEBF302305F8013C8E
:103C000005F1FF35521B2261CDF800A04B4603AAF7
:103C100021464046FFF7E2FE01304CD14FF0FF3025
:103C200004B0BDE8F087354881F8457029682368FD
:103C300051F8046B29601D0614D5DF0744BF43F01B
:103C4000200323601EB9236823F020032360102380
:103C5000B0E7236843F0200323607823284884F8E2
:103C60004530E3E7590648BFB6B2E6E71546BBE77D
:103C70002B6826686169181D286035061B6801D508
:103C8000196002E07006FBD51980002323611546F8
:103C9000BAE72B681A1D2A601D6862680021284651
:103CA000FCF79EFA08B1401B606063682361002343
:103CB00084F84330A8E723692A4649464046D0475E
:103CC0000130ABD023689B0713D4E068039B984274
:103CD000B8BF1846A4E70123324649464046D047BC
:103CE00001309BD00135E36803995B1AAB42F2DCEB
:103CF000EBE7002504F11906F5E700BF4D40000889
:103D00005E400008884210B501EB020402D98442EB
:103D1000234607D8431EA14208D011F8012B03F80F
:103D2000012FF8E7024401468A4200D110BD13F882
:103D3000014D02F8014DF7E737B5002944D051F89D
:103D4000043C0190002BA1F10404B8BFE41800F07A
:103D500013F91E4A0198136833B96360146003B005
:103D6000BDE8304000F00EB9A34208D925686119BA
:103D70008B4201BF19685B6849192160EDE71A465B
:103D80005B680BB1A342FAD911685518A5420BD153
:103D9000246821445418A3421160E0D11C685B6878
:103DA000536021441160DAE702D90C230360D6E79F
:103DB000256861198B4204BF19685B68636004BFA2
:103DC000491921605460CAE703B030BD9004002057
:103DD00070B50E4E0C463168054611B900F0BCF8BE
:103DE00030602146284600F0B7F8431C0AD0C41CB6
:103DF00024F00304A04207D0211A284600F0ACF8B2
:103E0000013001D14FF0FF34204670BD94040020F2
:103E10002DE9F041CD1C25F0030508350C2D38BFE8
:103E20000C25002D074601DBA94205D90C233B6078
:103E300000263046BDE8F0812E4E00F09DF8336834
:103E40001C4634BB29463846FFF7C2FF431C0446D4
:103E50004DD134682646002E40D12368314638467D
:103E600004EB030800F078F880453AD12168033567
:103E70006D1A25F0030508350C2D38BF0C25294691
:103E80003846FFF7A5FF01302BD023682B44236071
:103E90000EE02268521B1ED40B2A16D96119A342C8
:103EA000256018BF5960636808BF316062514B607C
:103EB000384604F10B0600F065F826F00706231DCE
:103EC000F21AB6D09B1BA350B3E76268A3420CBFA3
:103ED00032605A60ECE723466468B2E7344676689D
:103EE000B9E70C233B60384600F04CF8A1E72560A9
:103EF000DEE700BF900400202DE9F0418046144623
:103F00000E4621B9BDE8F0411146FFF781BF2AB93D
:103F1000FFF712FF25462846BDE8F08100F038F88B
:103F20008442074602D8B4EB500F12D821464046CF
:103F3000FFF76EFF05460028EDD0BC422246314611
:103F400028BF3A46FFF784FB31464046FFF7F4FEB0
:103F5000E1E73546DFE7000038B5064D00230446AB
:103F600008462B6000F01EF8431C02D12B6803B1F9
:103F7000236038BD98040020014800F011B800BF4C
:103F80009C040020014800F00CB800BF9C040020F5
:103F900051F8043C181F002BBCBF0B58C0187047C9
:103FA00070477047044A05491368002B08BF0B4649
:103FB0001844106018467047A0040020A804002090
:103FC000F8B500BFF8BC08BC9E467047F8B500BF06
:083FD000F8BC08BC9E467047D6
:103FD80030782558000000005374617274696E6768
:103FE80020493243205363616E6E696E673A200D33
:103FF8000A000000446F6E6521200D0A0D0A0000BA
:10400800424D503238302049443A253032580D0A52
:104018000000000000061016000610160000000040
:104028000000000001020304060708090000000060
:1040380001020304232D302B2000686C4C006566B8
:1040480067454647003031323334353637383941E1
:1040580042434445460030313233343536373839F7
:084068006162636465660000FB
:0840700040C2FF7F01000000C7
:04407800C501000876
:04407C00A101000896
:1040800001000000100000000024F40010000020D7
:104090000000000000000000000000000000000020
:1040A0000000000000000000000000000000000010
:1040B0000000000000000000000000000000000000
:1040C00000000000000000000000000000000000F0
:1040D00000000000000000000000000000000000E0
:1040E00000000000000000000000000000000000D0
:04000005080035B505
:00000001FF
