:020000040800F2
:1000000000000120B1360008490A00084B0A000828
:100010004D0A00084F0A0008510A000800000000BD
:10002000000000000000000000000000530A00086B
:10003000550A000800000000570A0008590A000885
:1000400001370008013700080137000801370008B0
:1000500001370008013700080137000801370008A0
:100060000137000801370008013700080137000890
:10007000610A00080137000801370008710A00080A
:10008000810A0008910A00080137000800000000FA
:100090000000000000000000000000000137000820
:1000A0000137000801370008013700080137000850
:1000B0000137000801370008013700080137000840
:1000C0000137000801370008013700080137000830
:1000D00001370008A10A00080137000800000000ED
:1000E0000137000801370008013700080000000050
:1000F00000000000000000000000000001370008C0
:10010000000000000137000801370008013700082F
:1001100000000000000000000000000000000000DF
:10012000B10A00080137000801370008C10A0008B9
:10013000013700080000000000000000000000007F
:10014000000000000000000000000000013700086F
:100150000137000801370008D10A000801370008FC
:10016000013700080137000800000000000000000F
:10017000000000000000000000000000000000007F
:10018000000000000137000800000000000000002F
:04019000013700082B
:1001A00010B5054C237833B9044B13B10448AFF3B1
:1001B00000800123237010BD7000002000000000AB
:1001C0008840000808B5034B1BB103490348AFF34F
:1001D000008008BD00000000740000208840000876
:1001E000034613F8012B002AFBD1181A0138704777
:1001F00001F0FF01102A2BDB10F0070F08D010F8D8
:10020000013B013A8B422DD010F0070F42B3F6D1DB
:10021000F0B441EA012141EA014122F007047FF0F4
:1002200000070023F0E80256083C85EA010586EA4B
:10023000010685FA47F5A3FA87F586FA47F6A5FA87
:1002400087F68EB9EED1F0BC01F0FF0102F0070293
:1002500032B110F8013B013A83EA010313B1F8D13E
:100260000020704701387047002D06BF354603381F
:10027000073815F0010F07D1013015F4807F02BF58
:10028000013015F4C03F0130F0BC0138704700BFA9
:1002900053B94AB9002908BF00281CBF4FF0FF31ED
:1002A0004FF0FF3000F074B9ADF1080C6DE904CEE9
:1002B00000F006F8DDF804E0DDE9022304B0704741
:1002C0002DE9F047089D04468E46002B4DD18A4209
:1002D000944669D9B2FA82F252B101FA02F3C2F13C
:1002E000200120FA01F10CFA02FC41EA030E9440CD
:1002F0004FEA1C48210CBEFBF8F61FFA8CF708FBEE
:1003000016E341EA034306FB07F199420AD91CEBC5
:10031000030306F1FF3080F01F81994240F21C81F7
:10032000023E63445B1AA4B2B3FBF8F008FB10333F
:1003300044EA034400FB07F7A7420AD91CEB040474
:1003400000F1FF3380F00A81A74240F20781644444
:10035000023840EA0640E41B00261DB1D4400023C9
:10036000C5E900433146BDE8F0878B4209D9002D2D
:1003700000F0EF800026C5E9000130463146BDE8B7
:10038000F087B3FA83F6002E4AD18B4202D3824221
:1003900000F2F980841A61EB030301209E46002DD0
:1003A000E0D0C5E9004EDDE702B9FFDEB2FA82F225
:1003B000002A40F09280A1EB0C014FEA1C471FFA83
:1003C0008CFE0126200CB1FBF7F307FB131140EA6A
:1003D00001410EFB03F0884208D91CEB010103F137
:1003E000FF3802D2884200F2CB804346091AA4B2F9
:1003F000B1FBF7F007FB101144EA01440EFB00FECD
:10040000A64508D91CEB040400F1FF3102D2A64531
:1004100000F2BB800846A4EB0E0440EA03409CE7D0
:10042000C6F12007B34022FA07FC4CEA030C20FA7D
:1004300007F401FA06F31C43F9404FEA1C4900FA9D
:1004400006F3B1FBF9F8200C1FFA8CFE09FB18111A
:1004500040EA014108FB0EF0884202FA06F20BD98D
:100460001CEB010108F1FF3A80F08880884240F2DD
:100470008580A8F102086144091AA4B2B1FBF9F021
:1004800009FB101144EA014100FB0EFE8E4508D91C
:100490001CEB010100F1FF346CD28E456AD90238A1
:1004A000614440EA0840A0FB0294A1EB0E01A14286
:1004B000C846A64656D353D05DB1B3EB080261EBF4
:1004C0000E0101FA07F722FA06F3F1401F43C5E9CE
:1004D000007100263146BDE8F087C2F12003D84004
:1004E0000CFA02FC21FA03F3914001434FEA1C4746
:1004F0001FFA8CFEB3FBF7F007FB10360B0C43EA38
:10050000064300FB0EF69E4204FA02F408D91CEBE7
:10051000030300F1FF382FD29E422DD902386344E5
:100520009B1B89B2B3FBF7F607FB163341EA034185
:1005300006FB0EF38B4208D91CEB010106F1FF38D4
:1005400016D28B4214D9023E6144C91A46EA0046CB
:1005500038E72E46284605E70646E3E61846F8E65D
:100560004B45A9D2B9EB020864EB0C0E0138A3E7A6
:100570004646EAE7204694E74046D1E7D0467BE787
:10058000023B614432E7304609E76444023842E7FF
:10059000704700BF2DE9F0478AB000240594069407
:1005A0000794089409940094484B1A6B42F0040293
:1005B0001A631A6B02F004020092009A01941A6BFB
:1005C00042F080021A631A6B02F080020192019AD3
:1005D00002941A6B42F001021A631A6B02F00102D4
:1005E0000292029A03941A6B42F002021A631A6B87
:1005F00002F002020392039A04941A6B42F008027A
:100600001A631B6B03F008030493049BDFF8C88094
:1006100022464FF40051404601F068F92C4F224623
:100620006021384601F062F92A4E224641F2030168
:10063000304601F05BF9DFF8A4900122042148461E
:1006400001F054F94FF4005ACDF814A00125069595
:100650000794089405A9404601F068F84FF48043D8
:1006600005930694079405A9404601F05FF802231C
:1006700005930694079405A9384601F057F86023BE
:10068000059306950794089405A9384601F04EF89D
:1006900041F20303059306950794089405A9304693
:1006A00001F044F8CDF814A00694079405A930464B
:1006B00001F03CF80423059306950794089405A9D6
:1006C000484601F033F80AB0BDE8F0870038024030
:1006D000000002400004024000080240000C0240FA
:1006E00010B582B000240094264B1A6B42F400121D
:1006F0001A631A6B02F400120092009A01941A6BAA
:1007000042F480021A631B6B03F480030193019B84
:10071000224621460C2001F027FB0C2001F05CFB57
:10072000224621460F2001F01FFB0F2001F054FB51
:1007300022462146102001F017FB102001F04CFB4F
:1007400022462146112001F00FFB112001F044FB4D
:1007500022462146382001F007FB382001F03CFBFF
:10076000224621463B2001F0FFFA3B2001F034FBFA
:1007700022462146462001F0F7FA462001F02CFBE4
:1007800002B010BD0038024072B6FEE708B50A4854
:100790000A4B03604FF4E133436000238360C3607E
:1007A00003610C2242618361C36102F06FFC00B9F6
:1007B00008BDFFF7E9FF00BF4404002000440040EB
:1007C00008B50D480D4B03604FF48273436000235E
:1007D0008360C360036143614FF400728261182239
:1007E000C2610362436283620A23C36202F0C4FAF5
:1007F00000B908BDFFF7C8FFA80300200030014082
:1008000008B50A480A4B03604FF4E1334360002304
:100810008360C36003610C2242618361C36102F0A3
:1008200035FC00B908BDFFF7AFFF00BF0004002092
:100830000010014008B50A480A4B03600A4B4360A8
:1008400000238360C3604FF480420261436183618F
:10085000C361036201F068FD00B908BDFFF794FFB2
:1008600034030020005C0040801A060008B50448EC
:10087000044B036000F05EFB00B908BDFFF784FF86
:100880008C0000200030024000B587B000230193A7
:10089000029303930493059300931A481A4A026043
:1008A00043607F228260FF22C260036143618361F3
:1008B00002F063F900BB00238DF804308DF8053099
:1008C0008DF8063004930593012201A90D4802F02A
:1008D000A6F998B901228DF800208DF801208DF835
:1008E000022000238DF803306946064802F0F6F92D
:1008F00030B907B05DF804FBFFF746FFFFF744FF90
:10090000FFF742FF880300200028004000B595B0A3
:100910003022002108A802F027FF0023039304934C
:100920000593069307930193214A116C41F080517E
:100930001164126C02F080520192019A02931D4AD6
:10094000136823F4404343F400431360136803F433
:1009500040430293029B092308934FF48033099389
:1009600001230D9302230E934FF480020F9208226D
:1009700010925422119212930423139308A800F0AA
:10098000E9FA80B90F230393022104910023059310
:100990004FF480520692079303A800F03BFD20B964
:1009A00015B05DF804FBFFF7EFFEFFF7EDFE00BFAB
:1009B000003802400070004000B58BB001F054FADE
:1009C000FFF7A4FFFFF7E6FDFFF78AFEFFF7DEFE65
:1009D000FFF7F6FEFFF714FFFFF72CFFFFF746FFC8
:1009E000FFF752FF164802F043FE002305930693DB
:1009F000079308930993009301930293039304933D
:100A0000132B07D803F128026A4402F8143C01337F
:100A1000DBB2F5E714220DEB0201002002F0E6FD47
:100A200000B1FEE714226946002002F009FE012110
:100A3000044800F061FF4FF4FA7001F041FAF6E764
:100A4000A040000800040240FEE7FEE7FEE7FEE7E4
:100A5000FEE770477047704708B501F01FFA08BD00
:100A600008B5024801F080F808BD00BF94000020DE
:100A700008B5024801F078F808BD00BFF400002076
:100A800008B5024801F070F808BD00BF74020020EC
:100A900008B5024801F068F808BD00BFD402002084
:100AA00008B5024802F018FC08BD00BF0004002091
:100AB00008B5024801F058F808BD00BF54010020F5
:100AC00008B5024801F050F808BD00BFB40100208D
:100AD00008B5024801F048F808BD00BF1402002024
:100AE00082B0002100910B4B5A6C42F480425A6450
:100AF0005A6C02F480420092009A01911A6C42F002
:100B000080521A641B6C03F080530193019B02B066
:100B1000704700BF003802400268094B9A4200D07B
:100B2000704782B000230193064B1A6B42F4805247
:100B30001A631B6B03F480530193019B02B070474F
:100B400000300240003802402DE9F04788B0002311
:100B50000393049305930693079302683F4B9A42CD
:100B600002D008B0BDE8F0870446002500953C4E51
:100B7000336B43F004033363336B03F004030093DC
:100B8000009B0195336B43F001033363336B03F038
:100B900001030193019B4FF4007303934FF0120A7A
:100BA000CDF810A04FF00109CDF814904FF00308D4
:100BB000CDF818800427079703A92A4800F0B6FD4E
:100BC0004FF480730393CDF810A0CDF81490CDF8B6
:100BD0001880079703A9244800F0A8FD0295336CFC
:100BE00043F400033364336C03F400030293029B69
:100BF0001E481F4B03604FF0007343608560C56063
:100C00004FF48063036145618561C561056245629A
:100C100000F0E6FED8B9154BA3639C631548164B4C
:100C200003604FF0C0634360402383600023C360D0
:100C30004FF48062026143618361C3610362436276
:100C400000F0CEFE30B90B4B63639C6389E7FFF77E
:100C50009BFDE0E7FFF798FDF5E700BF005C004073
:100C600000380240000802400000024094000020CA
:100C700028600240F40000207060024000B587B098
:100C800000230193029303930493059302680B4B93
:100C90009A4202D007B05DF804FB022301934FF49F
:100CA0000073049301A800F08BFC20B9044B0122CF
:100CB000C3F83C2EEEE7FFF767FDF7E7002800409A
:100CC0000000474230B589B0002303930493059395
:100CD0000693079302682F4B9A4201D009B030BDAA
:100CE00004460025019503F584335A6C42F4805282
:100CF0005A645A6C02F480520192019A02951A6B5E
:100D000042F002021A631B6B03F002030293029B80
:100D100038230393022304930323069305230793A5
:100D200003A91D4800F002FD1C481D4B03604FF055
:100D3000C06343608560C5604FF4806303614561B3
:100D40008561C5610562456200F04AFED8B9134B62
:100D5000E3649C631348144B03604FF0C06343602B
:100D6000402383600023C3604FF4806202614361CB
:100D70008361C3610362436200F032FE30B9094B04
:100D8000A3649C63AAE7FFF7FFFCE0E7FFF7FCFC26
:100D9000F5E700BF0030014000040240540100208C
:100DA00010640240B40100205864024030B58BB09A
:100DB0000446002305930693079308930993036859
:100DC000524A934204D0524A934247D00BB030BDAE
:100DD000002501954F4B5A6C42F010025A645A6C30
:100DE00002F010020192019A02951A6B42F0010280
:100DF0001A631B6B03F001030293029B4FF4C06361
:100E0000059302230693032308930723099305A957
:100E1000414800F08BFC4148414B03604FF00063B8
:100E2000436040238360C5604FF480630361456184
:100E30008561C5610562456200F0D2FD58B9374B46
:100E400063639C6300221146252000F08DFF25205E
:100E500000F0C2FFBAE7FFF797FCF0E70025039523
:100E60002C4B1A6C42F400321A641A6C02F40032F1
:100E70000392039A04951A6B42F001021A631B6BEA
:100E800003F001030493049B0C23059302230693B0
:100E9000032308930723099305A91F4800F046FC84
:100EA0002048214B03604FF0006343608560C560BC
:100EB0004FF48063036145618561C56105624562E8
:100EC00000F08EFDD8B9174BA3639C631748184BED
:100ED00003604FF000634360402383600023C360DE
:100EE0004FF48062026143618361C36103624362C4
:100EF00000F076FD30B90D4B63639C6366E7FFF746
:100F000043FCE0E7FFF740FCF5E700BF00100140BD
:100F1000004400400038024000000240140200205B
:100F2000B86402407402002088600240D4020020AD
:100F3000A060024058B110B5044643791BB10123AB
:100F40006371002010BD0371FFF7E6FDF7E7012094
:100F500070470000002800F0E08170B582B00446C0
:100F6000036813F0010F3BD09F4B9B6803F00C0309
:100F7000042B2CD09C4B9B6803F00C03082B21D036
:100F80006368B3F5803F4FD0B3F5A02F52D0964B96
:100F90001A6822F480321A601A6822F480221A60D9
:100FA0006368002B50D000F085FF05468E4B1B6810
:100FB00013F4003F14D100F07DFF401B6428F5D9E5
:100FC0000320B1E1884B5B6813F4800FD8D0864BC7
:100FD0001B6813F4003F03D06368002B00F09F816F
:100FE000236813F0020F54D07F4B9B6813F00C0F53
:100FF0003ED07D4B9B6803F00C03082B33D0E36895
:10100000002B68D0794B01221A6000F053FF05468F
:10101000754B1B6813F0020F54D100F04BFF401BBF
:101020000228F5D903207FE16F4A136843F4803327
:101030001360B5E76C4B1A6842F480221A601A6894
:1010400042F480321A60ABE700F034FF0546664B8D
:101050001B6813F4003FC3D000F02CFF401B642832
:10106000F5D9032060E1604B5B6813F4800FC6D1B3
:101070005D4B1B6813F0020F03D0E368012B40F0B7
:101080005081594A136823F0F803216943EAC103E8
:101090001360236813F0080F42D063696BB3534B9E
:1010A0000122C3F8802E00F005FF05464E4B5B6F12
:1010B00013F0020F34D100F0FDFE401B0228F5D9D9
:1010C000032031E1484A136823F0F803216943EA19
:1010D000C1031360DDE7454B00221A6000F0EAFE11
:1010E0000546414B1B6813F0020FD2D000F0E2FE20
:1010F000401B0228F5D9032016E13C4B0022C3F81F
:10110000802E00F0D7FE0546374B5B6F13F0020FC1
:1011100006D000F0CFFE401B0228F5D9032003E1E2
:10112000236813F0040F77D02F4B1B6C13F0805FF4
:1011300033D1002301932C4B1A6C42F080521A6475
:101140001B6C03F080530193019B0125284B1B6806
:1011500013F4807F23D0A368012B34D0052B38D023
:10116000214B1A6F22F001021A671A6F22F0040253
:101170001A67A368002B3DD000F09CFE06461A4B70
:101180001B6F13F0020F46D100F094FE801B41F25A
:1011900088339842F3D90320C6E00025D6E7144AE5
:1011A000136843F48073136000F084FE0646104B0E
:1011B0001B6813F4807FCED100F07CFE801B0228D8
:1011C000F5D90320B0E0084A136F43F00103136719
:1011D000CFE7054B1A6F42F004021A671A6F42F00C
:1011E00001021A67C5E700BF00380240000047420D
:1011F0000070004000F05EFE0646524B1B6F13F07D
:10120000020F08D000F056FE801B41F2883398424E
:10121000F3D9032088E0EDB9A369002B00F08380A7
:10122000484A926802F00C02082A51D0022B17D0CB
:10123000454B00221A6600F03DFE0446414B1B68F8
:1012400013F0007F42D000F035FE001B0228F5D9D4
:10125000032069E03B4A136C23F080531364DBE7FF
:10126000394B00221A6600F025FE0546354B1B68F7
:1012700013F0007F06D000F01DFE401B0228F5D9B8
:10128000032051E0E369226A1343626A43EA82134E
:10129000A26A5208013A43EA0243E26A43EA02635D
:1012A000284A5360284B01221A6600F003FE0446C8
:1012B000244B1B6813F0007F06D100F0FBFD001BE0
:1012C0000228F5D903202FE000202DE000202BE09C
:1012D000012B2BD01B4B5B6803F48001E269914228
:1012E00026D103F03F02216A8A4223D1616A47F680
:1012F000C0721A40B2EB811F1ED103F44031A26AC2
:101300005208013AB1EB024F18D103F07063E26A60
:10131000B3EB026F14D1002006E0012070470120DA
:1013200002E0012000E0002002B070BD0120FBE7D8
:101330000120F9E70120F7E70120F5E70120F3E7B5
:101340000120F1E7003802400000474208B52F4B6A
:101350009B6803F00C03082B01D02D4808BD2B4BD4
:101360005A6802F03F025B6813F4800F2AD0274BC3
:101370005968C1F3881C4FEA4C11B1EB0C006EEBBD
:101380000E0E4FEA8E1343EA90638101091A63EB54
:101390000E03DB0043EA5173C90011EB0C0C43F15F
:1013A0000003990200234FEA8C2041EA9C51FEF78A
:1013B0006FFF164B5B68C3F3014301335B00B0FB67
:1013C000F3F0CBE7114B5968C1F3881C4FEA4C117D
:1013D000B1EB0C006EEB0E0E4FEA8E1343EA9063F6
:1013E0008101091A63EB0E03DB0043EA5173C90064
:1013F00011EB0C0C43F10003990200234FEA8C20FF
:1014000041EA9C51FEF744FFD3E700BF0038024099
:101410000024F400002800F09B8070B50D460446BF
:101420004F4B1B6803F007038B4208D2CBB24C4AE8
:101430001370136803F007038B4240F08B8023681E
:1014400013F0020F17D013F0040F04D0454A93682D
:1014500043F4E0539360236813F0080F04D0414A2B
:10146000936843F4604393603E4A936823F0F0032B
:10147000A1680B439360236813F0010F32D06368B7
:10148000012B21D09A1E012A25D9364A126812F062
:10149000020F61D033498A6822F0030213438B6044
:1014A00000F008FD06462F4B9B6803F00C036268B2
:1014B000B3EB820F16D000F0FDFC801B41F28833A5
:1014C0009842F0D9032042E0264A126812F4003F05
:1014D000E0D101203BE0234A126812F0007FD9D10D
:1014E000012034E01E4B1B6803F00703AB4207D911
:1014F000EAB21B4B1A701B6803F00703AB422DD1F5
:10150000236813F0040F06D0164A936823F4E053BF
:10151000E1680B439360236813F0080F07D0114A6A
:10152000936823F46043216943EAC1039360FFF7A2
:101530000DFF0C4B9B68C3F303130B4AD35CD840DD
:101540000A4B18600A4B186800F068FC002070BD58
:10155000012070470120FAE70120F8E70120F6E7B3
:10156000003C024000380240B4400008080000205F
:1015700004000020014B1868704700BF08000020DD
:1015800008B5FFF7F7FF044B9B68C3F38223034AB8
:10159000D35CD84008BD00BF00380240C4400008FA
:1015A00008B5FFF7E7FF044B9B68C3F34233034AD8
:1015B000D35CD84008BD00BF00380240C4400008DA
:1015C00030B583B00446036813F0050F0ED12368CD
:1015D00013F0020F36D1236813F0080F00F09B8040
:1015E000227C4E4BC3F8E021002095E04C4B0022BA
:1015F0009A6600F05FFC05464A4B1B6813F0006FCB
:1016000006D000F057FC431B022BF5D9032083E0E2
:101610006268A3681B0743EA8213424AC2F8843017
:101620003F4B01229A6600F045FC05463D4B1B6886
:1016300013F0006FCBD100F03DFC401B0228F5D920
:10164000032069E000230193364B1A6C42F080526C
:101650001A641B6C03F080530193019B324A136898
:1016600043F48073136000F025FC05462E4B1B6885
:1016700013F4807F06D100F01DFC431B022BF5D92B
:10168000032049E0274B1B6F13F4407314D0E2682A
:1016900002F440729A420FD0224B1A6F22F4407229
:1016A0001F490120C1F8400E0020C1F8400E1A6702
:1016B0001B6F13F0010F12D1E36803F44072B2F50F
:1016C000407F1DD0174A936823F4F813936015499F
:1016D0000B6FE268C2F30B0213430B677BE700F06A
:1016E000E9FB05460F4B1B6F13F0020FE4D100F02E
:1016F000E1FB401B41F288339842F3D903200BE011
:1017000008498A6822F4F81223F0704323F44073E6
:1017100013438B60DBE7002003B030BD001047426D
:1017200000004742003802400070004000230F2BA9
:1017300000F2D28070B582B060E085685E0003245C
:10174000B44025EA0405CC68B4402C438460456865
:1017500025EA02054C68C4F300129A402A4342600D
:101760005AE0DC08083450F8246003F007029500C2
:101770000F22AA4026EA020E0A69AA4042EA0E0295
:1017800040F824205CE0042200E0002202FA0EF27D
:101790002A430234514D45F82420514A94686FEA97
:1017A0000C0224EA0C054E6816F4801F01D04CEAA6
:1017B00004054B4CA560E46802EA04054E6816F483
:1017C000001F01D04CEA0405454CE560646802EA5C
:1017D00004054E6816F4003F01D04CEA0405404C65
:1017E0006560246822404D6815F4803F01D04CEAC2
:1017F00004023B4C226001330F2B6BD801229A402C
:101800000C6804EA020C32EA0404F4D14C6804F0D7
:101810000304013C012C90D94A6802F00302032A18
:1018200009D0C4685D000322AA4024EA02048A6841
:10183000AA402243C2604A6802F00302022A90D002
:1018400004684FEA430E032202FA0EF224EA02046D
:101850004A6802F0030202FA0EF2224302604A686A
:1018600012F4403FC7D0002201921E4A546C44F447
:1018700080445464526C02F480420192019A9C08A4
:10188000A51C164A52F8255003F003024FEA820EB7
:101890000F2202FA0EF225EA0205134A90423FF4A3
:1018A00074AF02F5806290420ED002F580629042E1
:1018B0000CD002F5806290420AD002F5806290421C
:1018C0003FF461AF072261E701225FE702225DE793
:1018D00003225BE702B070BD704700BF00380140D3
:1018E000003C014000380240000002400AB1816122
:1018F0007047090481617047436901EA030221EAE4
:10190000030141EA024181617047000010B403689D
:10191000D9B210390C4AA2FB014212090B4CA25C4D
:10192000C2655F2909D923F47F7323F003030433CD
:101930008365806D5DF8044B704723F47F7323F05B
:1019400003038365F5E700BFABAAAAAAAC40000871
:10195000836A826992B9012B0AD0022B02D00BB1A3
:1019600000207047C36A13F0807F28D100207047A1
:10197000C36AB3F1C07F24D000207047B2F5005F86
:1019800009D0022B25D9032B25D1C36A13F0807F00
:1019900023D100207047032B03D8DFE803F01404A1
:1019A000140A00207047C36A13F0807F0DD1002015
:1019B0007047C36AB3F1C07F09D00020704701208F
:1019C00070470120704701207047012070470120B7
:1019D00070470120704700207047012070470000C9
:1019E00070B5044600F066FA002C5BD00546022371
:1019F00084F83530002384F834302268136823F0EB
:101A00000103136023681A6812F0010F0AD000F076
:101A100051FA431B052BF5D920236365032084F875
:101A2000350070BD1A68204810406168A2680A43FA
:101A3000E1680A4321690A4361690A43A1690A43CB
:101A4000E1690A43216A0A430243616A04291ED0FC
:101A50001A602668756925F00705636A1D43042B23
:101A600007D1A36A1D43E36A1BB12046FFF770FF4D
:101A700090B975612046FFF749FFE26D3F2393401F
:101A8000836000206065012384F83530C9E7E16A8E
:101A9000206B01430A43DBE740236365012084F8A0
:101AA0003500BEE70120BCE73F8010F070B504466A
:101AB000866D00F0FFF994F83530DBB2022B06D0CA
:101AC00080236365002384F83430012070BD05460F
:101AD0002268136823F0160313602268536923F009
:101AE00080035361236CE3B12268136823F0080379
:101AF00013602268136823F00103136023681B68D6
:101B000013F0010F11D000F0D5F9431B052BF5D9C7
:101B100020236365032084F83500002384F83430E3
:101B2000D4E7A36C002BDFD1E3E7E26D3F239340C2
:101B3000B360012384F83530002084F83400C5E711
:101B400090F83530DBB2022B03D0802343650120AF
:101B50007047052380F835300268136823F00103CD
:101B60001360002070470000F0B583B004460023E6
:101B70000193724B1D68724BA3FB0535AD0A876D4F
:101B80003E68C26D08239340334210D003681A6840
:101B900012F0040F0BD01A6822F004021A60C26D12
:101BA00008239340BB60436D43F001034365E26D3E
:101BB00001239340334209D02268526912F0800F0A
:101BC00004D0BB60636D43F002036365E26D0423E0
:101BD0009340334209D02268126812F0020F04D0F9
:101BE000BB60636D43F004036365E26D10239340B3
:101BF000334224D02268126812F0080F1FD0BB6055
:101C000023681A6812F4802F0DD01B6813F4002F7C
:101C100004D1236C9BB12046984710E0A36C73B1AC
:101C2000204698470BE01A6812F4807F03D11A68A7
:101C300022F008021A60236C0BB120469847E26D2F
:101C400020239340334255D02268126812F0100FBF
:101C500050D0BB6094F83530DBB2052B0ED0236832
:101C60001A6812F4802F33D01B6813F4002F2AD186
:101C7000636C002B3ED0204698473BE022681368F7
:101C800023F0160313602268536923F08003536125
:101C9000236CA3B12268136823F008031360E26D7C
:101CA0003F239340BB60012384F83530002384F840
:101CB0003430236D002B3FD0204698473CE0A36C86
:101CC000002BE7D1EBE7E36BA3B12046984711E087
:101CD0001A6812F4807F09D11A6822F010021A6083
:101CE000012384F83530002384F83430E36B0BB1E2
:101CF00020469847636DFBB1636D13F0010F17D059
:101D0000052384F835302268136823F0010313603B
:101D1000019B01330193AB4204D823681B6813F085
:101D2000010FF5D1012384F83530002384F83430D5
:101D3000E36C0BB12046984703B0F0BD08000020CB
:101D4000B5814E1B074AD36823F4E0631B041B0CC8
:101D5000000200F4E060034343F0BF6343F4003348
:101D6000D360704700ED00E000B5194BDB68C3F3AA
:101D70000223C3F1070CBCF1040F28BF4FF0040C81
:101D800003F1040EBEF1060F18D9033B4FF0FF3EDE
:101D90000EFA0CFC21EA0C0199400EFA03F322EA38
:101DA0000303194300280BDB0901C9B200F16040AD
:101DB00000F5614080F800135DF804FB0023E5E7BF
:101DC00000F00F000901C9B2024B1954F4E700BF3B
:101DD00000ED00E014ED00E0002807DB00F01F023A
:101DE000400901239340024A42F82030704700BF67
:101DF00000E100E00138B0F1807F0BD24FF0E0232A
:101E00005861054AF02182F82310002098610722CA
:101E10001A6170470120704700ED00E010B50446DC
:101E20000E4B18784FF47A73B3FBF0F30C4A10683A
:101E3000B0FBF3F0FFF7DEFF68B90F2C01D90120EA
:101E40000AE0002221464FF0FF30FFF78DFF054BDF
:101E50001C60002000E0012010BD00BF0000002039
:101E6000080000200400002008B50B4B1A6842F45B
:101E700000721A601A6842F480621A601A6842F4AA
:101E800080721A600320FFF75DFF0020FFF7C6FF96
:101E9000FEF726FE002008BD003C0240034A116800
:101EA000034B1B780B441360704700BF880400206D
:101EB00000000020014B1868704700BF8804002014
:101EC00038B50446FFF7F6FF0546B4F1FF3F02D0F0
:101ED000044B1B781C44FFF7EDFF401BA042FAD3D4
:101EE00038BD00BF0000002003685A6912F4806FFB
:101EF00001D1002070476FF480625A6100230363B0
:101F0000202280F83D2080F83E30026C42F004022E
:101F1000026480F83C30012070472DE9F04107460B
:101F20000D4690461E4624E0FFF7C4FF069BC01AEC
:101F3000B04200D8EEB900233B63202287F83D2051
:101F400087F83E303A6C42F020023A6487F83C3021
:101F500001201EE03B689C6925EA040C1FFA8CFCFA
:101F6000BCFA8CFC4FEA5C1CE04511D1B6F1FF3F96
:101F7000DAD1C5F30743012BECD13B685B6925EA55
:101F8000030C1FFA8CFCBCFA8CFC4FEA5C1CEBE7E0
:101F90000020BDE8F0812DE9F04105460E461746C8
:101FA00098463DE01A6842F400721A602B686FF49C
:101FB00080625A6100232B63202285F83D2085F83A
:101FC0003E302A6C42F004022A6485F83C3001203D
:101FD00034E0FFF76FFFA0EB0800B84200D8FFB96C
:101FE00000232B63202285F83D2085F83E302A6CA3
:101FF00042F020022A6485F83C3001201EE02B6864
:102000009C6926EA0404A4B2003C18BF0124A4B1D0
:102010002B685A6912F4806FC4D1B7F1FF3FD8D151
:10202000C6F30743012BEAD12B685C6926EA040456
:10203000A4B2003C18BF0124E9E70020BDE8F0810C
:10204000F0B583B004460D4616461F46C36A082BFA
:102050000DD0012B0BD013F5803F08D0036B122B52
:102060000AD10268136843F48073136004E02268A5
:10207000136843F4807313600097334600224FF0D7
:1020800001112046FFF749FF80B92369B3F5804F5E
:1020900016D1236805F0FE051D613B463246134903
:1020A0002046FFF778FFF8B903B0F0BD23681B683E
:1020B00013F4807F02D04FF4007323640320F3E70E
:1020C000EB11226803F0060343F0F00313613B4673
:1020D000324607492046FFF75EFF18B92368EDB284
:1020E0001D61DAE70120DFE70120DDE702000100E2
:1020F000080001002DE9F04184B004460D46164663
:102100001F46C26A01680B6843F480630B60082AAB
:102110000DD0012A0BD012F5803F08D0036B112B94
:102120000AD10268136843F48073136004E02268E4
:10213000136843F4807313600097334600224FF016
:1021400001112046FFF7E9FE98B92369B3F5804FE6
:1021500019D1236845F00105EDB21D613B463246B9
:102160002A492046FFF717FF00284CD104B0BDE8EC
:10217000F08123681B6813F4807F02D04FF4007352
:1021800023640320F2E74FEAE51808F00608236805
:1021900048F0F0021A613B4632461D492046FFF7DF
:1021A000FAFE08B10120E1E72368EDB21D613B466C
:1021B000324616492046FFF7EEFE08B10120D5E76A
:1021C0000022039223685969039199690391039945
:1021D000196841F480711960009733464FF001117E
:1021E0002046FFF79AFE20B9226848F0F1031361F8
:1021F000B4E723681B6813F4807F02D04FF40073A8
:1022000023640320B2E70120B0E700BF0200010011
:102210000800010070B504460D46164623685B6948
:1022200013F0800F1CD12046FFF75EFED0B9B5F148
:10223000FF3FF3D0FFF73EFE801BA84201D8002DE0
:10224000ECD100232363202284F83D2084F83E3023
:10225000226C42F02002226484F83C30012000E02D
:10226000002070BD0120FCE770B504460D461646FF
:1022700023685B6913F0040F1CD12046FFF734FE7E
:10228000D0B9B5F1FF3FF3D0FFF714FE801BA84291
:1022900001D8002DECD100232363202284F83D20B7
:1022A00084F83E30226C42F02002226484F83C30F4
:1022B000012000E0002070BD0120FCE770B505465C
:1022C0000C4616462B68596911F0400F29D15969FF
:1022D00011F0100F15D1FFF7EDFD801BA04201D8C2
:1022E000002CEFD100232B63202285F83D2085F8B8
:1022F0003E302A6C42F020022A6485F83C300120EE
:1023000070BD6FF010025A6100232B63202285F804
:102310003D2085F83E302A6C2A6485F83C30012047
:10232000EEE70020ECE70000002800F0CC8070B55C
:10233000044690F83D30002B77D0242384F83D30BC
:102340002268136823F0010313602268136843F4C2
:10235000004313602268136823F400431360FFF7FF
:102360000FF962685A4B9A4264D85A4B98428CBF14
:1023700000230123002B40F0A8805749A1FB003126
:102380008B0C25686A6822F03F0242EA91426A603B
:1023900021680A6A22F03F0266684D4DAE424FD86E
:1023A000013313430B622168CA6922F44F4222F0C1
:1023B000FF026668464B9E424CD8431E7600B3FB34
:1023C000F6F3013340F6FC70034278D0C3F30B03FD
:1023D0001343CB6121680B6823F0C003E269206AD4
:1023E000024313430B6021688B6823F4034323F0FB
:1023F000FF032269E068024313438B602168CB68C6
:1024000023F0FF036269A06902431343CB60226893
:10241000136843F00103136000202064202384F834
:102420003D30206384F83E0070BD80F83C30FEF7FC
:102430008BFB82E7294B98428CBF0023012399E74D
:102440004FF4967505FB03F3254DA5FB03539B093C
:102450000133A6E7A368BBB9451E06EB460CB5FBE6
:10246000FCF50135C5F30B05B5FA85F56D0945BBDE
:10247000C3B9013806EB4603B0FBF3F30133C3F3F2
:102480000B0343F40043A3E7451E06EB860C0CEB5D
:102490008C0CB5FBFCF50135C5F30B05B5FA85F5DC
:1024A0006D09E4E7013806EB860303EB8303B0FB19
:1024B000F3F30133C3F30B0343F4404388E70423EE
:1024C00086E7012384E7012070470120ACE700BFC5
:1024D000A08601007F841E0083DE1B43FF083D00B1
:1024E000D34D62102DE9F04385B004460F46914666
:1024F00098460C9EFFF7DEFC054694F83D00C0B2FE
:10250000202804D00227384605B0BDE8F0830095A6
:10251000192301224F492046FFF7FFFC002840F015
:10252000928094F83C30012B00F08F80012384F8D6
:102530003C3023681A6812F0010F03D11A6842F088
:1025400001021A602268136823F4006313602123D8
:1025500084F83D30102384F83E3000232364C4F80F
:102560002490A4F82A80638D23853B4BE3622B469D
:10257000324639462046FFF763FD0746002866D1FC
:102580000023039323685A6903929B690393039B77
:1025900011E0236C042B01D00127B4E722681368F3
:1025A00043F400731360F7E72A4631462046FFF7ED
:1025B0005BFE00282ED1238D002B36D02A463146D3
:1025C0002046FFF727FE0028E3D1626A23681278CD
:1025D0001A61606A431C6362618D89B2013989B2F4
:1025E0006185238D013B9BB223852268516911F0DF
:1025F000040FD9D0002BD7D043781361636A01331D
:102600006362638D9BB2013B9BB26385238D013B6B
:102610002385C9E7236C042B01D0012773E72268C7
:10262000136843F400731360F7E72268136843F4F8
:1026300000731360202384F83D30002384F83E307B
:1026400084F83C305FE702275DE702275BE701275C
:1026500059E700BF020010000000FFFF2DE9F04322
:1026600087B004460F46914698460E9EFFF722FC1F
:10267000054694F83D00C0B2202804D00227384611
:1026800007B0BDE8F083009519230122894920464F
:10269000FFF743FC002840F0458194F83C30012BC3
:1026A00000F04281012384F83C3023681A6812F05C
:1026B000010F03D11A6842F001021A602268136800
:1026C00023F400631360222384F83D30102384F840
:1026D0003E3000232364C4F82490A4F82A80638D3C
:1026E0002385754BE3622B46324639462046FFF779
:1026F00001FD0746002840F01981238D5BB9029344
:1027000023685A6902929A690292029A1A6842F4FC
:1027100000721A607AE0012B0FD0022B1FD02268C2
:10272000136843F4806313600023059323685A6998
:1027300005929B690593059B68E02268136823F462
:10274000806313600023039323685A6903929A6994
:102750000392039A1A6842F400721A6056E02268E3
:10276000136823F4806313602268136843F40063E2
:1027700013600023049323685A6904929B690493AD
:10278000049B43E02A4631462046FFF797FD002888
:1027900040F0CE8023681A69636A1A70636A013355
:1027A0006362238D013B2385638D9BB2013B9BB20A
:1027B00063852BE000953346002240492046FFF711
:1027C000ACFB002840F0B6802268136843F4007325
:1027D000136023681A69636A1A70626A531C636221
:1027E000238D013B2385638D9BB2013B9BB26385A7
:1027F00023681B695370636A01336362238D013B55
:102800002385638D9BB2013B9BB26385218D00299B
:102810007FD0032954D80129B4D00229CAD0009509
:102820003346002225492046FFF777FB002840F079
:1028300083802268136823F48063136023681A6915
:10284000636A1A70636A01336362238D013B2385D7
:10285000618D89B2013989B26185009533460022C4
:1028600016492046FFF759FB002867D122681368F4
:1028700043F40073136023681A69636A1A70626A0A
:10288000531C6362238D013B2385638D9BB2013B07
:102890009BB2638523681B695370636A013363626B
:1028A000238D013B2385638D9BB2013B9BB26385E6
:1028B000ACE700BF020010000000FFFF04000100B1
:1028C0002A4631462046FFF7F9FC002838D1236814
:1028D0001A69636A1A70626A531C6362238D013B32
:1028E0002385638D9BB2013B9BB263852368596945
:1028F00011F0040F8AD01B695370636A013363625D
:10290000238D013B2385638D9BB2013B9BB2638585
:102910007CE7202384F83D30002384F83E3084F89F
:102920003C30ACE60227AAE60227A8E60127A6E685
:102930000127A4E60127A2E60127A0E601279EE6DB
:1029400001279CE62DE9F04385B004468846914670
:102950001D46FFF7AFFA94F83D30DBB2202B03D0D1
:10296000022005B0BDE8F08306460090192301223D
:1029700057492046FFF7D1FA002840F0A08094F88C
:102980003C30012B00F09D80012384F83C3023680B
:102990001A6812F0010F03D11A6842F001021A609E
:1029A0002268136823F400631360242384F83D3005
:1029B00000272764474BE36240E023681B6813F459
:1029C000807F02D04FF4007323640320C9E7A02363
:1029D00084F83D3022685369C3F340035269C2F35F
:1029E000802294F83DC05FFA8CFCBCF1A00F09D0A6
:1029F00043B93AB9FFF75EFA801BA842E7D8002D29
:102A0000E8D1E4E7202384F83D3023685A6912F0C6
:102A1000020F31D11A6842F400721A6023686FF411
:102A200080625A6100961923012229492046FFF746
:102A300074FA002849D101374F4538D2226813680B
:102A400043F48073136000962B4600224FF001116F
:102A50002046FFF762FA0028AFD1236808F0FE0293
:102A60001A61FFF727FA064622685369C3F3400349
:102A70005269C2F38022B4E71A6842F400721A6005
:102A80000023039323685A6903929B690393039B72
:102A90000096192301220E492046FFF73EFA90B90D
:102AA000202384F83D30002384F83C3059E720236C
:102AB00084F83D30002384F83C30012051E70220A7
:102AC0004FE702204DE701204BE7012049E700BF17
:102AD000020010000000FFFF38B504460268D3680A
:102AE00023F0A003D360FFF7E5F905462368DB6810
:102AF00013F0200F07D1FFF7DDF9401BB0F57A7F07
:102B0000F4D9032000E0002038BD70B50368DA680E
:102B100012F0400F02D00025284670BD0446DA6846
:102B200042F08002DA60FFF7C5F906460025236807
:102B3000DB6813F0400FEFD1002DEDD1FFF7BAF9AC
:102B4000831BB3F57A7FF2D9042363770125EEE77F
:102B50000268D36823F08003D36003689B6813F096
:102B6000200F01D00020704710B50446FFF7B4FFD6
:102B700010B104236377012010BD002841D010B5A7
:102B80000446437FE3B1022363772368CA225A6273
:102B9000236853225A622046FFF7B7FFA0B158B905
:102BA0002268136C23F4802313642268136CA169D8
:102BB0000B431364012363772368FF225A6210BD1D
:102BC0000377FEF75BF8DEE72268936823F4E003FF
:102BD00023F04003936021688A6863682069034397
:102BE0006069034313438B602368E2681A612268BB
:102BF0001369A16843EA014313612046FFF7A8FF68
:102C0000CDE701207047002303E00133DBB20A382F
:102C1000C0B20928F9D81B01DBB218437047037F03
:102C2000012B59D070B504460E46012303770223C9
:102C300043774ABB03689B6813F0400F01D1002320
:102C4000CB703078FFF7DFFF05047078FFF7DBFF0C
:102C500045EA0025B078FFF7D6FF0543F07845EA4E
:102C600080552368CA225A62236853225A6220463A
:102C7000FFF74BFFD0B108B9012363772368FF2228
:102C80005A620023237770BD03689B6813F0400FDE
:102C900001D10023CB70337875782D0245EA0345C6
:102CA000B0780543F07845EA8055DAE7236805F007
:102CB0007F3525F0FE451D602268936823F480234C
:102CC000936021688B68F2683069024313438B601C
:102CD0002046FFF73DFFCEE702207047037F012B20
:102CE00048D070B504460E4601230377022343778C
:102CF0003AB94B7813F0100F03D003F0EF030A3307
:102D00004B7012BBF078FFF77EFF05047078FFF779
:102D10007AFF45EA0025B078FFF775FF0543307864
:102D200045EA40352368CA225A62236853225A6210
:102D30002046FFF7EAFE98B108B9012363772368BC
:102D4000FF225A620023237770BDF37875782D0235
:102D500045EA0345B0780543307845EA4035E1E778
:102D6000236825F07F4525F0C0055D602046FFF70C
:102D7000EFFEE1E70220704700285AD010B5044664
:102D8000436A33B94368B3F5827F05D00023C3613A
:102D900002E00023036143610023A36294F85130F1
:102DA000002B40D0022384F851302268136823F0AE
:102DB00040031360636803F48273A26802F4044260
:102DC0001343E26802F400621343226902F0020234
:102DD0001343626902F001021343A26902F4007214
:102DE0001343E26902F038021343226A02F08002C0
:102DF0001343A26A02F40052216813430B60638BF1
:102E000003F00403626A02F01002216813434B606E
:102E10002268D36923F40063D36100206065012335
:102E200084F8513010BD84F850302046FDF74AFF39
:102E3000B8E701207047026802F10C0353E8003F35
:102E400023F490730C3242E800310029F3D1026878
:102E500002F1140353E8003F23F00103143242E867
:102E600000310029F3D1036B012B05D0202380F81A
:102E70003E30002303637047026802F10C0353E8FD
:102E8000003F23F010030C3242E800310029F3D157
:102E9000ECE790F83D30DBB2212B01D002207047E7
:102EA0008368B3F5805F17D0036A5A1C02621A78F0
:102EB00003685A60C38C9BB2013B9BB2C3844BB97D
:102EC0000268D36823F08003D3600268D36843F0BC
:102ED0004003D360002070470369002BE4D1036AEC
:102EE0001B880268C3F308035360036A023303625A
:102EF000E0E7000038B504460268136923F4405344
:102F0000C1680B4313618368026913434269134329
:102F1000C2691A430168CB6823F4164323F00C03FB
:102F20001343CB600268536923F4407381690B43F8
:102F300053610368314A934206D002F5806293429E
:102F400002D0FEF71DFB01E0FEF72AFBE369B3F5B3
:102F5000004F29D00021031849411B1841F10001FD
:102F6000C90041EA5371DB00181863684FEA830215
:102F70004FEA937341F10001FDF78AF9204DA5FB5B
:102F800000325109642303FB11031B013233A5FBFB
:102F900003235B0903F0F00202EB011203F00F03BD
:102FA000216813448B6038BD0023021843EB0301F2
:102FB000121841F10001C90041EA5271D200101803
:102FC00041F10001626892185B41FDF761F90C4D17
:102FD000A5FB00325109642303FB1103DB003233EC
:102FE000A5FB03235B095A0002F4F87202EB0112FD
:102FF00003F00703216813448B60D4E700100140FD
:103000001F85EB512DE9F84305460F4616469946B4
:10301000DDF820802C68246837EA04030CBF4FF0E9
:10302000010C4FF0000CB4452DD1B8F1FF3FF1D0A9
:10303000B8F1000F05D0FEF73DFFA0EB09004045B9
:10304000E8D92A6802F10C0353E8003F23F4D07357
:103050000C3242E800310029F3D12A6802F114034E
:1030600053E8003F23F00103143242E80031002905
:10307000F3D1202385F83D3085F83E30002385F8D4
:103080003C30032000E00020BDE8F88358B310B5C1
:10309000044690F83D300BB3242384F83D30226879
:1030A000D36823F40053D3602046FFF723FF226840
:1030B000136923F4904313612268536923F02A03B0
:1030C00053612268D36843F40053D3600020206426
:1030D000202384F83D3084F83E3010BD80F83C3029
:1030E000FDF764FED8E7012070472DE9F04182B07A
:1030F0001E4690F83D30DBB2202B54D104460D46DD
:103100009046002953D0002A53D090F83C30012B30
:1031100051D0012380F83C3000230364212380F840
:103120003D30FEF7C7FE0746A4F82480A4F82680A9
:10313000A368B3F5805F05D04FF00008002384F842
:103140003C3012E0236913B14FF00008F6E7A846BF
:103150000025F3E738F8023B2268C3F30803536005
:10316000E28C92B2013A92B2E284E38C9BB273B1E8
:1031700000963B46002280212046FFF743FFE0B93E
:10318000002DE7D015F8012B23685A60E8E7009678
:103190003B46002240212046FFF734FF78B9202328
:1031A00084F83D3000E0022002B0BDE8F08101204B
:1031B000FAE70120F8E70220F6E70320F4E703200E
:1031C000F2E7704708B50168CA6822F04002CA6099
:1031D000202280F83D20FFF7F4FF002008BD704753
:1031E000704708B5806B0023C385C384FFF7F8FFE1
:1031F00008BD704790F83E30DBB2222B67D1836860
:10320000B3F5805F4DD0826AB3F5805F04D0002BA8
:1032100054D10369002B51D103685B681370836A32
:1032200001338362C38D9BB2013B9BB2C385002BEC
:103230004FD100B583B00268D36823F02003D36078
:103240000268D36823F48073D3600268536923F063
:1032500001035361202380F83E30036B012B33D1EF
:1032600000230363026802F10C0353E8003F23F0DC
:1032700010030C3242E800310029F3D103681A68C8
:1032800012F0100F06D0002201921A6801925B68BA
:103290000193019B818DFFF7ACFF002003B05DF827
:1032A00004FB0269002AAED1826A03685B68C3F33B
:1032B00008031380836A02338362B3E703685B68A1
:1032C00003F07F031370AAE7FFF789FFE5E7022009
:1032D000704700207047000030B583B00446026894
:1032E0001368D068516913F00F0505D113F0200F52
:1032F00002D010F0200F19D12DB111F0010119D118
:1033000010F4907F16D1216B01297DD013F0800F2E
:1033100003D010F0800F40F0158113F0400F03D060
:1033200010F0400F40F0128103B030BD2046FFF78F
:1033300061FFF9E713F0010F06D010F4807F03D08E
:10334000226C42F00102226413F0040F04D019B180
:10335000226C42F00202226413F0020F04D019B171
:10336000226C42F00402226413F0080F07D010F020
:10337000200F00D119B1226C42F008022264226CA5
:10338000002AD1D013F0200F02D010F0200F29D145
:1033900023685B6903F04003226C12F0080F00D130
:1033A00063B32046FFF747FD23685B6913F0400FC6
:1033B00020D0226802F1140353E8003F23F04003B9
:1033C000143242E800310029F3D1A36B73B1614A92
:1033D0001A65A06BFEF7B4FB0028A5D0A06B036DA7
:1033E0009847A1E72046FFF705FFD1E72046FFF702
:1033F000F7FE99E72046FFF7F3FE95E72046FFF733
:10340000EFFE002323648FE713F0100F3FF47EAF2D
:1034100010F0100F3FF47AAF00230193136801936B
:1034200053680193019B536913F0400F50D0A26B76
:1034300013685B689BB2002B3FF476AFA18D994275
:103440007FF672AFE385D369B3F5807F37D022680A
:1034500002F10C0353E8003F23F480730C3242E87E
:1034600000310029F3D1226802F1140353E8003F30
:1034700023F00103143242E800310029F3D122681D
:1034800002F1140353E8003F23F04003143242E8F2
:1034900000310029F3D1202384F83E300023236338
:1034A000226802F10C0353E8003F23F010030C32B2
:1034B00042E800310029F3D1A06BFEF7F7FAA18DA5
:1034C000E38D9BB2C91A89B22046FFF792FE2BE723
:1034D000A18DE38D9BB2C91A89B2E38D9BB2002BFB
:1034E0003FF422AF00293FF41FAF226802F10C0322
:1034F00053E8003F23F490730C3242E80030002878
:10350000F3D1226802F1140353E8003F23F00103D2
:10351000143242E800300028F3D1202384F83E30F2
:1035200000232363226802F10C0353E8003F23F0D9
:1035300010030C3242E800300028F3D12046FFF798
:1035400058FEF1E62046FFF7A4FCEDE62046FFF723
:1035500039FEE9E6E3310008034AD2F8883043F443
:103560007003C2F88830704700ED00E000B583B00A
:103570004FF0FF33009393B20A4601460248FEF72C
:10358000B1FF03B05DF804FB3403002000B583B045
:103590004FF0FF33009393B20A4601460248FFF70B
:1035A0005DF803B05DF804FB3403002008B50A465B
:1035B0004FF0FF3301460248FFF7C4F908BD00BFD2
:1035C0003403002008B501224FF480510148FEF772
:1035D0008DF908BD0004024008B500224FF4805167
:1035E0000148FEF783F908BD0004024038B51446CF
:1035F00020F03F03403382189A4202D30024204631
:1036000038BDC0F307230D4D2B70C0B2687004F0B5
:103610003F02A81C00F09AF8FFF7DEFF621C294663
:10362000A020FFF7A3FF0446FFF7CCFF002CE6D154
:103630006421A020FFF7BAFF0446E0E78C040020D5
:1036400038B50C461546C0F3072308490B70C0B2C5
:1036500048700222A020FFF789FF00B138BD2A463A
:103660002146A020FFF792FFF8E700BF8C0400205E
:103670000FB410B582B004AB53F8042B01930A4C7D
:103680008021204600F0A4F82046FCF7A9FD4FF069
:10369000FF3382B221460548FFF727FD02B0BDE89F
:1036A000104004B0704700BFD00400200004002088
:1036B000DFF834D00D480E490E4A002302E0D458FA
:1036C000C4500433C4188C42F9D30B4A0B4C00236A
:1036D00001E013600432A242FBD3FFF73DFF00F08C
:1036E00011F8FDF769F97047000001200000002083
:1036F000700000201041000870000020E405002048
:10370000FEE7000070B50D4D0D4C641BA4100026A3
:10371000A64209D10B4D0C4C00F0B6FC641BA41062
:103720000026A64205D170BD55F8043B98470136E6
:10373000EEE755F8043B98470136F2E708410008E8
:1037400008410008084100080C4100080A44914261
:1037500000F1FF3300D1704710B511F8014B03F8A9
:10376000014F9142F9D110BD02440346934200D16A
:10377000704703F8011BF9E730B51446002C9BB0E5
:1037800005461A4605DA8B2303604FF0FF301BB065
:1037900030BD4FF40273ADF80C3014BF04F1FF33A9
:1037A0002346029305934FF6FF7300910491ADF801
:1037B0000E3069461E9B00F075F8431CBCBF8B237E
:1037C0002B60002CE3D0009B00221A70DFE7000082
:1037D00007B5009313460A46014603480068FFF701
:1037E000CBFF03B05DF804FB0C0000202DE9F0478F
:1037F0008E689E4282460C4690461F4638D88A897B
:1038000012F4906F32D025680969A5EB010965694A
:1038100005EB450505EBD57501334B446D109D4215
:1038200038BF1D46530531D5294600F055FB0646E5
:1038300050B90C23CAF80030A38943F04003A38198
:103840004FF0FF30BDE8F08721694A46FFF77EFF61
:10385000A38923F4906343F08003A381266165610B
:103860004E44A5EB09052660A5603E46BE4200D940
:103870003E4620683246414600F0A8FAA3689B1BEA
:10388000A3602368334423600020DBE72A4600F06E
:1038900097FB06460028E1D12169504600F0B0FAB6
:1038A000C7E700002DE9F04F98468B891B069DB0B5
:1038B00007460D4614460ED50B6963B9402100F04A
:1038C0000BFB2860286120B90C233B604FF0FF30D0
:1038D000D1E040236B610023099320238DF8293028
:1038E000CDF80C803023DFF8A8818DF82A304FF016
:1038F000010923469A4613F8012B0AB1252AF9D16A
:10390000BAEB040B0BD05B46224629463846FFF73C
:103910006DFF013000F0AA80099A5A4409929AF882
:103920000030002B00F0A28000234FF0FF32CDE9E1
:1039300005230AF1010A049307938DF853301A9373
:103940005446052214F8011B5148FCF751FC049A17
:10395000D8B9D00644BF20238DF85330110744BF97
:103960002B238DF853309AF800302A2B15D0079A64
:10397000544600204FF00A0C214611F8013B303B21
:10398000092B4ED9B0B1079214E0A0EB080309FA55
:1039900003F313430493A246D2E7039B191D1B684C
:1039A0000391002BBBBF5B4242F0020207930793D7
:1039B000B8BF049223782E2B0CD163782A2B35D1F3
:1039C000039B1A1D1B680392002BB8BF4FF0FF33F7
:1039D00002340593DFF8C8A0217803225046FCF793
:1039E00007FC40B14023A0EB0A0003FA00F0049B5F
:1039F00003430134049314F8011B26488DF8281062
:103A00000622FCF7F5FB002838D0234B1BBB039B99
:103A1000073323F0070308330393099B33440993C7
:103A200067E70CFB02320C460120A5E700230134B6
:103A3000059319464FF00A0C204610F8012B303A36
:103A4000092A03D9002BC5D00591C3E70CFB01213E
:103A500004460123F0E703AB00932A460F4B04A969
:103A60003846AFF30080421C0646D6D1AB895B06D0
:103A70003FF52CAF09981DB0BDE8F08F03AB009364
:103A80002A46064B04A9384600F07AF8EBE700BF57
:103A9000CC400008D640000800000000ED370008C8
:103AA000D24000082DE9F047164699468A680B690E
:103AB000DDF820809342B8BF1346336091F843206D
:103AC00007460C460AB1013333602368990642BFAA
:103AD000336802333360256815F0060506D104F11A
:103AE000190AE36832689B1AAB4226DC94F843203B
:103AF000131E226818BF012392062BD404F143023F
:103B000049463846C04701301ED02368E568326810
:103B100003F00603042B08BFAD1AA36822690CBF8B
:103B200025EAE57500259342C4BF9B1AED180026CF
:103B30001A34B5421AD1002008E001235246494602
:103B40003846C047013003D14FF0FF30BDE8F08761
:103B50000135C6E7E1185A1C302081F843002244A1
:103B600094F8451082F843100233C7E70123224638
:103B700049463846C0470130E6D00136D9E7000053
:103B80002DE9FF470F7E0C9D782F914680460C460D
:103B90009A4601F1430207D8622F0AD8002F00F09D
:103BA000D880582F00F0A38004F1420584F84270B9
:103BB0003AE0A7F16303152BF6D801A151F823F0E1
:103BC000193C00082D3C0008A93B0008A93B00084F
:103BD000A93B0008A93B00082D3C0008A93B0008B0
:103BE000A93B0008A93B0008A93B0008393D000893
:103BF0005D3C00081B3D0008A93B0008A93B0008EC
:103C00005B3D0008A93B00085D3C0008A93B00089B
:103C1000A93B0008233D00082B681A1D1B682A6079
:103C200004F1420584F842300123A3E020682968AA
:103C3000060601F104030AD50E682B60002E03DA94
:103C40002D23764284F843305E480A2319E00E683B
:103C50002B6010F0400F18BF36B2EFE72B682068DA
:103C6000191D2960010601D51E6802E04606FBD534
:103C70001E8854486F2F0CBF08230A23002184F8A4
:103C800043106568A560002DA2BF216821F00401E2
:103C900021600EB9002D4DD01546B6FBF3F103FBA4
:103CA0001167C75D05F8017D3746BB420E46F4D962
:103CB000082B0BD12368DE0708D523696168994278
:103CC000DEBF302305F8013C05F1FF35521B2261B0
:103CD000CDF800A04B4603AA21464046FFF7E2FE7E
:103CE00001304CD14FF0FF3004B0BDE8F0873548CB
:103CF00081F845702968236851F8046B29601D0616
:103D000014D5DF0744BF43F0200323601EB92368A6
:103D100023F0200323601023B0E7236843F020033F
:103D200023607823284884F84530E3E7590648BFE4
:103D3000B6B2E6E71546BBE72B6826686169181D31
:103D4000286035061B6801D5196002E07006FBD5B6
:103D50001980002323611546BAE72B681A1D2A60D3
:103D60001D68626800212846FCF742FA08B1401B32
:103D7000606063682361002384F84330A8E7236907
:103D80002A4649464046D0470130ABD023689B07BE
:103D900013D4E068039B9842B8BF1846A4E70123F8
:103DA000324649464046D04701309BD00135E36852
:103DB00003995B1AAB42F2DCEBE7002504F119062C
:103DC000F5E700BFDD400008EE400008884210B56E
:103DD00001EB020402D98442234607D8431EA142C4
:103DE00008D011F8012B03F8012FF8E7024401462F
:103DF0008A4200D110BD13F8014D02F8014DF7E7DA
:103E000037B5002944D051F8043C0190002BA1F1B2
:103E10000404B8BFE41800F013F91E4A01981368AF
:103E200033B96360146003B0BDE8304000F00EB9F0
:103E3000A34208D9256861198B4201BF19685B68E4
:103E400049192160EDE71A465B680BB1A342FAD924
:103E500011685518A5420BD1246821445418A34277
:103E60001160E0D11C685B68536021441160DAE79F
:103E700002D90C230360D6E7256861198B4204BF81
:103E800019685B68636004BF491921605460CAE720
:103E900003B030BDD005002070B50E4E0C46316821
:103EA000054611B900F0BCF830602146284600F004
:103EB000B7F8431C0AD0C41C24F00304A04207D066
:103EC000211A284600F0ACF8013001D14FF0FF3440
:103ED000204670BDD40500202DE9F041CD1C25F011
:103EE000030508350C2D38BF0C25002D074601DBD6
:103EF000A94205D90C233B6000263046BDE8F0817D
:103F00002E4E00F09DF833681C4634BB29463846D7
:103F1000FFF7C2FF431C04464DD134682646002EED
:103F200040D123683146384604EB030800F078F8A6
:103F300080453AD1216803356D1A25F0030508350F
:103F40000C2D38BF0C2529463846FFF7A5FF013058
:103F50002BD023682B4423600EE02268521B1ED412
:103F60000B2A16D96119A342256018BF59606368EE
:103F700008BF316062514B60384604F10B0600F017
:103F800065F826F00706231DF21AB6D09B1BA35036
:103F9000B3E76268A3420CBF32605A60ECE7234685
:103FA0006468B2E734467668B9E70C233B6038466C
:103FB00000F04CF8A1E72560DEE700BFD005002047
:103FC0002DE9F041804614460E4621B9BDE8F04186
:103FD0001146FFF781BF2AB9FFF712FF2546284691
:103FE000BDE8F08100F038F88442074602D8B4EB0F
:103FF000500F12D821464046FFF76EFF05460028B5
:10400000EDD0BC422246314628BF3A46FFF79EFB20
:1040100031464046FFF7F4FEE1E73546DFE70000B2
:1040200038B5064D0023044608462B6000F01EF804
:10403000431C02D12B6803B1236038BDD805002092
:10404000014800F011B800BFDC050020014800F075
:104050000CB800BFDC05002051F8043C181F002BF1
:10406000BCBF0B58C018704770477047044A0549D9
:104070001368002B08BF0B461844106018467047A1
:10408000E0050020E8050020F8B500BFF8BC08BC3A
:104090009E467047F8B500BFF8BC08BC9E46704706
:1040A000426567696E6E696E670D0A00000610163C
:1040B00000061016000000000000000001020304CA
:1040C000060708090000000001020304232D302B1D
:1040D0002000686C4C006566674546470030313209
:1040E0003334353637383941424344454600303160
:1040F00032333435363738396162636465660000BF
:08410000C0C1FF7F01000000B7
:04410800C5010008E5
:04410C00A101000805
:1041100001000000100000000024F4001000002046
:10412000000000000000000000000000000000008F
:10413000000000000000000000000000000000007F
:10414000000000000000000000000000000000006F
:10415000000000000000000000000000000000005F
:10416000000000000000000000000000000000004F
:10417000000000000000000000000000000000003F
:04000005080036B108
:00000001FF
