:020000040800F2
:1000000000000120992F0008A9070008AB0700088D
:10001000AD070008AF070008B107000800000000A6
:10002000000000000000000000000000B30700080E
:10003000B507000800000000B7070008B90700086E
:10004000E92F0008E92F0008E92F0008E92F000830
:10005000E92F0008E92F0008E92F0008E92F000820
:10006000E92F0008E92F0008E92F0008E92F000810
:10007000C1070008E92F0008E92F0008D107000890
:10008000E1070008F1070008E92F00080000000060
:10009000000000000000000000000000E92F000840
:1000A000E92F0008E92F0008E92F0008E92F0008D0
:1000B000E92F0008E92F0008E92F0008E92F0008C0
:1000C000E92F0008E92F0008E92F0008E92F0008B0
:1000D000E92F000801080008E92F000800000000CF
:1000E000E92F0008E92F0008E92F000800000000B0
:1000F000000000000000000000000000E92F0008E0
:1001000000000000E92F0008E92F0008E92F00088F
:1001100000000000000000000000000000000000DF
:1001200011080008E92F0008E92F0008210800083D
:10013000E92F00080000000000000000000000009F
:10014000000000000000000000000000E92F00088F
:10015000E92F0008E92F000831080008E92F0008FE
:10016000E92F0008E92F000800000000000000004F
:10017000000000000000000000000000000000007F
:1001800000000000E92F000800000000000000004F
:04019000E92F00084B
:1001A000034613F8012B002AFBD1181A01387047B7
:1001B00001F0FF01102A2BDB10F0070F08D010F818
:1001C000013B013A8B422DD010F0070F42B3F6D11C
:1001D000F0B441EA012141EA014122F007047FF035
:1001E00000070023F0E80256083C85EA010586EA8C
:1001F000010685FA47F5A3FA87F586FA47F6A5FAC8
:1002000087F68EB9EED1F0BC01F0FF0102F00702D3
:1002100032B110F8013B013A83EA010313B1F8D17E
:100220000020704701387047002D06BF354603385F
:10023000073815F0010F07D1013015F4807F02BF98
:10024000013015F4C03F0130F0BC0138704700BFE9
:1002500053B94AB9002908BF00281CBF4FF0FF312D
:100260004FF0FF3000F00CB8ADF1080C6DE904CE92
:1002700003F088FBDDF804E0DDE9022304B07047F9
:10028000704700BF0348044B834202D0034B03B1C5
:10029000184770475C0000205C0000200000000050
:1002A0000548064B1B1AD90F01EBA301491002D0D8
:1002B000034B03B1184770475C0000205C0000202E
:1002C0000000000010B5064C237843B9FFF7DAFFB1
:1002D000044B13B10448AFF300800123237010BD19
:1002E0005C00002000000000403C000808B5054B01
:1002F0001BB105490548AFF30080BDE80840FFF792
:10030000CFBF00BF0000000060000020403C00089C
:100310002DE9F0478AB000240594069407940894C8
:1003200009940094484B1A6B42F004021A631A6B4A
:1003300002F004020092009A01941A6B42F08002CB
:100340001A631A6B02F080020192019A02941A6BEE
:1003500042F001021A631A6B02F001020292029A41
:1003600003941A6B42F002021A631A6B02F0020243
:100370000392039A04941A6B42F008021A631B6BEF
:1003800003F008030493049BDFF8C88022464FF46F
:100390000051404601F062F92C4F22466021384658
:1003A00001F05CF92A4E224641F20301304601F089
:1003B00055F9DFF8A49001220421484601F04EF9D6
:1003C0004FF4005ACDF814A001250695079408941F
:1003D00005A9404601F05EF84FF48043059306946A
:1003E000079405A9404601F055F8022305930694A9
:1003F000079405A9384601F04DF86023059306954A
:100400000794089405A9384601F044F841F2030323
:10041000059306950794089405A9304601F03AF82B
:10042000CDF814A00694079405A9304601F032F8DF
:100430000423059306950794089405A9484601F0FE
:1004400029F80AB0BDE8F0870038024000000240F9
:100450000004024000080240000C024010B582B0C7
:1004600000240094264B1A6B42F400121A631A6B94
:1004700002F400120092009A01941A6B42F4800276
:100480001A631B6B03F480030193019B22462146F0
:100490000C2001F055FB0C2001F062FB22462146A6
:1004A0000F2001F04DFB0F2001F05AFB22462146A0
:1004B000102001F045FB102001F052FB224621469E
:1004C000112001F03DFB112001F04AFB224621469C
:1004D000382001F035FB382001F042FB224621464E
:1004E0003B2001F02DFB3B2001F03AFB2246214648
:1004F000462001F025FB462001F032FB02B010BD82
:100500000038024000B583B00DF1070002F0FEFC98
:1005100028B1064802F020FD03B05DF804FB9DF809
:100520000710034802F018FDF6E700BF583C00082A
:10053000643C000872B6FEE708B50A480A4B03603F
:100540004FF4E133436000238360C36003610C22F6
:1005500042618361C36102F06BFA00B908BDFFF725
:10056000E9FF00BF980100200044004008B50D4895
:100570000D4B03604FF48273436000238360C360BC
:10058000036143614FF4007282611822C261036209
:10059000436283620A23C36202F0C2F800B908BD55
:1005A000FFF7C8FFE00200200030014008B50A480C
:1005B0000A4B03604FF4E133436000238360C36060
:1005C00003610C2242618361C36102F031FA00B918
:1005D00008BDFFF7AFFF00BFDC01002000100140A5
:1005E00008B50A480A4B03600A4B43600023836046
:1005F000C3604FF48042026143618361C36103625F
:1006000001F0ECFC00B908BDFFF794FF18040020CE
:10061000005C0040801A060008B50448044B0360E3
:1006200000F038FB00B908BDFFF784FF6C04002020
:100630000030024000B587B000230193029303937A
:100640000493059300931A481A4A026043607F227C
:100650008260FF22C26003614361836101F05FFF3A
:1006600000BB00238DF804308DF805308DF806307E
:1006700004930593012201A90D4801F0A3FF98B945
:1006800001228DF800208DF801208DF80220002332
:100690008DF803306946064801F0F4FF30B907B021
:1006A0005DF804FBFFF746FFFFF744FFFFF742FF4B
:1006B000380300200028004000B595B0302200210A
:1006C00008A802F0CBFC0023039304930593069340
:1006D00007930193214A116C41F080511164126C0F
:1006E00002F080520192019A02931D4A136823F48A
:1006F000404343F400431360136803F44043029300
:10070000029B092308934FF48033099301230D932F
:1007100002230E934FF480020F920822109254226B
:10072000119212930423139308A800F0C3FA80B91E
:100730000F23039302210491002305934FF4805269
:100740000692079303A800F019FD20B915B05DF8D3
:1007500004FBFFF7EFFEFFF7EDFE00BF003802409D
:100760000070004008B501F043FAFFF7A5FFFFF75E
:10077000CFFDFFF773FEFFF7DFFEFFF7F7FEFFF792
:1007800015FFFFF72DFFFFF747FFFFF753FFFFF7B9
:10079000B9FE0121034800F067FF4FF4FA7001F041
:1007A00053FAF6E700040240FEE7FEE7FEE7FEE745
:1007B000FEE770477047704708B501F033FA08BD8F
:1007C00008B5024801F088F808BD00BFB803002052
:1007D00008B5024801F080F808BD00BF58030020AA
:1007E00008B5024801F078F808BD00BFD800002025
:1007F00008B5024801F070F808BD00BF780000207D
:1008000008B5024802F03AFA08BD00BFDC0100203A
:1008100008B5024801F060F808BD00BF8002002062
:1008200008B5024801F058F808BD00BF20020020BA
:1008300008B5024801F050F808BD00BF380100209B
:1008400082B0002100910B4B5A6C42F480425A64F2
:100850005A6C02F480420092009A01911A6C42F0A4
:1008600080521A641B6C03F080530193019B02B009
:10087000704700BF003802400268094B9A4200D01E
:10088000704782B000230193064B1A6B42F48052EA
:100890001A631B6B03F480530193019B02B07047F2
:1008A00000300240003802402DE9F04788B00023B4
:1008B0000393049305930693079302683F4B9A4270
:1008C00002D008B0BDE8F0870446002500953C4EF4
:1008D000336B43F004033363336B03F0040300937F
:1008E000009B0195336B43F001033363336B03F0DB
:1008F00001030193019B4FF4007303934FF0120A1D
:10090000CDF810A04FF00109CDF814904FF0030876
:10091000CDF818800427079703A92A4800F0BAFDEC
:100920004FF480730393CDF810A0CDF81490CDF858
:100930001880079703A9244800F0ACFD0295336C9A
:1009400043F400033364336C03F400030293029B0B
:100950001E481F4B03604FF0007343608560C56005
:100960004FF48063036145618561C561056245623D
:1009700000F0EEFED8B9154BA3639C631548164BE7
:1009800003604FF0C0634360402383600023C36073
:100990004FF48062026143618361C3610362436219
:1009A00000F0D6FE30B90B4B63639C6389E7FFF719
:1009B000C1FDE0E7FFF7BEFDF5E700BF005C0040CA
:1009C000003802400008024000000240B803002046
:1009D00028600240580300207060024000B587B0D4
:1009E00000230193029303930493059302680B4B36
:1009F0009A4202D007B05DF804FB022301934FF442
:100A00000073049301A800F08FFC20B9044B01226D
:100A1000C3F83C2EEEE7FFF78DFDF7E70028004016
:100A20000000474230B589B0002303930493059337
:100A30000693079302682F4B9A4201D009B030BD4C
:100A400004460025019503F584335A6C42F4805224
:100A50005A645A6C02F480520192019A02951A6B00
:100A600042F002021A631B6B03F002030293029B23
:100A70003823039302230493032306930523079348
:100A800003A91D4800F006FD1C481D4B03604FF0F4
:100A9000C06343608560C5604FF480630361456156
:100AA0008561C5610562456200F052FED8B9134BFD
:100AB000E3649C631348144B03604FF0C0634360CE
:100AC000402383600023C3604FF48062026143616E
:100AD0008361C3610362436200F03AFE30B9094B9F
:100AE000A3649C63AAE7FFF725FDE0E7FFF722FD7B
:100AF000F5E700BF00300140000402408002002002
:100B000010640240200200205864024030B58BB0CF
:100B100004460023059306930793089309930368FB
:100B2000524A934204D0524A934247D00BB030BD50
:100B3000002501954F4B5A6C42F010025A645A6CD2
:100B400002F010020192019A02951A6B42F0010222
:100B50001A631B6B03F001030293029B4FF4C06303
:100B6000059302230693032308930723099305A9FA
:100B7000414800F08FFC4148414B03604FF0006357
:100B8000436040238360C5604FF480630361456127
:100B90008561C5610562456200F0DAFD58B9374BE1
:100BA00063639C6300221146252000F0C9FF2520C5
:100BB00000F0D6FFBAE7FFF7BDFCF0E7002503958C
:100BC0002C4B1A6C42F400321A641A6C02F4003294
:100BD0000392039A04951A6B42F001021A631B6B8D
:100BE00003F001030493049B0C2305930223069353
:100BF000032308930723099305A91F4800F04AFC23
:100C00002048214B03604FF0006343608560C5605E
:100C10004FF48063036145618561C561056245628A
:100C200000F096FDD8B9174BA3639C631748184B87
:100C300003604FF000634360402383600023C36080
:100C40004FF48062026143618361C3610362436266
:100C500000F07EFD30B90D4B63639C6366E7FFF7E0
:100C600069FCE0E7FFF766FCF5E700BF0010014014
:100C700000440040003802400000024038010020DB
:100C8000B8640240D800002088600240780000204C
:100C9000A060024058B110B5044643791BB101234E
:100CA0006371002010BD0371FFF7E6FDF7E7012037
:100CB00070470000002800F0E08170B582B0044663
:100CC000036813F0010F3BD09F4B9B6803F00C03AC
:100CD000042B2CD09C4B9B6803F00C03082B21D0D9
:100CE0006368B3F5803F4FD0B3F5A02F52D0964B39
:100CF0001A6822F480321A601A6822F480221A607C
:100D00006368002B50D000F099FF05468E4B1B689E
:100D100013F4003F14D100F091FF401B6428F5D973
:100D20000320B1E1884B5B6813F4800FD8D0864B69
:100D30001B6813F4003F03D06368002B00F09F8111
:100D4000236813F0020F54D07F4B9B6813F00C0FF5
:100D50003ED07D4B9B6803F00C03082B33D0E36837
:100D6000002B68D0794B01221A6000F067FF05461E
:100D7000754B1B6813F0020F54D100F05FFF401B4E
:100D80000228F5D903207FE16F4A136843F48033CA
:100D90001360B5E76C4B1A6842F480221A601A6837
:100DA00042F480321A60ABE700F048FF0546664B1C
:100DB0001B6813F4003FC3D000F040FF401B6428C1
:100DC000F5D9032060E1604B5B6813F4800FC6D156
:100DD0005D4B1B6813F0020F03D0E368012B40F05A
:100DE0005081594A136823F0F803216943EAC1038B
:100DF0001360236813F0080F42D063696BB3534B41
:100E00000122C3F8802E00F019FF05464E4B5B6FA0
:100E100013F0020F34D100F011FF401B0228F5D966
:100E2000032031E1484A136823F0F803216943EABB
:100E3000C1031360DDE7454B00221A6000F0FEFE9F
:100E40000546414B1B6813F0020FD2D000F0F6FEAE
:100E5000401B0228F5D9032016E13C4B0022C3F8C1
:100E6000802E00F0EBFE0546374B5B6F13F0020F50
:100E700006D000F0E3FE401B0228F5D9032003E171
:100E8000236813F0040F77D02F4B1B6C13F0805F97
:100E900033D1002301932C4B1A6C42F080521A6418
:100EA0001B6C03F080530193019B0125284B1B68A9
:100EB00013F4807F23D0A368012B34D0052B38D0C6
:100EC000214B1A6F22F001021A671A6F22F00402F6
:100ED0001A67A368002B3DD000F0B0FE06461A4BFF
:100EE0001B6F13F0020F46D100F0A8FE801B41F2E9
:100EF00088339842F3D90320C6E00025D6E7144A88
:100F0000136843F48073136000F098FE0646104B9C
:100F10001B6813F4807FCED100F090FE801B022866
:100F2000F5D90320B0E0084A136F43F001031367BB
:100F3000CFE7054B1A6F42F004021A671A6F42F0AE
:100F400001021A67C5E700BF0038024000004742AF
:100F50000070004000F072FE0646524B1B6F13F00B
:100F6000020F08D000F06AFE801B41F288339842DD
:100F7000F3D9032088E0EDB9A369002B00F083804A
:100F8000484A926802F00C02082A51D0022B17D06E
:100F9000454B00221A6600F051FE0446414B1B6887
:100FA00013F0007F42D000F049FE001B0228F5D963
:100FB000032069E03B4A136C23F080531364DBE7A2
:100FC000394B00221A6600F039FE0546354B1B6886
:100FD00013F0007F06D000F031FE401B0228F5D947
:100FE000032051E0E369226A1343626A43EA8213F1
:100FF000A26A5208013A43EA0243E26A43EA026300
:10100000284A5360284B01221A6600F017FE044656
:10101000244B1B6813F0007F06D100F00FFE001B6D
:101020000228F5D903202FE000202DE000202BE03E
:10103000012B2BD01B4B5B6803F48001E2699142CA
:1010400026D103F03F02216A8A4223D1616A47F622
:10105000C0721A40B2EB811F1ED103F44031A26A64
:101060005208013AB1EB024F18D103F07063E26A03
:10107000B3EB026F14D1002006E00120704701207D
:1010800002E0012000E0002002B070BD0120FBE77B
:101090000120F9E70120F7E70120F5E70120F3E758
:1010A0000120F1E7003802400000474208B5314B0B
:1010B0009B6803F00C03082B01D02F4808BD2D4B73
:1010C0005A6802F03F025B6813F4800F2CD0294B62
:1010D0005868C0F388104FEA401CBCEB000C6EEB64
:1010E0000E0E4FEA8E1343EA9C634FEA8C11B1EB6C
:1010F0000C0163EB0E03DB0043EA5173C90011EBF3
:10110000000C43F10003990200234FEA8C2041EACE
:101110009C51FFF79DF8174B5B68C3F30143013304
:101120005B00B0FBF3F0C9E7124B5868C0F38810BE
:101130004FEA401CBCEB000C6EEB0E0E4FEA8E1318
:1011400043EA9C634FEA8C11B1EB0C0163EB0E0395
:10115000DB0043EA5173C90011EB000C43F10003BB
:10116000990200234FEA8C2041EA9C51FFF770F866
:10117000D1E700BF003802400024F400002800F04E
:101180009B8070B50D4604464F4B1B6803F0070368
:101190008B4208D2CBB24C4A1370136803F007039A
:1011A0008B4240F08B80236813F0020F17D013F0AE
:1011B000040F04D0454A936843F4E05393602368D6
:1011C00013F0080F04D0414A936843F460439360DE
:1011D0003E4A936823F0F003A1680B4393602368B1
:1011E00013F0010F32D06368012B21D09A1E012A1F
:1011F00025D9364A126812F0020F61D033498A6845
:1012000022F0030213438B6000F018FD06462F4BBB
:101210009B6803F00C036268B3EB820F16D000F0FA
:101220000DFD801B41F288339842F0D9032042E043
:10123000264A126812F4003FE0D101203BE0234A25
:10124000126812F0007FD9D1012034E01E4B1B68D8
:1012500003F00703AB4207D9EAB21B4B1A701B68B5
:1012600003F00703AB422DD1236813F0040F06D01F
:10127000164A936823F4E053E1680B4393602368B4
:1012800013F0080F07D0114A936823F460432169D3
:1012900043EAC1039360FFF709FF0C4B9B68C3F35C
:1012A00003130B4AD35CD8400A4B18600A4B1868EA
:1012B00000F078FC002070BD012070470120FAE7A3
:1012C0000120F8E70120F6E7003C02400038024028
:1012D000843C00080800002004000020014B18682E
:1012E000704700BF0800002008B5FFF7F7FF044B68
:1012F0009B68C3F38223034AD35CD84008BD00BF78
:10130000003802407C3C000808B5FFF7E7FF044BBB
:101310009B68C3F34233034AD35CD84008BD00BF87
:10132000003802407C3C000830B583B004460368B6
:1013300013F0050F0ED1236813F0020F36D1236886
:1013400013F0080F00F09B80227C4E4BC3F8E02185
:10135000002095E04C4B00229A6600F06FFC054699
:101360004A4B1B6813F0006F06D000F067FC431B6C
:10137000022BF5D9032083E06268A3681B0743EAC8
:101380008213424AC2F884303F4B01229A6600F031
:1013900055FC05463D4B1B6813F0006FCBD100F0A8
:1013A0004DFC401B0228F5D9032069E0002301937E
:1013B000364B1A6C42F080521A641B6C03F0805357
:1013C0000193019B324A136843F48073136000F069
:1013D00035FC05462E4B1B6813F4807F06D100F0C8
:1013E0002DFC431B022BF5D9032049E0274B1B6F33
:1013F00013F4407314D0E26802F440729A420FD0A2
:10140000224B1A6F22F440721F490120C1F8400E8E
:101410000020C1F8400E1A671B6F13F0010F12D1A4
:10142000E36803F44072B2F5407F1DD0174A936819
:1014300023F4F813936015490B6FE268C2F30B02B3
:1014400013430B677BE700F0F9FB05460F4B1B6F5F
:1014500013F0020FE4D100F0F1FB401B41F288339E
:101460009842F3D903200BE008498A6822F4F81265
:1014700023F0704323F4407313438B60DBE70020B9
:1014800003B030BD00104742000047420038024020
:101490000070004000230F2B00F2D78070B582B09F
:1014A00065E085684FEA430E032404FA0EF425EA4A
:1014B0000405CC6804FA0EF42C438460446824EAE2
:1014C00002044A68C2F300129A40224342605CE080
:1014D000DC08083450F8242003F00705AD004FF075
:1014E0000F0E0EFA05FE22EA0E0E0A69AA4042EA23
:1014F0000E0240F824205CE0042200E0002202FA00
:101500000EF22A430234514D45F82420504A946883
:101510006FEA0C0224EA0C054E6816F4801F01D015
:101520004CEA04054A4CA560E46802EA04054E68EA
:1015300016F4001F01D04CEA0405454CE5606468D0
:1015400002EA04054E6816F4003F01D04CEA040597
:101550003F4C6560246822404D6815F4803F01D0FF
:101560004CEA04023A4C226001330F2B6BD8012263
:101570009A400C6804EA020C32EA0404F4D14C6884
:1015800004F00304013C012C8BD94A6802F00302E9
:10159000032A09D0C4685D000322AA4024EA020499
:1015A0008A68AA402243C2604A6802F00302022A03
:1015B0008ED004684FEA430E032202FA0EF224EAA8
:1015C00002044A6802F0030202FA0EF222430260A9
:1015D0004A6812F4403FC7D0002201921D4A546C61
:1015E00044F480445464526C02F480420192019AA3
:1015F0009C08A51C154A52F8255003F0030E4FEA2B
:101600008E0E0F2202FA0EF225EA0205124A9042CD
:101610003FF474AF02F5806290420ED002F5806212
:1016200090420CD002F5806290420AD002F58062AE
:1016300090423FF461AF072261E701225FE7022297
:101640005DE703225BE702B070BD704700380140E0
:10165000003C014000380240000002400AB18161B4
:101660007047090481617047436901EA030221EA76
:10167000030141EA024181617047000010B4036830
:10168000D9B210390C4AA2FB014212090B4CA25CE0
:10169000C2655F2909D923F47F7323F00303043360
:1016A0008365806D5DF8044B704723F47F7323F0EE
:1016B00003038365F5E700BFABAAAAAA743C000840
:1016C000836A826992B9012B0AD0022B02D00BB136
:1016D00000207047C36A13F0807F28D10020704734
:1016E000C36AB3F1C07F24D000207047B2F5005F19
:1016F00009D0022B25D9032B25D1C36A13F0807F93
:1017000023D100207047032B03D8DFE803F0140433
:10171000140A00207047C36A13F0807F0DD10020A7
:101720007047C36AB3F1C07F09D000207047012021
:101730007047012070470120704701207047012049
:10174000704701207047002070470120704700005B
:1017500070B5044600F072FA002C5BD005460223F7
:1017600084F83530002384F834302268136823F07D
:101770000103136023681A6812F0010F0AD000F009
:101780005DFA431B052BF5D920236365032084F8FC
:10179000350070BD1A68204911406268A068024394
:1017A000E06802432069024360690243A069024382
:1017B000E0690243206A02430A43616A04291ED099
:1017C0001A602668756925F00705636A1D43042BB6
:1017D00007D1A36A1D43E36A1BB12046FFF770FFE0
:1017E00090B975612046FFF749FFE26D3F239340B2
:1017F000836000206065012384F83530C9E7E16A21
:10180000206B01430A43DBE740236365012084F832
:101810003500BEE70120BCE73F8010F070B50446FC
:10182000866D00F00BFA94F83530DBB2022B06D04F
:1018300080236365002384F83430012070BD0546A1
:101840002268136823F0160313602268536923F09B
:1018500080035361236CE3B12268136823F008030B
:1018600013602268136823F00103136023681B6868
:1018700013F0010F11D000F0E1F9431B052BF5D94E
:1018800020236365032084F83500002384F8343076
:10189000D4E7A36C002BDFD1E3E7E26D3F23934055
:1018A000B360012384F83530002084F83400C5E7A4
:1018B00090F83530DBB2022B03D080234365012042
:1018C0007047052380F835300268136823F0010360
:1018D0001360002070470000F0B583B00446002379
:1018E0000193724B1D68724BA3FB0535AD0A876DE2
:1018F0003E68C26D08239340334210D003681A68D3
:1019000012F0040F0BD01A6822F004021A60C26DA4
:1019100008239340BB60436D43F001034365E26DD0
:1019200001239340334209D02268526912F0800F9C
:1019300004D0BB60636D43F002036365E26D042372
:101940009340334209D02268126812F0020F04D08B
:10195000BB60636D43F004036365E26D1023934045
:10196000334224D02268126812F0080F1FD0BB60E7
:1019700023681A6812F4802F0DD01B6813F4002F0F
:1019800004D1236C9BB12046984710E0A36C73B13F
:10199000204698470BE01A6812F4807F03D11A683A
:1019A00022F008021A60236C0BB120469847E26DC2
:1019B00020239340334255D02268126812F0100F52
:1019C00050D0BB6094F83530DBB2052B0ED02368C5
:1019D0001A6812F4802F33D01B6813F4002F2AD119
:1019E000636C002B3ED0204698473BE0226813688A
:1019F00023F0160313602268536923F080035361B8
:101A0000236CA3B12268136823F008031360E26D0E
:101A10003F239340BB60012384F83530002384F8D2
:101A20003430236D002B3FD0204698473CE0A36C18
:101A3000002BE7D1EBE7E36BA3B12046984711E019
:101A40001A6812F4807F09D11A6822F010021A6015
:101A5000012384F83530002384F83430E36B0BB174
:101A600020469847636DFBB1636D13F0010F17D0EB
:101A7000052384F835302268136823F001031360CE
:101A8000019B01330193AB4204D823681B6813F018
:101A9000010FF5D1012384F83530002384F8343068
:101AA000E36C0BB12046984703B0F0BD080000205E
:101AB000B5814E1B002808DB0901C9B200F1604066
:101AC00000F5614080F80013704700F00F00090135
:101AD000C9B2014B1954704714ED00E000B500F095
:101AE0000700C0F1070CBCF1040F28BF4FF0040C35
:101AF000031D062B0FD9C31E4FF0FF3E0EFA0CF04C
:101B000021EA000199400EFA03FE22EA0E0241EAA0
:101B100002005DF804FB0023EEE70000074AD368EB
:101B200023F4E0631B041B0C000200F4E060034399
:101B300043F0BF6343F40033D360704700ED00E02F
:101B400010B50446054BD868C0F30220FFF7C6FF66
:101B500001462046FFF7AEFF10BD00BF00ED00E0DC
:101B6000002807DB00F01F02400901239340024ACE
:101B700042F82030704700BF00E100E00138B0F1CA
:101B8000807F0BD24FF0E0235861054AF02182F8A4
:101B900023100020986107221A61704701207047C6
:101BA00000ED00E010B504460E4B1A784FF47A733E
:101BB000B3FBF2F30C4A1068B0FBF3F0FFF7DEFF63
:101BC00068B90F2C01D901200AE0002221464FF00C
:101BD000FF30FFF7B5FF054B1C60002000E001203F
:101BE00010BD00BF000000200800002004000020FD
:101BF00008B50B4B1A6842F400721A601A6842F476
:101C000080621A601A6842F480721A600320FFF73B
:101C100085FF0020FFF7C6FFFEF712FE002008BD7B
:101C2000003C0240034A1168034B1B780B441360CD
:101C3000704700BF7404002000000020014B1868AA
:101C4000704700BF7404002038B50446FFF7F6FF64
:101C50000546B4F1FF3F02D0044B1B781C44FFF74C
:101C6000EDFF401BA042FAD338BD00BF00000020AA
:101C700003685A6912F4806F01D1002070476FF435
:101C800080625A6100230363202280F83D2080F89F
:101C90003E30026C42F00402026480F83C300120C5
:101CA00070472DE9F04107460D4690461E4624E058
:101CB000FFF7C4FF069BC01AB04200D8EEB900235C
:101CC0003B63202287F83D2087F83E303A6C42F093
:101CD00020023A6487F83C3001201EE03B689C6992
:101CE00025EA040C1FFA8CFCBCFA8CFC4FEA5C1C45
:101CF000E04511D1B6F1FF3FDAD1C5F30743012B1F
:101D0000ECD13B685B6925EA030C1FFA8CFCBCFA3A
:101D10008CFC4FEA5C1CEBE70020BDE8F0812DE96C
:101D2000F04105460E46174698463DE01A6842F4D3
:101D300000721A602B686FF480625A6100232B6373
:101D4000202285F83D2085F83E302A6C42F00402BE
:101D50002A6485F83C30012034E0FFF76FFFA0EBE8
:101D60000800B84200D8FFB900232B63202285F871
:101D70003D2085F83E302A6C42F020022A6485F826
:101D80003C3001201EE02B689C6926EA0404A4B2C2
:101D9000003C18BF0124A4B12B685A6912F4806F6B
:101DA000C4D1B7F1FF3FD8D1C6F30743012BEAD125
:101DB0002B685C6926EA0404A4B2003C18BF012425
:101DC000E9E70020BDE8F08170B504460D461646EF
:101DD00023685B6913F0800F1CD12046FFF748FF92
:101DE000D0B9B5F1FF3FF3D0FFF728FF801BA84221
:101DF00001D8002DECD100232363202284F83D205C
:101E000084F83E30226C42F02002226484F83C3098
:101E1000012000E0002070BD0120FCE72DE9F04723
:101E200084B004460D46164699460C9FDDF8348072
:101E30000268136843F4806313600368196841F40F
:101E400080711960CDF800803B4600224FF00111EF
:101E5000FFF727FF70B95FFA85FA236805F0FE05E2
:101E60001D6143463A4641492046FFF758FF68B195
:101E7000012008E023681B6813F4807F02D04FF430
:101E800000732364032004B0BDE8F08700230393AC
:101E900023685A6903929B690393039B4246394620
:101EA0002046FFF791FF80B9B9F1010F18D12368DF
:101EB000F6B21E61424639462046FFF785FF68B3F9
:101EC000236C042B24D00120DDE7236C042B01D0EC
:101ED0000120D8E72268136843F400731360F7E722
:101EE0002368320A1A61424639462046FFF76CFFE2
:101EF00018B92368F6B21E61DCE7236C042B01D00D
:101F00000120C0E72268136843F400731360F7E709
:101F10002268136843F400731360D4E722681368DF
:101F200043F480731360CDF800803B4600224FF0ED
:101F300001112046FFF7B5FE68B922684AF0010397
:101F4000136143463A4609492046FFF7E8FE002858
:101F500099D0012097E723681B6813F4807F02D093
:101F60004FF40073236403208DE700BF02000100DB
:101F700070B505460C4616462B68596911F0400F9E
:101F800029D1596911F0100F15D1FFF757FE801BA9
:101F9000A04201D8002CEFD100232B63202285F82A
:101FA0003D2085F83E302A6C42F020022A6485F8F4
:101FB0003C30012070BD6FF010025A6100232B638A
:101FC000202285F83D2085F83E302A6C2A6485F869
:101FD0003C300120EEE70020ECE70000002800F094
:101FE000CC8070B5044690F83D30002B77D0242388
:101FF00084F83D302268136823F0010313602268DF
:10200000136843F4004313602268136823F4004309
:102010001360FFF769F962685A4B9A4264D85A4BC9
:1020200098428CBF00230123002B40F0A880574921
:10203000A1FB00318B0C25686A6822F03F0242EA5E
:1020400091426A6021680A6A22F03F0266684D4D3B
:10205000AE424FD8013313430B622168CA6922F4A0
:102060004F4222F0FF026568464B9D424CD8431E0A
:102070006D00B3FBF5F3013340F6FC70034278D0FA
:10208000C3F30B031A43CA6121680B6823F0C00332
:10209000E269206A024313430B6021688B6823F4D2
:1020A000034323F0FF032269E068024313438B607C
:1020B0002168CB6823F0FF036269A06902431343E0
:1020C000CB602268136843F0010313600020206492
:1020D000202384F83D30206384F83E0070BD80F8F2
:1020E0003C30FEF7E1FB82E7294B98428CBF00238E
:1020F000012399E74FF4967505FB03F3254DA5FBE6
:1021000003539B090133A6E7A668BEB9431E05EB3E
:10211000450CB3FBFCF30133C3F30B03B3FA83F3B6
:102120005B0943BBC6B9431E05EB4505B3FBF5F39D
:102130000133C3F30B0343F40043A3E7431E05EB52
:10214000850C0CEB8C0CB3FBFCF30133C3F30B03DA
:10215000B3FA83F35B09E4E7431E05EB850505EB62
:102160008505B3FBF5F30133C3F30B0343F440439D
:1021700088E7042386E7012384E7012070470120D4
:10218000ACE700BFA08601007F841E0083DE1B43F6
:10219000FF083D00D34D62102DE9F04387B004469F
:1021A0000F4690469946109EFFF748FD054694F865
:1021B0003D00C0B2202804D00227384607B0BDE851
:1021C000F08300951923012288492046FFF769FD15
:1021D000002840F0438194F83C30012B00F040810E
:1021E000012384F83C3023681A6812F0010F03D1F0
:1021F0001A6842F001021A602268136823F400632F
:102200001360222384F83D30402384F83E300023BD
:1022100023640E9B6362BDF83C306385638D238528
:10222000734BE362019500964B4642463946204681
:10223000FFF7F4FD0746002840F01481238D5BB9B9
:10224000029323685A6902929A690292029A1A6862
:1022500042F400721A6075E0012B0AD0022B1AD0EA
:102260000023059323685A6905929B690593059B92
:1022700068E02268136823F48063136000230393EB
:1022800023685A6903929A690392039A1A6842F47E
:1022900000721A6056E02268136823F480631360AA
:1022A0002268136843F400631360002304932368D7
:1022B0005A6904929B690493049B43E02A46314681
:1022C0002046FFF755FE002840F0CE8023681A69AB
:1022D000636A1A70636A01336362238D013B23854D
:1022E000638D9BB2013B9BB263852BE00095334627
:1022F000002240492046FFF7D4FC002840F0B68079
:102300002268136843F40073136023681A69636AD0
:102310001A70626A531C6362238D013B2385638DAF
:102320009BB2013B9BB2638523681B695370636A50
:1023300001336362238D013B2385638D9BB2013B97
:102340009BB26385238D002B7FD0032B54D8012BA8
:10235000B4D0022BCAD0009533460022254920462E
:10236000FFF79FFC002840F083802268136823F465
:102370008063136023681A69636A1A70636A0133A1
:102380006362238D013B2385638D9BB2013B9BB22E
:10239000638500953346002216492046FFF781FCED
:1023A000002867D12268136843F400731360236820
:1023B0001A69636A1A70626A531C6362238D013B57
:1023C0002385638D9BB2013B9BB2638523681B69A8
:1023D0005370636A01336362238D013B2385638DF0
:1023E0009BB2013B9BB26385ACE700BF02001000CB
:1023F0000000FFFF040001002A4631462046FFF797
:10240000B7FD002838D123681A69636A1A70626AB6
:10241000531C6362238D013B2385638D9BB2013B7B
:102420009BB263852368596911F0040F8AD01B6938
:102430005370636A01336362238D013B2385638D8F
:102440009BB2013B9BB263857CE7202384F83D303F
:10245000002384F83E3084F83C30AEE60227ACE638
:102460000227AAE60127A8E60127A6E60127A4E697
:102470000127A2E60127A0E601279EE638B504461B
:102480000268D36823F0A003D360FFF7D7FB0546AB
:102490002368DB6813F0200F07D1FFF7CFFB401B49
:1024A000B0F57A7FF4D9032000E0002038BD70B584
:1024B0000368DA6812F0400F02D00025284670BD8C
:1024C0000446DA6842F08002DA60FFF7B7FB06469E
:1024D00000252368DB6813F0400FEFD1002DEDD10C
:1024E000FFF7ACFB831BB3F57A7FF2D90423637744
:1024F0000125EEE70268D36823F08003D360036808
:102500009B6813F0200F01D00020704710B50446DF
:10251000FFF7B4FF10B104236377012010BD00283A
:1025200042D010B50446437F7BB102236377236812
:10253000CA225A62236853225A622046FFF7B7FF25
:1025400038B12368FF225A6210BD0377FEF746FABE
:10255000EBE72268936823F4E00323F040039360E1
:1025600021688A68636820690343606903431343F1
:102570008B602368E2681A6122681369A16843EAE4
:10258000014313612046FFF7B5FF0028D9D1226827
:10259000136C23F4802313642268136CA1690B432A
:1025A000136401236377CCE701207047002303E025
:1025B0000133DBB20A38C0B20928F9D81B01DBB2FB
:1025C00018437047037F012B5AD070B504460E465E
:1025D000012303770223437732BB03689B6813F020
:1025E000400F01D10023CB703078FFF7DFFF0504E7
:1025F0007078FFF7DBFF45EA0025B078FFF7D6FFDC
:102600000543F37845EA83552368CA225A62236852
:1026100053225A622046FFF74AFFB8B12368FF22CF
:102620005A620023237770BD03689B6813F0400F44
:1026300001D10023CB70337875782D0245EA03452C
:10264000B3781D43F37845EA8355DDE7236805F049
:102650007F3525F0FE451D602268936823F48023B2
:10266000936021688B68F2683069024313438B6082
:102670002046FFF73FFF0028D0D101236377CDE745
:1026800002207047037F012B48D070B504460E46E8
:102690000123037702234377CAB1CB784D782D020B
:1026A00045EA03458B781D430B7845EA433523689B
:1026B000CA225A62236853225A622046FFF7F7FE65
:1026C000F0B12368FF225A620023237770BD4B7854
:1026D00013F0100F03D003F0EF030A334B70F078C0
:1026E000FFF764FF05047078FFF760FF45EA0025F7
:1026F000B078FFF75BFF0543337845EA4335D6E70B
:10270000236825F07F4525F0C0055D602046FFF772
:10271000F1FE0028D5D101236377D2E7022070476C
:1027200000285AD010B50446436A33B94368B3F55C
:10273000827F05D00023C36102E00023036143616F
:102740000023A36294F85130002B40D0022384F878
:1027500051302268136823F040031360636803F468
:102760008273A26802F404421343E26802F4006236
:102770001343226902F002021343626902F001026C
:102780001343A26902F400721343E26902F03802B3
:102790001343226A02F080021343A26A02F4005239
:1027A000216813430B60638B03F00403626A02F039
:1027B0001002216813434B602268D36923F400633D
:1027C000D36100206065012384F8513010BD84F886
:1027D00050302046FEF726F9B8E70120704702681E
:1027E00002F10C0353E8003F23F490730C3242E8EB
:1027F00000310029F3D1026802F1140353E8003FCD
:1028000023F00103143242E800310029F3D1036BB5
:10281000012B05D0202380F83E300023036370474E
:10282000026802F10C0353E8003F23F010030C325E
:1028300042E800310029F3D1ECE790F83D30DBB2FB
:10284000212B01D0022070478368B3F5805F17D039
:10285000036A5A1C02621A7803685A60C38C9BB2DE
:10286000013B9BB2C3844BB90268D36823F0800359
:10287000D3600268D36843F04003D3600020704700
:102880000369002BE4D1036A1B880268C3F30803C1
:102890005360036A02330362E0E7000010B50446A8
:1028A0000268136923F44053C1680B4313618368C2
:1028B00002691A4343691A43C3691A430168CB6822
:1028C00023F4164323F00C031343CB6002685369CF
:1028D00023F4407381690B4353610368314A934287
:1028E00006D002F58062934202D0FEF7FDFC01E0C3
:1028F000FEF70AFDE369B3F5004F29D00021031864
:1029000049411B1841F10001C90041EA5371DB0044
:10291000181863684FEA83024FEA937341F100018C
:10292000FDF796FC204AA2FB00314909642303FB12
:1029300011031B013233A2FB03235B0903F0F002F6
:1029400002EB011203F00F03216813448B6010BDEA
:102950000023021843EB0301121841F10001C900E2
:1029600041EA5271D200101841F1000162689218D8
:102970005B41FDF76DFC0C4AA2FB00314909642361
:1029800003FB1103DB003233A2FB03235B095A0074
:1029900002F4F87202EB011203F0070321681344FA
:1029A0008B60D4E7001001401F85EB512DE9F843FF
:1029B00005460F4616469946DDF820802B681C68B0
:1029C00037EA04040CBF01240024B4422DD1B8F12D
:1029D000FF3FF3D0B8F1000F05D0FFF72FF9A0EBC0
:1029E00009004045EAD92A6802F10C0353E8003F88
:1029F00023F4D0730C3242E800310029F3D12A6865
:102A000002F1140353E8003F23F00103143242E8BB
:102A100000310029F3D1202385F83D3085F83E3080
:102A2000002385F83C30032000E00020BDE8F88357
:102A300058B310B5044690F83D300BB3242384F806
:102A40003D302268D36823F40053D3602046FFF75B
:102A500025FF2268136923F49043136122685369A8
:102A600023F02A0353612268D36843F40053D360F0
:102A700000202064202384F83D3084F83E3010BDCF
:102A800080F83C30FEF742F8D8E7012070472DE986
:102A9000F04182B01E4690F83D30DBB2202B54D17D
:102AA00004460D469046002953D0002A53D090F892
:102AB0003C30012B51D0012380F83C3000230364CB
:102AC000212380F83D30FFF7B9F80746A4F82480A9
:102AD000A4F82680A368B3F5805F05D04FF0000806
:102AE000002384F83C3012E0236913B14FF0000852
:102AF000F6E7A8460025F3E738F8023B2268C3F35F
:102B000008035360E28C92B2013A92B2E284E38C01
:102B10009BB273B100963B46002280212046FFF70E
:102B200045FFE0B9002DE7D015F8012B23685A6066
:102B3000E8E700963B46002240212046FFF736FF9B
:102B400078B9202384F83D3000E0022002B0BDE8CF
:102B5000F0810120FAE70120F8E70220F6E70320E0
:102B6000F4E70320F2E7704708B50168CA6822F06D
:102B70004002CA60202280F83D20FFF7F4FF0020C9
:102B800008BD7047704708B5806B0023C385C384B8
:102B9000FFF7F8FF08BD704790F83E30DBB2222BFC
:102BA00067D18368B3F5805F4DD0826AB3F5805FEB
:102BB00004D0002B54D10369002B51D103685B680A
:102BC0001370836A01338362C38D9BB2013B9BB256
:102BD000C385002B4FD100B583B00268D36823F0C2
:102BE0002003D3600268D36823F48073D360026843
:102BF000536923F001035361202380F83E30036BB7
:102C0000012B33D100230363026802F10C0353E864
:102C1000003F23F010030C3242E800310029F3D1C9
:102C200003681A6812F0100F06D0002201921A6889
:102C300001925B680193019B818DFFF7ACFF00203F
:102C400003B05DF804FB0269002AAED1826A036812
:102C50005B68C3F308031380836A02338362B3E7BC
:102C600003685B6803F07F031370AAE7FFF789FF2F
:102C7000E5E70220704700207047000010B582B0E1
:102C8000044602681368D068516913F00F0F09D128
:102C900013F0200F0CD010F0200F09D02046FFF7C2
:102CA0007BFF16E011F0010115D110F4907F12D1D5
:102CB000216B012979D013F0800F03D010F0800F21
:102CC00040F0108113F0400F03D010F0400F40F09F
:102CD0000D8102B010BD13F0010F06D010F4807FFB
:102CE00003D0226C42F00102226413F0040F04D0DE
:102CF00019B1226C42F00202226413F0020F04D0D8
:102D000019B1226C42F00402226413F0080F07D0BC
:102D100010F0200F00D119B1226C42F00802226499
:102D2000226C002AD5D013F0200F02D010F0200F13
:102D300029D123685B6903F04003226C12F0080F6D
:102D400000D163B32046FFF74AFD23685B6913F0A7
:102D5000400F20D0226802F1140353E8003F23F013
:102D60004003143242E800310029F3D1A36B73B160
:102D7000604A1A65A06BFEF79BFD0028A9D0A06BE6
:102D8000036D9847A5E72046FFF706FFD1E72046E9
:102D9000FFF7F8FE9DE72046FFF7F4FE99E720468F
:102DA000FFF7F0FE0023236493E713F0100F82D0A7
:102DB00010F0100F3FF47FAF0023019313680193CD
:102DC00053680193019B536913F0400F50D0A26BDD
:102DD00013685B689BB2002B3FF47BAFA18D9942D7
:102DE0007FF677AFE385D369B3F5807F37D022686C
:102DF00002F10C0353E8003F23F480730C3242E8E5
:102E000000310029F3D1226802F1140353E8003F96
:102E100023F00103143242E800310029F3D1226883
:102E200002F1140353E8003F23F04003143242E858
:102E300000310029F3D1202384F83E30002323639E
:102E4000226802F10C0353E8003F23F010030C3218
:102E500042E800310029F3D1A06BFEF7DFFCA18D21
:102E6000E38D9BB2C91A89B22046FFF794FE30E782
:102E7000A18DE38D9BB2C91A89B2E38D9BB2002B61
:102E80003FF427AF00293FF424AF226802F10C037E
:102E900053E8003F23F490730C3242E800300028DE
:102EA000F3D1226802F1140353E8003F23F0010339
:102EB000143242E800300028F3D1202384F83E3059
:102EC00000232363226802F10C0353E8003F23F040
:102ED00010030C3242E800300028F3D12046FFF7FF
:102EE0005AFEF6E62046FFF7A8FCF2E62046FFF77A
:102EF0003BFEEEE6872B0008034AD2F8883043F405
:102F00007003C2F88830704700ED00E000B583B070
:102F10000346012200920F21322000F003F803B093
:102F20005DF804FB10B584B0094C4FF0000C84F838
:102F300003C04FF0FF340294BDF818400194009391
:102F400013460A4601460348FFF726F904B010BDB0
:102F500078040020180400200FB410B582B004AB30
:102F600053F8042B01930A4C8021204600F068F8A6
:102F70002046FDF715F94FF0FF3382B22146054890
:102F8000FFF785FD02B0BDE8104004B0704700BFF8
:102F90007C040020DC010020DFF834D00D480E490D
:102FA0000E4A002302E0D458C4500433C4188C42A3
:102FB000F9D30B4A0B4C002301E013600432A24208
:102FC000FBD3FFF799FF00F051F8FDF7CBFB7047FB
:102FD00000000120000000205C000020D83C000818
:102FE0005C000020C8060020FEE730B51446002C27
:102FF0009BB005461A4605DA8B2303604FF0FF307D
:103000001BB030BD4FF40273ADF80C3014BF04F1A7
:10301000FF332346029305934FF6FF73009104910B
:10302000ADF80E3069461E9B00F0B0F8431CBCBFE3
:103030008B232B60002CE3D0009B00221A70DFE76B
:1030400007B5009313460A46014603480068FFF798
:10305000CCFF03B05DF804FB0C00002002440346E3
:10306000934200D1704703F8011BF9E770B50D4D8D
:103070000D4C641BA4100026A64209D10B4D0C4C2C
:1030800000F0DEFD641BA4100026A64205D170BD31
:1030900055F8043B98470136EEE755F8043B98474E
:1030A0000136F2E7D03C0008D03C0008D03C0008D4
:1030B000D43C0008704770470A44914200F1FF3346
:1030C00000D1704710B511F8014B03F8014F914240
:1030D000F9D110BD2DE9F0478E681F46BE420B683E
:1030E00082460C4690462DD8B1F90C2012F4906F10
:1030F00026D06569096905EB4505A3EB010905EBD8
:10310000D5757B1C4B446D109D4238BF1D46530541
:1031100027D5294600F058F9064660B321694A468A
:10312000FFF7CAFFA38923F4906343F08003A381D0
:10313000266165614E44A5EB09052660A5603E4603
:10314000BE4200D93E4620683246414600F090FB20
:10315000A3689B1BA3602368334423600020BDE861
:10316000F0872A4600F056FB06460028E0D1216988
:10317000504600F0A7FB0C23CAF80030A38943F0A7
:103180004003A3814FF0FF30E9E700002DE9F04F45
:1031900098468B891B069DB007460D46144610D5F0
:1031A0000B6973B9402100F00FF92860286130B92C
:1031B0000C233B604FF0FF301DB0BDE8F08F402383
:1031C0006B610023099320238DF82930CDF80C8002
:1031D0003023DFF89C818DF82A304FF00109234617
:1031E0009A4613F8012B0AB1252AF9D1BAEB040B40
:1031F0000BD05B46224629463846FFF76BFF01306D
:1032000000F0A780099A5A4409929AF80030002BDE
:1032100000F09F8000234FF0FF32CDE905230AF133
:10322000010A049307938DF853301A9354460522EC
:1032300014F8011B4E48FCF7BBFF049AD8B9D0061E
:1032400044BF20238DF85330110744BF2B238DF842
:1032500053309AF800302A2B15D0079A5446002094
:103260004FF00A0C214611F8013B303B092B4BD99A
:10327000B0B1079214E0A0EB080309FA03F313437B
:103280000493A246D2E7039B191D1B680391002BF0
:10329000BBBF5B4242F0020207930793B8BF0492A0
:1032A00023782E2B0AD163782A2B32D1039B1A1D47
:1032B0001B68039243EAE37302340593DFF8C0A06E
:1032C000217803225046FCF773FF38B1049BA0EB32
:1032D0000A004022824013430134049314F8011B76
:1032E00024488DF828100622FCF762FF002836D00B
:1032F000214B1BBB039B073323F0070308330393C6
:10330000099B334409936AE70CFB02320C46012007
:10331000A8E700230134059319464FF00A0C204614
:1033200010F8012B303A092A03D9002BC6D0059199
:10333000C4E70CFB012104460123F0E703AB009333
:103340002A460E4B04A93846AFF30080421C0646BD
:10335000D6D1AB895B063FF52DAF09982CE703ABBF
:1033600000932A46054B04A9384600F01BF9EDE707
:10337000943C00089E3C000800000000D530000886
:103380009A3C000870B50F4E0C463168054611B9DD
:1033900000F088FA30602146284600F083FA431C8A
:1033A00003D14FF0FF34204670BDC41C24F0030449
:1033B000A042F8D0211A284600F074FA0130F2D168
:1033C000EFE700BFB80600202DE9F843CD1C25F03B
:1033D000030508350C2D38BF0C25002D064601DBF2
:1033E000A94204D90C2333600020BDE8F883DFF83C
:1033F000D48000F003FAD8F800301C4644BB2946BC
:103400003046FFF7BFFF431C044658D1D8F80040B0
:103410002746002F43D1002C4BD023683946304635
:1034200004EB030900F03EFA814542D121686D1A90
:1034300029463046FFF7A6FF01303AD023682B44D7
:103440002360D8F800305A6862BBC8F800700FE0FB
:103450002268521B20D40B2A17D96119A342256078
:1034600018BF5960636808BFC8F8001062514B600C
:10347000304600F0C9F904F10B00231D20F00700CD
:10348000C21A1CBF1B1AA350AFE76268A3420CBF4D
:10349000C8F800205A60EBE723466468AEE73C4674
:1034A0007F68B6E71A465B68A342FBD100235360EE
:1034B000DEE70C233360304600F0A6F994E70560A0
:1034C000D6E700BFBC0600202DE9F0471646984617
:1034D0008A680B69DDF820909342B8BF13463360C9
:1034E00091F8432007460C460AB101333360236844
:1034F000990642BF336802333360256815F006052C
:1035000006D104F1190AE36832689B1AAB4226DC43
:1035100094F843302268003B18BF012392062BD455
:1035200004F1430241463846C84701301ED02368A3
:10353000226903F00603042B02BFE5683368ED1A25
:10354000A3680CBF25EAE57500259342C4BF9B1A0A
:10355000ED1800261A34B5421AD1002008E00123E4
:10356000524641463846C847013003D14FF0FF303C
:10357000BDE8F0870135C6E7E1185A1C302081F814
:103580004300224494F8451082F843100233C7E701
:103590000123224641463846C8470130E6D001366D
:1035A000D9E700002DE9FF470F7E0C9E782F91464A
:1035B00080460C469A4601F1430207D8622F0AD88A
:1035C000002F00F0DD80582F00F0C38004F1420688
:1035D00084F842703AE0A7F16303152BF6D801A1F5
:1035E00051F823F03D36000851360008CD3500086B
:1035F000CD350008CD350008CD350008513600081E
:10360000CD350008CD350008CD350008CD35000892
:1036100067370008DF3600081F370008CD3500087F
:10362000CD35000889370008CD350008DF360008A1
:10363000CD350008CD3500082737000833681A1D3E
:103640001B68326004F1420684F842300123A8E08E
:1036500031682368081D30601E0601D50D6803E03F
:103660005D06FBD5B1F900506168002D78DA2D2098
:10367000002984F84300A1602DDA5E486D420A23D8
:103680001646B5FBF3F103FB1157C75D06F8017D44
:103690002F46BB420D46F4D9082B0BD12368DF0718
:1036A00008D5236961689942DEBF302306F8013CE2
:1036B00006F1FF36921B2261CDF800A04B4603AA0B
:1036C00021464046FFF700FF01306FD14FF0FF3039
:1036D00004B0BDE8F08723F004032360CDE7216840
:1036E0003368080653F8045B02D4490648BFADB2FC
:1036F0006F2F4048336014BF0A230823002184F849
:1037000043106668A660002EBADB216821F0040130
:103710002160002DB4D1002EB2D11646BCE723683B
:1037200043F0200323603448782784F845702368E9
:1037300031681F0651F8045B02D45F0648BFADB282
:103740003160D90744BF43F0200323601DB110232B
:10375000D4E72848E9E7236823F020032360F6E74D
:1037600024480A23CDE7336825686169181D306055
:103770002E061B6801D5196002E06806FBD519808A
:1037800000232361164697E733681A1D32601E68CE
:10379000626800213046FCF70BFD08B1801B6060B9
:1037A00063682361002384F8433085E72369324648
:1037B00049464046D047013088D023689B0714D43F
:1037C000E068039B9842B8BF184681E70123324660
:1037D00049464046D04701303FF478AF0135E368B1
:1037E00003995B1AAB42F1DCEAE7002504F1190604
:1037F000F5E700BFA53C0008B63C00080148FFF70C
:1038000059BC00BFB40600200148FFF754BC00BFFC
:10381000B40600202DE9F041804615460C4621B93A
:10382000BDE8F0411146FFF7CFBD2AB900F04AF8D4
:1038300000242046BDE8F08100F08EF8854206465F
:1038400002D8B5EB500FF4D829464046FFF7BCFD2F
:1038500007460028ECD0B5422A46214628BF32460A
:10386000FFF72AFC2146404600F02CF83C46E0E7F2
:10387000884210B501EB020402D98442234607D8DE
:10388000431EA14208D011F8012B03F8012FF8E7DD
:10389000024401468A4200D110BD13F8014D02F8DE
:1038A000014DF7E738B5064D0023044608462B6066
:1038B00000F05AF8431C02D12B6803B1236038BDD5
:1038C000C006002038B50546002941D051F8043C17
:1038D0000C1F002BB8BFE418FFF790FF1D4A1368B8
:1038E00033B9636014602846BDE83840FFF78CBFE9
:1038F000A34208D9206821188B4201BF19685B6870
:1039000009182160EDE71A465B680BB1A342FAD9AA
:1039100011685018A0420BD120680144501883420E
:103920001160E0D118685B68536008441060DAE702
:1039300002D90C232B60D6E7206821188B4204BFE4
:1039400019685B68636004BF091821605460CAE7A6
:1039500038BD00BFBC06002051F8043C181F002BE6
:10396000BCBF0B58C0187047044A05491368002BA8
:1039700008BF0B461844106018467047C406002064
:10398000C80600202DE9F047089D0C46002B4ED1BB
:1039900094468C458646B2FA82F262D94AB1C2F1A7
:1039A0002003914020FA03F30CFA02FC194300FAB9
:1039B00002FE4FEA1C471FFA8CF6B1FBF7F44FEA00
:1039C0001E4307FB141143EA014304FB06F199422D
:1039D0000AD91CEB030304F1FF3080F012819942F5
:1039E00040F20F81023C6344591A1FFA8EF3B1FB77
:1039F000F7F007FB101143EA014300FB06F69E4275
:103A00000AD91CEB030300F1FF3180F0FC809E42D9
:103A100040F2F980634402389B1B40EA04400021D5
:103A20001DB1D3400022C5E90032BDE8F0878B42CA
:103A300005D90DB1C5E9000100210846F5E7B3FA43
:103A400083F1002946D1A34202D39042C0F0F08016
:103A5000861A64EB03030120002DE6D0C5E900635C
:103A6000E3E7002A40F09080A1EB0C044FEA1C48E9
:103A70001FFA8CF70121B4FBF8F64FEA1E4308FB4E
:103A8000164443EA044307FB06F0984208D91CEBAE
:103A9000030306F1FF3402D2984200F2CD8026469D
:103AA0001C1A1FFA8EF3B4FBF8F008FB104443EA2B
:103AB000044300FB07F79F4208D91CEB030300F106
:103AC000FF3402D29F4200F2B0802046DB1B40EA66
:103AD0000640A5E7C1F120068B4022FA06F71F43F6
:103AE00020FA06FC04FA01F343EA0C03F44000FA5E
:103AF00001F8380C4FEA1349B4FBF0FE1FFA87FCBB
:103B000000FB1E4449EA04440EFB0CF9A14502FAED
:103B100001F20AD93C190EF1FF3A80F08480A145E8
:103B200040F28180AEF1020E3C44A4EB09041FFA7E
:103B300083F9B4FBF0F300FB134449EA044403FBAC
:103B40000CFCA44507D93C1903F1FF3067D2A4450A
:103B500065D9023B3C4443EA0E40A0FB0293A4EB30
:103B60000C049C42CE469C4651D34ED055B1B8EB86
:103B70000E0364EB0C0404FA06F6CB401E43CC4063
:103B8000C5E90064002150E7C2F1200320FA03F1E7
:103B90000CFA02FC24FA03F394400C434FEA1C484D
:103BA00000FA02FE1FFA8CF7B3FBF8F008FB1031A5
:103BB000230C43EA014300FB07F1994208D91CEBAF
:103BC000030300F1FF362CD299422AD9023863440C
:103BD0005B1AA4B2B3FBF8F108FB113344EA0344C7
:103BE00001FB07F3A34208D91CEB040401F1FF36E3
:103BF00013D2A34211D902396444E41A41EA0041C4
:103C000039E70446F0E6084606E7C845AED2B9EB08
:103C1000020E63EB070C0138A8E73146EDE70346D7
:103C200099E73046D4E7D6467FE7634402384DE74C
:103C30000646234608460FE7023E634430E700BFCE
:103C4000F8B500BFF8BC08BC9E467047F8B500BF89
:083C5000F8BC08BC9E46704759
:103C58004572726F7220494D550D0A00494D552025
:103C680049443A2025233032580D6E0000061016BC
:103C78000006101600000000010203040000000006
:103C8800000000000102030406070809232D302B59
:103C98002000686C4C006566674546470030313245
:103CA800333435363738394142434445460030319C
:103CB80032333435363738396162636465660000FB
:083CC800D8C4FF7F01000000D9
:043CD000ED020008F9
:043CD400C50200081D
:103CD80001000000100000000024F4001000002083
:103CE800000000007C050020E40500204C060020B0
:103CF80000000000000000000000000000000000BC
:103D080000000000000000000000000000000000AB
:103D1800000000000000000000000000000000009B
:0C3D28000000000000000000000000008F
:0400000508002F9927
:00000001FF
